{
	"solidity/Function.sol": {
		"Func": {
			"abi": [
				{
					"inputs": [
						{
							"internalType": "string",
							"name": "_s",
							"type": "string"
						},
						{
							"internalType": "uint256",
							"name": "_id",
							"type": "uint256"
						}
					],
					"name": "addInfo",
					"outputs": [],
					"stateMutability": "nonpayable",
					"type": "function"
				},
				{
					"inputs": [],
					"name": "getAllInfo",
					"outputs": [
						{
							"components": [
								{
									"internalType": "string",
									"name": "message",
									"type": "string"
								},
								{
									"internalType": "uint256",
									"name": "id",
									"type": "uint256"
								},
								{
									"internalType": "address",
									"name": "addr",
									"type": "address"
								}
							],
							"internalType": "struct Func.Info[]",
							"name": "",
							"type": "tuple[]"
						}
					],
					"stateMutability": "view",
					"type": "function"
				},
				{
					"inputs": [
						{
							"internalType": "uint256",
							"name": "_id",
							"type": "uint256"
						}
					],
					"name": "getInfo",
					"outputs": [
						{
							"components": [
								{
									"internalType": "string",
									"name": "message",
									"type": "string"
								},
								{
									"internalType": "uint256",
									"name": "id",
									"type": "uint256"
								},
								{
									"internalType": "address",
									"name": "addr",
									"type": "address"
								}
							],
							"internalType": "struct Func.Info",
							"name": "",
							"type": "tuple"
						}
					],
					"stateMutability": "view",
					"type": "function"
				},
				{
					"inputs": [
						{
							"internalType": "int256",
							"name": "value",
							"type": "int256"
						}
					],
					"name": "getSum",
					"outputs": [
						{
							"internalType": "int256",
							"name": "",
							"type": "int256"
						}
					],
					"stateMutability": "pure",
					"type": "function"
				},
				{
					"inputs": [],
					"name": "getValue",
					"outputs": [
						{
							"internalType": "string",
							"name": "",
							"type": "string"
						}
					],
					"stateMutability": "view",
					"type": "function"
				},
				{
					"inputs": [
						{
							"internalType": "uint256",
							"name": "",
							"type": "uint256"
						}
					],
					"name": "infoMap",
					"outputs": [
						{
							"internalType": "string",
							"name": "message",
							"type": "string"
						},
						{
							"internalType": "uint256",
							"name": "id",
							"type": "uint256"
						},
						{
							"internalType": "address",
							"name": "addr",
							"type": "address"
						}
					],
					"stateMutability": "view",
					"type": "function"
				},
				{
					"inputs": [
						{
							"internalType": "string",
							"name": "_s",
							"type": "string"
						}
					],
					"name": "setValue",
					"outputs": [],
					"stateMutability": "nonpayable",
					"type": "function"
				}
			],
			"devdoc": {
				"kind": "dev",
				"methods": {},
				"version": 1
			},
			"evm": {
				"assembly": "    /* \"solidity/Function.sol\":58:1374  contract Func {... */\n  mstore(0x40, 0x80)\n    /* \"solidity/Function.sol\":78:97  string str = \"test\" */\n  mload(0x40)\n  dup1\n  0x40\n  add\n  0x40\n  mstore\n  dup1\n  0x04\n  dup2\n  mstore\n  0x20\n  add\n  0x7465737400000000000000000000000000000000000000000000000000000000\n  dup2\n  mstore\n  pop\n  0x00\n  swap1\n  dup2\n  tag_1\n  swap2\n  swap1\n  tag_2\n  jump\t// in\ntag_1:\n  pop\n    /* \"solidity/Function.sol\":116:117  0 */\n  0x00\n    /* \"solidity/Function.sol\":103:117  int256 num = 0 */\n  0x01\n  sstore\n    /* \"solidity/Function.sol\":58:1374  contract Func {... */\n  callvalue\n  dup1\n  iszero\n  tag_3\n  jumpi\n  revert(0x00, 0x00)\ntag_3:\n  pop\n  jump(tag_4)\n    /* \"#utility.yul\":7:106   */\ntag_5:\n    /* \"#utility.yul\":59:65   */\n  0x00\n    /* \"#utility.yul\":93:98   */\n  dup2\n    /* \"#utility.yul\":87:99   */\n  mload\n    /* \"#utility.yul\":77:99   */\n  swap1\n  pop\n    /* \"#utility.yul\":7:106   */\n  swap2\n  swap1\n  pop\n  jump\t// out\n    /* \"#utility.yul\":112:292   */\ntag_6:\n    /* \"#utility.yul\":160:237   */\n  0x4e487b7100000000000000000000000000000000000000000000000000000000\n    /* \"#utility.yul\":157:158   */\n  0x00\n    /* \"#utility.yul\":150:238   */\n  mstore\n    /* \"#utility.yul\":257:261   */\n  0x41\n    /* \"#utility.yul\":254:255   */\n  0x04\n    /* \"#utility.yul\":247:262   */\n  mstore\n    /* \"#utility.yul\":281:285   */\n  0x24\n    /* \"#utility.yul\":278:279   */\n  0x00\n    /* \"#utility.yul\":271:286   */\n  revert\n    /* \"#utility.yul\":298:478   */\ntag_7:\n    /* \"#utility.yul\":346:423   */\n  0x4e487b7100000000000000000000000000000000000000000000000000000000\n    /* \"#utility.yul\":343:344   */\n  0x00\n    /* \"#utility.yul\":336:424   */\n  mstore\n    /* \"#utility.yul\":443:447   */\n  0x22\n    /* \"#utility.yul\":440:441   */\n  0x04\n    /* \"#utility.yul\":433:448   */\n  mstore\n    /* \"#utility.yul\":467:471   */\n  0x24\n    /* \"#utility.yul\":464:465   */\n  0x00\n    /* \"#utility.yul\":457:472   */\n  revert\n    /* \"#utility.yul\":484:804   */\ntag_8:\n    /* \"#utility.yul\":528:534   */\n  0x00\n    /* \"#utility.yul\":565:566   */\n  0x02\n    /* \"#utility.yul\":559:563   */\n  dup3\n    /* \"#utility.yul\":555:567   */\n  div\n    /* \"#utility.yul\":545:567   */\n  swap1\n  pop\n    /* \"#utility.yul\":612:613   */\n  0x01\n    /* \"#utility.yul\":606:610   */\n  dup3\n    /* \"#utility.yul\":602:614   */\n  and\n    /* \"#utility.yul\":633:651   */\n  dup1\n    /* \"#utility.yul\":623:704   */\n  tag_30\n  jumpi\n    /* \"#utility.yul\":689:693   */\n  0x7f\n    /* \"#utility.yul\":681:687   */\n  dup3\n    /* \"#utility.yul\":677:694   */\n  and\n    /* \"#utility.yul\":667:694   */\n  swap2\n  pop\n    /* \"#utility.yul\":623:704   */\ntag_30:\n    /* \"#utility.yul\":751:753   */\n  0x20\n    /* \"#utility.yul\":743:749   */\n  dup3\n    /* \"#utility.yul\":740:754   */\n  lt\n    /* \"#utility.yul\":720:738   */\n  dup2\n    /* \"#utility.yul\":717:755   */\n  sub\n    /* \"#utility.yul\":714:798   */\n  tag_31\n  jumpi\n    /* \"#utility.yul\":770:788   */\n  tag_32\n  tag_7\n  jump\t// in\ntag_32:\n    /* \"#utility.yul\":714:798   */\ntag_31:\n    /* \"#utility.yul\":535:804   */\n  pop\n    /* \"#utility.yul\":484:804   */\n  swap2\n  swap1\n  pop\n  jump\t// out\n    /* \"#utility.yul\":810:951   */\ntag_9:\n    /* \"#utility.yul\":859:863   */\n  0x00\n    /* \"#utility.yul\":882:885   */\n  dup2\n    /* \"#utility.yul\":874:885   */\n  swap1\n  pop\n    /* \"#utility.yul\":905:908   */\n  dup2\n    /* \"#utility.yul\":902:903   */\n  0x00\n    /* \"#utility.yul\":895:909   */\n  mstore\n    /* \"#utility.yul\":939:943   */\n  0x20\n    /* \"#utility.yul\":936:937   */\n  0x00\n    /* \"#utility.yul\":926:944   */\n  keccak256\n    /* \"#utility.yul\":918:944   */\n  swap1\n  pop\n    /* \"#utility.yul\":810:951   */\n  swap2\n  swap1\n  pop\n  jump\t// out\n    /* \"#utility.yul\":957:1050   */\ntag_10:\n    /* \"#utility.yul\":994:1000   */\n  0x00\n    /* \"#utility.yul\":1041:1043   */\n  0x20\n    /* \"#utility.yul\":1036:1038   */\n  0x1f\n    /* \"#utility.yul\":1029:1034   */\n  dup4\n    /* \"#utility.yul\":1025:1039   */\n  add\n    /* \"#utility.yul\":1021:1044   */\n  div\n    /* \"#utility.yul\":1011:1044   */\n  swap1\n  pop\n    /* \"#utility.yul\":957:1050   */\n  swap2\n  swap1\n  pop\n  jump\t// out\n    /* \"#utility.yul\":1056:1163   */\ntag_11:\n    /* \"#utility.yul\":1100:1108   */\n  0x00\n    /* \"#utility.yul\":1150:1155   */\n  dup3\n    /* \"#utility.yul\":1144:1148   */\n  dup3\n    /* \"#utility.yul\":1140:1156   */\n  shl\n    /* \"#utility.yul\":1119:1156   */\n  swap1\n  pop\n    /* \"#utility.yul\":1056:1163   */\n  swap3\n  swap2\n  pop\n  pop\n  jump\t// out\n    /* \"#utility.yul\":1169:1562   */\ntag_12:\n    /* \"#utility.yul\":1238:1244   */\n  0x00\n    /* \"#utility.yul\":1288:1289   */\n  0x08\n    /* \"#utility.yul\":1276:1286   */\n  dup4\n    /* \"#utility.yul\":1272:1290   */\n  mul\n    /* \"#utility.yul\":1311:1408   */\n  tag_37\n    /* \"#utility.yul\":1341:1407   */\n  0xffffffffffffffffffffffffffffffffffffffffffffffffffffffffffffffff\n    /* \"#utility.yul\":1330:1339   */\n  dup3\n    /* \"#utility.yul\":1311:1408   */\n  tag_11\n  jump\t// in\ntag_37:\n    /* \"#utility.yul\":1429:1468   */\n  tag_38\n    /* \"#utility.yul\":1459:1467   */\n  dup7\n    /* \"#utility.yul\":1448:1457   */\n  dup4\n    /* \"#utility.yul\":1429:1468   */\n  tag_11\n  jump\t// in\ntag_38:\n    /* \"#utility.yul\":1417:1468   */\n  swap6\n  pop\n    /* \"#utility.yul\":1501:1505   */\n  dup1\n    /* \"#utility.yul\":1497:1506   */\n  not\n    /* \"#utility.yul\":1490:1495   */\n  dup5\n    /* \"#utility.yul\":1486:1507   */\n  and\n    /* \"#utility.yul\":1477:1507   */\n  swap4\n  pop\n    /* \"#utility.yul\":1550:1554   */\n  dup1\n    /* \"#utility.yul\":1540:1548   */\n  dup7\n    /* \"#utility.yul\":1536:1555   */\n  and\n    /* \"#utility.yul\":1529:1534   */\n  dup5\n    /* \"#utility.yul\":1526:1556   */\n  or\n    /* \"#utility.yul\":1516:1556   */\n  swap3\n  pop\n    /* \"#utility.yul\":1245:1562   */\n  pop\n  pop\n    /* \"#utility.yul\":1169:1562   */\n  swap4\n  swap3\n  pop\n  pop\n  pop\n  jump\t// out\n    /* \"#utility.yul\":1568:1645   */\ntag_13:\n    /* \"#utility.yul\":1605:1612   */\n  0x00\n    /* \"#utility.yul\":1634:1639   */\n  dup2\n    /* \"#utility.yul\":1623:1639   */\n  swap1\n  pop\n    /* \"#utility.yul\":1568:1645   */\n  swap2\n  swap1\n  pop\n  jump\t// out\n    /* \"#utility.yul\":1651:1711   */\ntag_14:\n    /* \"#utility.yul\":1679:1682   */\n  0x00\n    /* \"#utility.yul\":1700:1705   */\n  dup2\n    /* \"#utility.yul\":1693:1705   */\n  swap1\n  pop\n    /* \"#utility.yul\":1651:1711   */\n  swap2\n  swap1\n  pop\n  jump\t// out\n    /* \"#utility.yul\":1717:1859   */\ntag_15:\n    /* \"#utility.yul\":1767:1776   */\n  0x00\n    /* \"#utility.yul\":1800:1853   */\n  tag_42\n    /* \"#utility.yul\":1818:1852   */\n  tag_43\n    /* \"#utility.yul\":1827:1851   */\n  tag_44\n    /* \"#utility.yul\":1845:1850   */\n  dup5\n    /* \"#utility.yul\":1827:1851   */\n  tag_13\n  jump\t// in\ntag_44:\n    /* \"#utility.yul\":1818:1852   */\n  tag_14\n  jump\t// in\ntag_43:\n    /* \"#utility.yul\":1800:1853   */\n  tag_13\n  jump\t// in\ntag_42:\n    /* \"#utility.yul\":1787:1853   */\n  swap1\n  pop\n    /* \"#utility.yul\":1717:1859   */\n  swap2\n  swap1\n  pop\n  jump\t// out\n    /* \"#utility.yul\":1865:1940   */\ntag_16:\n    /* \"#utility.yul\":1908:1911   */\n  0x00\n    /* \"#utility.yul\":1929:1934   */\n  dup2\n    /* \"#utility.yul\":1922:1934   */\n  swap1\n  pop\n    /* \"#utility.yul\":1865:1940   */\n  swap2\n  swap1\n  pop\n  jump\t// out\n    /* \"#utility.yul\":1946:2215   */\ntag_17:\n    /* \"#utility.yul\":2056:2095   */\n  tag_47\n    /* \"#utility.yul\":2087:2094   */\n  dup4\n    /* \"#utility.yul\":2056:2095   */\n  tag_15\n  jump\t// in\ntag_47:\n    /* \"#utility.yul\":2117:2208   */\n  tag_48\n    /* \"#utility.yul\":2166:2207   */\n  tag_49\n    /* \"#utility.yul\":2190:2206   */\n  dup3\n    /* \"#utility.yul\":2166:2207   */\n  tag_16\n  jump\t// in\ntag_49:\n    /* \"#utility.yul\":2158:2164   */\n  dup5\n    /* \"#utility.yul\":2151:2155   */\n  dup5\n    /* \"#utility.yul\":2145:2156   */\n  sload\n    /* \"#utility.yul\":2117:2208   */\n  tag_12\n  jump\t// in\ntag_48:\n    /* \"#utility.yul\":2111:2115   */\n  dup3\n    /* \"#utility.yul\":2104:2209   */\n  sstore\n    /* \"#utility.yul\":2022:2215   */\n  pop\n    /* \"#utility.yul\":1946:2215   */\n  pop\n  pop\n  pop\n  jump\t// out\n    /* \"#utility.yul\":2221:2294   */\ntag_18:\n    /* \"#utility.yul\":2266:2269   */\n  0x00\n    /* \"#utility.yul\":2287:2288   */\n  0x00\n    /* \"#utility.yul\":2280:2288   */\n  swap1\n  pop\n    /* \"#utility.yul\":2221:2294   */\n  swap1\n  jump\t// out\n    /* \"#utility.yul\":2300:2489   */\ntag_19:\n    /* \"#utility.yul\":2377:2409   */\n  tag_52\n  tag_18\n  jump\t// in\ntag_52:\n    /* \"#utility.yul\":2418:2483   */\n  tag_53\n    /* \"#utility.yul\":2476:2482   */\n  dup2\n    /* \"#utility.yul\":2468:2474   */\n  dup5\n    /* \"#utility.yul\":2462:2466   */\n  dup5\n    /* \"#utility.yul\":2418:2483   */\n  tag_17\n  jump\t// in\ntag_53:\n    /* \"#utility.yul\":2353:2489   */\n  pop\n    /* \"#utility.yul\":2300:2489   */\n  pop\n  pop\n  jump\t// out\n    /* \"#utility.yul\":2495:2681   */\ntag_20:\n    /* \"#utility.yul\":2555:2675   */\ntag_55:\n    /* \"#utility.yul\":2572:2575   */\n  dup2\n    /* \"#utility.yul\":2565:2570   */\n  dup2\n    /* \"#utility.yul\":2562:2576   */\n  lt\n    /* \"#utility.yul\":2555:2675   */\n  iszero\n  tag_57\n  jumpi\n    /* \"#utility.yul\":2626:2665   */\n  tag_58\n    /* \"#utility.yul\":2663:2664   */\n  0x00\n    /* \"#utility.yul\":2656:2661   */\n  dup3\n    /* \"#utility.yul\":2626:2665   */\n  tag_19\n  jump\t// in\ntag_58:\n    /* \"#utility.yul\":2599:2600   */\n  0x01\n    /* \"#utility.yul\":2592:2597   */\n  dup2\n    /* \"#utility.yul\":2588:2601   */\n  add\n    /* \"#utility.yul\":2579:2601   */\n  swap1\n  pop\n    /* \"#utility.yul\":2555:2675   */\n  jump(tag_55)\ntag_57:\n    /* \"#utility.yul\":2495:2681   */\n  pop\n  pop\n  jump\t// out\n    /* \"#utility.yul\":2687:3230   */\ntag_21:\n    /* \"#utility.yul\":2788:2790   */\n  0x1f\n    /* \"#utility.yul\":2783:2786   */\n  dup3\n    /* \"#utility.yul\":2780:2791   */\n  gt\n    /* \"#utility.yul\":2777:3223   */\n  iszero\n  tag_60\n  jumpi\n    /* \"#utility.yul\":2822:2860   */\n  tag_61\n    /* \"#utility.yul\":2854:2859   */\n  dup2\n    /* \"#utility.yul\":2822:2860   */\n  tag_9\n  jump\t// in\ntag_61:\n    /* \"#utility.yul\":2906:2935   */\n  tag_62\n    /* \"#utility.yul\":2924:2934   */\n  dup5\n    /* \"#utility.yul\":2906:2935   */\n  tag_10\n  jump\t// in\ntag_62:\n    /* \"#utility.yul\":2896:2904   */\n  dup2\n    /* \"#utility.yul\":2892:2936   */\n  add\n    /* \"#utility.yul\":3089:3091   */\n  0x20\n    /* \"#utility.yul\":3077:3087   */\n  dup6\n    /* \"#utility.yul\":3074:3092   */\n  lt\n    /* \"#utility.yul\":3071:3120   */\n  iszero\n  tag_63\n  jumpi\n    /* \"#utility.yul\":3110:3118   */\n  dup2\n    /* \"#utility.yul\":3095:3118   */\n  swap1\n  pop\n    /* \"#utility.yul\":3071:3120   */\ntag_63:\n    /* \"#utility.yul\":3133:3213   */\n  tag_64\n    /* \"#utility.yul\":3189:3211   */\n  tag_65\n    /* \"#utility.yul\":3207:3210   */\n  dup6\n    /* \"#utility.yul\":3189:3211   */\n  tag_10\n  jump\t// in\ntag_65:\n    /* \"#utility.yul\":3179:3187   */\n  dup4\n    /* \"#utility.yul\":3175:3212   */\n  add\n    /* \"#utility.yul\":3162:3173   */\n  dup3\n    /* \"#utility.yul\":3133:3213   */\n  tag_20\n  jump\t// in\ntag_64:\n    /* \"#utility.yul\":2792:3223   */\n  pop\n  pop\n    /* \"#utility.yul\":2777:3223   */\ntag_60:\n    /* \"#utility.yul\":2687:3230   */\n  pop\n  pop\n  pop\n  jump\t// out\n    /* \"#utility.yul\":3236:3353   */\ntag_22:\n    /* \"#utility.yul\":3290:3298   */\n  0x00\n    /* \"#utility.yul\":3340:3345   */\n  dup3\n    /* \"#utility.yul\":3334:3338   */\n  dup3\n    /* \"#utility.yul\":3330:3346   */\n  shr\n    /* \"#utility.yul\":3309:3346   */\n  swap1\n  pop\n    /* \"#utility.yul\":3236:3353   */\n  swap3\n  swap2\n  pop\n  pop\n  jump\t// out\n    /* \"#utility.yul\":3359:3528   */\ntag_23:\n    /* \"#utility.yul\":3403:3409   */\n  0x00\n    /* \"#utility.yul\":3436:3487   */\n  tag_68\n    /* \"#utility.yul\":3484:3485   */\n  0x00\n    /* \"#utility.yul\":3480:3486   */\n  not\n    /* \"#utility.yul\":3472:3477   */\n  dup5\n    /* \"#utility.yul\":3469:3470   */\n  0x08\n    /* \"#utility.yul\":3465:3478   */\n  mul\n    /* \"#utility.yul\":3436:3487   */\n  tag_22\n  jump\t// in\ntag_68:\n    /* \"#utility.yul\":3432:3488   */\n  not\n    /* \"#utility.yul\":3517:3521   */\n  dup1\n    /* \"#utility.yul\":3511:3515   */\n  dup4\n    /* \"#utility.yul\":3507:3522   */\n  and\n    /* \"#utility.yul\":3497:3522   */\n  swap2\n  pop\n    /* \"#utility.yul\":3410:3528   */\n  pop\n    /* \"#utility.yul\":3359:3528   */\n  swap3\n  swap2\n  pop\n  pop\n  jump\t// out\n    /* \"#utility.yul\":3533:3828   */\ntag_24:\n    /* \"#utility.yul\":3609:3613   */\n  0x00\n    /* \"#utility.yul\":3755:3784   */\n  tag_70\n    /* \"#utility.yul\":3780:3783   */\n  dup4\n    /* \"#utility.yul\":3774:3778   */\n  dup4\n    /* \"#utility.yul\":3755:3784   */\n  tag_23\n  jump\t// in\ntag_70:\n    /* \"#utility.yul\":3747:3784   */\n  swap2\n  pop\n    /* \"#utility.yul\":3817:3820   */\n  dup3\n    /* \"#utility.yul\":3814:3815   */\n  0x02\n    /* \"#utility.yul\":3810:3821   */\n  mul\n    /* \"#utility.yul\":3804:3808   */\n  dup3\n    /* \"#utility.yul\":3801:3822   */\n  or\n    /* \"#utility.yul\":3793:3822   */\n  swap1\n  pop\n    /* \"#utility.yul\":3533:3828   */\n  swap3\n  swap2\n  pop\n  pop\n  jump\t// out\n    /* \"#utility.yul\":3833:5228   */\ntag_2:\n    /* \"#utility.yul\":3950:3987   */\n  tag_72\n    /* \"#utility.yul\":3983:3986   */\n  dup3\n    /* \"#utility.yul\":3950:3987   */\n  tag_5\n  jump\t// in\ntag_72:\n    /* \"#utility.yul\":4052:4070   */\n  0xffffffffffffffff\n    /* \"#utility.yul\":4044:4050   */\n  dup2\n    /* \"#utility.yul\":4041:4071   */\n  gt\n    /* \"#utility.yul\":4038:4094   */\n  iszero\n  tag_73\n  jumpi\n    /* \"#utility.yul\":4074:4092   */\n  tag_74\n  tag_6\n  jump\t// in\ntag_74:\n    /* \"#utility.yul\":4038:4094   */\ntag_73:\n    /* \"#utility.yul\":4118:4156   */\n  tag_75\n    /* \"#utility.yul\":4150:4154   */\n  dup3\n    /* \"#utility.yul\":4144:4155   */\n  sload\n    /* \"#utility.yul\":4118:4156   */\n  tag_8\n  jump\t// in\ntag_75:\n    /* \"#utility.yul\":4203:4270   */\n  tag_76\n    /* \"#utility.yul\":4263:4269   */\n  dup3\n    /* \"#utility.yul\":4255:4261   */\n  dup3\n    /* \"#utility.yul\":4249:4253   */\n  dup6\n    /* \"#utility.yul\":4203:4270   */\n  tag_21\n  jump\t// in\ntag_76:\n    /* \"#utility.yul\":4297:4298   */\n  0x00\n    /* \"#utility.yul\":4321:4325   */\n  0x20\n    /* \"#utility.yul\":4308:4325   */\n  swap1\n  pop\n    /* \"#utility.yul\":4353:4355   */\n  0x1f\n    /* \"#utility.yul\":4345:4351   */\n  dup4\n    /* \"#utility.yul\":4342:4356   */\n  gt\n    /* \"#utility.yul\":4370:4371   */\n  0x01\n    /* \"#utility.yul\":4365:4983   */\n  dup2\n  eq\n  tag_78\n  jumpi\n    /* \"#utility.yul\":5027:5028   */\n  0x00\n    /* \"#utility.yul\":5044:5050   */\n  dup5\n    /* \"#utility.yul\":5041:5118   */\n  iszero\n  tag_79\n  jumpi\n    /* \"#utility.yul\":5093:5102   */\n  dup3\n    /* \"#utility.yul\":5088:5091   */\n  dup8\n    /* \"#utility.yul\":5084:5103   */\n  add\n    /* \"#utility.yul\":5078:5104   */\n  mload\n    /* \"#utility.yul\":5069:5104   */\n  swap1\n  pop\n    /* \"#utility.yul\":5041:5118   */\ntag_79:\n    /* \"#utility.yul\":5144:5211   */\n  tag_80\n    /* \"#utility.yul\":5204:5210   */\n  dup6\n    /* \"#utility.yul\":5197:5202   */\n  dup3\n    /* \"#utility.yul\":5144:5211   */\n  tag_24\n  jump\t// in\ntag_80:\n    /* \"#utility.yul\":5138:5142   */\n  dup7\n    /* \"#utility.yul\":5131:5212   */\n  sstore\n    /* \"#utility.yul\":5000:5222   */\n  pop\n    /* \"#utility.yul\":4335:5222   */\n  jump(tag_77)\n    /* \"#utility.yul\":4365:4983   */\ntag_78:\n    /* \"#utility.yul\":4417:4421   */\n  0x1f\n    /* \"#utility.yul\":4413:4422   */\n  not\n    /* \"#utility.yul\":4405:4411   */\n  dup5\n    /* \"#utility.yul\":4401:4423   */\n  and\n    /* \"#utility.yul\":4451:4488   */\n  tag_81\n    /* \"#utility.yul\":4483:4487   */\n  dup7\n    /* \"#utility.yul\":4451:4488   */\n  tag_9\n  jump\t// in\ntag_81:\n    /* \"#utility.yul\":4510:4511   */\n  0x00\n    /* \"#utility.yul\":4524:4732   */\ntag_82:\n    /* \"#utility.yul\":4538:4545   */\n  dup3\n    /* \"#utility.yul\":4535:4536   */\n  dup2\n    /* \"#utility.yul\":4532:4546   */\n  lt\n    /* \"#utility.yul\":4524:4732   */\n  iszero\n  tag_84\n  jumpi\n    /* \"#utility.yul\":4617:4626   */\n  dup5\n    /* \"#utility.yul\":4612:4615   */\n  dup10\n    /* \"#utility.yul\":4608:4627   */\n  add\n    /* \"#utility.yul\":4602:4628   */\n  mload\n    /* \"#utility.yul\":4594:4600   */\n  dup3\n    /* \"#utility.yul\":4587:4629   */\n  sstore\n    /* \"#utility.yul\":4668:4669   */\n  0x01\n    /* \"#utility.yul\":4660:4666   */\n  dup3\n    /* \"#utility.yul\":4656:4670   */\n  add\n    /* \"#utility.yul\":4646:4670   */\n  swap2\n  pop\n    /* \"#utility.yul\":4715:4717   */\n  0x20\n    /* \"#utility.yul\":4704:4713   */\n  dup6\n    /* \"#utility.yul\":4700:4718   */\n  add\n    /* \"#utility.yul\":4687:4718   */\n  swap5\n  pop\n    /* \"#utility.yul\":4561:4565   */\n  0x20\n    /* \"#utility.yul\":4558:4559   */\n  dup2\n    /* \"#utility.yul\":4554:4566   */\n  add\n    /* \"#utility.yul\":4549:4566   */\n  swap1\n  pop\n    /* \"#utility.yul\":4524:4732   */\n  jump(tag_82)\ntag_84:\n    /* \"#utility.yul\":4760:4766   */\n  dup7\n    /* \"#utility.yul\":4751:4758   */\n  dup4\n    /* \"#utility.yul\":4748:4767   */\n  lt\n    /* \"#utility.yul\":4745:4924   */\n  iszero\n  tag_85\n  jumpi\n    /* \"#utility.yul\":4818:4827   */\n  dup5\n    /* \"#utility.yul\":4813:4816   */\n  dup10\n    /* \"#utility.yul\":4809:4828   */\n  add\n    /* \"#utility.yul\":4803:4829   */\n  mload\n    /* \"#utility.yul\":4861:4909   */\n  tag_86\n    /* \"#utility.yul\":4903:4907   */\n  0x1f\n    /* \"#utility.yul\":4895:4901   */\n  dup10\n    /* \"#utility.yul\":4891:4908   */\n  and\n    /* \"#utility.yul\":4880:4889   */\n  dup3\n    /* \"#utility.yul\":4861:4909   */\n  tag_23\n  jump\t// in\ntag_86:\n    /* \"#utility.yul\":4853:4859   */\n  dup4\n    /* \"#utility.yul\":4846:4910   */\n  sstore\n    /* \"#utility.yul\":4768:4924   */\n  pop\n    /* \"#utility.yul\":4745:4924   */\ntag_85:\n    /* \"#utility.yul\":4970:4971   */\n  0x01\n    /* \"#utility.yul\":4966:4967   */\n  0x02\n    /* \"#utility.yul\":4958:4964   */\n  dup9\n    /* \"#utility.yul\":4954:4968   */\n  mul\n    /* \"#utility.yul\":4950:4972   */\n  add\n    /* \"#utility.yul\":4944:4948   */\n  dup9\n    /* \"#utility.yul\":4937:4973   */\n  sstore\n    /* \"#utility.yul\":4372:4983   */\n  pop\n  pop\n  pop\n    /* \"#utility.yul\":4335:5222   */\ntag_77:\n  pop\n    /* \"#utility.yul\":3925:5228   */\n  pop\n  pop\n  pop\n    /* \"#utility.yul\":3833:5228   */\n  pop\n  pop\n  jump\t// out\n    /* \"solidity/Function.sol\":58:1374  contract Func {... */\ntag_4:\n  dataSize(sub_0)\n  dup1\n  dataOffset(sub_0)\n  0x00\n  codecopy\n  0x00\n  return\nstop\n\nsub_0: assembly {\n        /* \"solidity/Function.sol\":58:1374  contract Func {... */\n      mstore(0x40, 0x80)\n      callvalue\n      dup1\n      iszero\n      tag_1\n      jumpi\n      revert(0x00, 0x00)\n    tag_1:\n      pop\n      jumpi(tag_2, lt(calldatasize, 0x04))\n      shr(0xe0, calldataload(0x00))\n      dup1\n      0x85ba61d7\n      gt\n      tag_10\n      jumpi\n      dup1\n      0x85ba61d7\n      eq\n      tag_6\n      jumpi\n      dup1\n      0x93a09352\n      eq\n      tag_7\n      jumpi\n      dup1\n      0xb18e15bd\n      eq\n      tag_8\n      jumpi\n      dup1\n      0xcd6bc3dd\n      eq\n      tag_9\n      jumpi\n      jump(tag_2)\n    tag_10:\n      dup1\n      0x1a3cd59a\n      eq\n      tag_3\n      jumpi\n      dup1\n      0x20965255\n      eq\n      tag_4\n      jumpi\n      dup1\n      0x58e28ce6\n      eq\n      tag_5\n      jumpi\n    tag_2:\n      revert(0x00, 0x00)\n        /* \"solidity/Function.sol\":1150:1371  function getInfo(uint256 _id) external view returns (Info memory) {... */\n    tag_3:\n      tag_11\n      0x04\n      dup1\n      calldatasize\n      sub\n      dup2\n      add\n      swap1\n      tag_12\n      swap2\n      swap1\n      tag_13\n      jump\t// in\n    tag_12:\n      tag_14\n      jump\t// in\n    tag_11:\n      mload(0x40)\n      tag_15\n      swap2\n      swap1\n      tag_16\n      jump\t// in\n    tag_15:\n      mload(0x40)\n      dup1\n      swap2\n      sub\n      swap1\n      return\n        /* \"solidity/Function.sol\":338:423  function getValue() external view returns (string memory) {... */\n    tag_4:\n      tag_17\n      tag_18\n      jump\t// in\n    tag_17:\n      mload(0x40)\n      tag_19\n      swap2\n      swap1\n      tag_20\n      jump\t// in\n    tag_19:\n      mload(0x40)\n      dup1\n      swap2\n      sub\n      swap1\n      return\n        /* \"solidity/Function.sol\":231:271  mapping (uint256 => Info) public infoMap */\n    tag_5:\n      tag_21\n      0x04\n      dup1\n      calldatasize\n      sub\n      dup2\n      add\n      swap1\n      tag_22\n      swap2\n      swap1\n      tag_13\n      jump\t// in\n    tag_22:\n      tag_23\n      jump\t// in\n    tag_21:\n      mload(0x40)\n      tag_24\n      swap4\n      swap3\n      swap2\n      swap1\n      tag_25\n      jump\t// in\n    tag_24:\n      mload(0x40)\n      dup1\n      swap2\n      sub\n      swap1\n      return\n        /* \"solidity/Function.sol\":556:651  function getSum(int256 value) external pure returns (int256) {... */\n    tag_6:\n      tag_26\n      0x04\n      dup1\n      calldatasize\n      sub\n      dup2\n      add\n      swap1\n      tag_27\n      swap2\n      swap1\n      tag_28\n      jump\t// in\n    tag_27:\n      tag_29\n      jump\t// in\n    tag_26:\n      mload(0x40)\n      tag_30\n      swap2\n      swap1\n      tag_31\n      jump\t// in\n    tag_30:\n      mload(0x40)\n      dup1\n      swap2\n      sub\n      swap1\n      return\n        /* \"solidity/Function.sol\":429:497  function setValue(string memory _s) public {... */\n    tag_7:\n      tag_32\n      0x04\n      dup1\n      calldatasize\n      sub\n      dup2\n      add\n      swap1\n      tag_33\n      swap2\n      swap1\n      tag_34\n      jump\t// in\n    tag_33:\n      tag_35\n      jump\t// in\n    tag_32:\n      stop\n        /* \"solidity/Function.sol\":1055:1144  function getAllInfo() external view returns (Info[] memory) {... */\n    tag_8:\n      tag_36\n      tag_37\n      jump\t// in\n    tag_36:\n      mload(0x40)\n      tag_38\n      swap2\n      swap1\n      tag_39\n      jump\t// in\n    tag_38:\n      mload(0x40)\n      dup1\n      swap2\n      sub\n      swap1\n      return\n        /* \"solidity/Function.sol\":875:1049  function addInfo(string memory _s, uint256 _id) public {... */\n    tag_9:\n      tag_40\n      0x04\n      dup1\n      calldatasize\n      sub\n      dup2\n      add\n      swap1\n      tag_41\n      swap2\n      swap1\n      tag_42\n      jump\t// in\n    tag_41:\n      tag_43\n      jump\t// in\n    tag_40:\n      stop\n        /* \"solidity/Function.sol\":1150:1371  function getInfo(uint256 _id) external view returns (Info memory) {... */\n    tag_14:\n        /* \"solidity/Function.sol\":1203:1214  Info memory */\n      tag_44\n      tag_45\n      jump\t// in\n    tag_44:\n        /* \"solidity/Function.sol\":1231:1240  uint256 i */\n      0x00\n        /* \"solidity/Function.sol\":1243:1244  0 */\n      0x00\n        /* \"solidity/Function.sol\":1231:1244  uint256 i = 0 */\n      swap1\n      pop\n        /* \"solidity/Function.sol\":1226:1365  for (uint256 i = 0; i < items.length; i++) {... */\n    tag_47:\n        /* \"solidity/Function.sol\":1250:1255  items */\n      0x02\n        /* \"solidity/Function.sol\":1250:1262  items.length */\n      dup1\n      sload\n      swap1\n      pop\n        /* \"solidity/Function.sol\":1246:1247  i */\n      dup2\n        /* \"solidity/Function.sol\":1246:1262  i < items.length */\n      lt\n        /* \"solidity/Function.sol\":1226:1365  for (uint256 i = 0; i < items.length; i++) {... */\n      iszero\n      tag_48\n      jumpi\n        /* \"solidity/Function.sol\":1302:1305  _id */\n      dup3\n        /* \"solidity/Function.sol\":1287:1292  items */\n      0x02\n        /* \"solidity/Function.sol\":1293:1294  i */\n      dup3\n        /* \"solidity/Function.sol\":1287:1295  items[i] */\n      dup2\n      sload\n      dup2\n      lt\n      tag_50\n      jumpi\n      tag_51\n      tag_52\n      jump\t// in\n    tag_51:\n    tag_50:\n      swap1\n      0x00\n      mstore\n      keccak256(0x00, 0x20)\n      swap1\n      0x03\n      mul\n      add\n        /* \"solidity/Function.sol\":1287:1298  items[i].id */\n      0x01\n      add\n      sload\n        /* \"solidity/Function.sol\":1287:1305  items[i].id == _id */\n      sub\n        /* \"solidity/Function.sol\":1283:1355  if (items[i].id == _id) {... */\n      tag_54\n      jumpi\n        /* \"solidity/Function.sol\":1332:1337  items */\n      0x02\n        /* \"solidity/Function.sol\":1338:1339  i */\n      dup2\n        /* \"solidity/Function.sol\":1332:1340  items[i] */\n      dup2\n      sload\n      dup2\n      lt\n      tag_55\n      jumpi\n      tag_56\n      tag_52\n      jump\t// in\n    tag_56:\n    tag_55:\n      swap1\n      0x00\n      mstore\n      keccak256(0x00, 0x20)\n      swap1\n      0x03\n      mul\n      add\n        /* \"solidity/Function.sol\":1325:1340  return items[i] */\n      mload(0x40)\n      dup1\n      0x60\n      add\n      0x40\n      mstore\n      swap1\n      dup2\n      0x00\n      dup3\n      add\n      dup1\n      sload\n      tag_58\n      swap1\n      tag_59\n      jump\t// in\n    tag_58:\n      dup1\n      0x1f\n      add\n      0x20\n      dup1\n      swap2\n      div\n      mul\n      0x20\n      add\n      mload(0x40)\n      swap1\n      dup2\n      add\n      0x40\n      mstore\n      dup1\n      swap3\n      swap2\n      swap1\n      dup2\n      dup2\n      mstore\n      0x20\n      add\n      dup3\n      dup1\n      sload\n      tag_60\n      swap1\n      tag_59\n      jump\t// in\n    tag_60:\n      dup1\n      iszero\n      tag_61\n      jumpi\n      dup1\n      0x1f\n      lt\n      tag_62\n      jumpi\n      0x0100\n      dup1\n      dup4\n      sload\n      div\n      mul\n      dup4\n      mstore\n      swap2\n      0x20\n      add\n      swap2\n      jump(tag_61)\n    tag_62:\n      dup3\n      add\n      swap2\n      swap1\n      0x00\n      mstore\n      keccak256(0x00, 0x20)\n      swap1\n    tag_63:\n      dup2\n      sload\n      dup2\n      mstore\n      swap1\n      0x01\n      add\n      swap1\n      0x20\n      add\n      dup1\n      dup4\n      gt\n      tag_63\n      jumpi\n      dup3\n      swap1\n      sub\n      0x1f\n      and\n      dup3\n      add\n      swap2\n    tag_61:\n      pop\n      pop\n      pop\n      pop\n      pop\n      dup2\n      mstore\n      0x20\n      add\n      0x01\n      dup3\n      add\n      sload\n      dup2\n      mstore\n      0x20\n      add\n      0x02\n      dup3\n      add\n      0x00\n      swap1\n      sload\n      swap1\n      0x0100\n      exp\n      swap1\n      div\n      0xffffffffffffffffffffffffffffffffffffffff\n      and\n      0xffffffffffffffffffffffffffffffffffffffff\n      and\n      0xffffffffffffffffffffffffffffffffffffffff\n      and\n      dup2\n      mstore\n      pop\n      pop\n      swap2\n      pop\n      pop\n      jump(tag_46)\n        /* \"solidity/Function.sol\":1283:1355  if (items[i].id == _id) {... */\n    tag_54:\n        /* \"solidity/Function.sol\":1264:1267  i++ */\n      dup1\n      dup1\n      0x01\n      add\n      swap2\n      pop\n      pop\n        /* \"solidity/Function.sol\":1226:1365  for (uint256 i = 0; i < items.length; i++) {... */\n      jump(tag_47)\n    tag_48:\n      pop\n        /* \"solidity/Function.sol\":1150:1371  function getInfo(uint256 _id) external view returns (Info memory) {... */\n    tag_46:\n      swap2\n      swap1\n      pop\n      jump\t// out\n        /* \"solidity/Function.sol\":338:423  function getValue() external view returns (string memory) {... */\n    tag_18:\n        /* \"solidity/Function.sol\":381:394  string memory */\n      0x60\n        /* \"solidity/Function.sol\":413:416  str */\n      0x00\n        /* \"solidity/Function.sol\":406:416  return str */\n      dup1\n      sload\n      tag_65\n      swap1\n      tag_59\n      jump\t// in\n    tag_65:\n      dup1\n      0x1f\n      add\n      0x20\n      dup1\n      swap2\n      div\n      mul\n      0x20\n      add\n      mload(0x40)\n      swap1\n      dup2\n      add\n      0x40\n      mstore\n      dup1\n      swap3\n      swap2\n      swap1\n      dup2\n      dup2\n      mstore\n      0x20\n      add\n      dup3\n      dup1\n      sload\n      tag_66\n      swap1\n      tag_59\n      jump\t// in\n    tag_66:\n      dup1\n      iszero\n      tag_67\n      jumpi\n      dup1\n      0x1f\n      lt\n      tag_68\n      jumpi\n      0x0100\n      dup1\n      dup4\n      sload\n      div\n      mul\n      dup4\n      mstore\n      swap2\n      0x20\n      add\n      swap2\n      jump(tag_67)\n    tag_68:\n      dup3\n      add\n      swap2\n      swap1\n      0x00\n      mstore\n      keccak256(0x00, 0x20)\n      swap1\n    tag_69:\n      dup2\n      sload\n      dup2\n      mstore\n      swap1\n      0x01\n      add\n      swap1\n      0x20\n      add\n      dup1\n      dup4\n      gt\n      tag_69\n      jumpi\n      dup3\n      swap1\n      sub\n      0x1f\n      and\n      dup3\n      add\n      swap2\n    tag_67:\n      pop\n      pop\n      pop\n      pop\n      pop\n      swap1\n      pop\n        /* \"solidity/Function.sol\":338:423  function getValue() external view returns (string memory) {... */\n      swap1\n      jump\t// out\n        /* \"solidity/Function.sol\":231:271  mapping (uint256 => Info) public infoMap */\n    tag_23:\n      mstore(0x20, 0x03)\n      dup1\n      0x00\n      mstore\n      keccak256(0x00, 0x40)\n      0x00\n      swap2\n      pop\n      swap1\n      pop\n      dup1\n      0x00\n      add\n      dup1\n      sload\n      tag_70\n      swap1\n      tag_59\n      jump\t// in\n    tag_70:\n      dup1\n      0x1f\n      add\n      0x20\n      dup1\n      swap2\n      div\n      mul\n      0x20\n      add\n      mload(0x40)\n      swap1\n      dup2\n      add\n      0x40\n      mstore\n      dup1\n      swap3\n      swap2\n      swap1\n      dup2\n      dup2\n      mstore\n      0x20\n      add\n      dup3\n      dup1\n      sload\n      tag_71\n      swap1\n      tag_59\n      jump\t// in\n    tag_71:\n      dup1\n      iszero\n      tag_72\n      jumpi\n      dup1\n      0x1f\n      lt\n      tag_73\n      jumpi\n      0x0100\n      dup1\n      dup4\n      sload\n      div\n      mul\n      dup4\n      mstore\n      swap2\n      0x20\n      add\n      swap2\n      jump(tag_72)\n    tag_73:\n      dup3\n      add\n      swap2\n      swap1\n      0x00\n      mstore\n      keccak256(0x00, 0x20)\n      swap1\n    tag_74:\n      dup2\n      sload\n      dup2\n      mstore\n      swap1\n      0x01\n      add\n      swap1\n      0x20\n      add\n      dup1\n      dup4\n      gt\n      tag_74\n      jumpi\n      dup3\n      swap1\n      sub\n      0x1f\n      and\n      dup3\n      add\n      swap2\n    tag_72:\n      pop\n      pop\n      pop\n      pop\n      pop\n      swap1\n      dup1\n      0x01\n      add\n      sload\n      swap1\n      dup1\n      0x02\n      add\n      0x00\n      swap1\n      sload\n      swap1\n      0x0100\n      exp\n      swap1\n      div\n      0xffffffffffffffffffffffffffffffffffffffff\n      and\n      swap1\n      pop\n      dup4\n      jump\t// out\n        /* \"solidity/Function.sol\":556:651  function getSum(int256 value) external pure returns (int256) {... */\n    tag_29:\n        /* \"solidity/Function.sol\":609:615  int256 */\n      0x00\n        /* \"solidity/Function.sol\":642:644  10 */\n      0x0a\n        /* \"solidity/Function.sol\":634:639  value */\n      dup3\n        /* \"solidity/Function.sol\":634:644  value + 10 */\n      tag_76\n      swap2\n      swap1\n      tag_77\n      jump\t// in\n    tag_76:\n        /* \"solidity/Function.sol\":627:644  return value + 10 */\n      swap1\n      pop\n        /* \"solidity/Function.sol\":556:651  function getSum(int256 value) external pure returns (int256) {... */\n      swap2\n      swap1\n      pop\n      jump\t// out\n        /* \"solidity/Function.sol\":429:497  function setValue(string memory _s) public {... */\n    tag_35:\n        /* \"solidity/Function.sol\":488:490  _s */\n      dup1\n        /* \"solidity/Function.sol\":482:485  str */\n      0x00\n        /* \"solidity/Function.sol\":482:490  str = _s */\n      swap1\n      dup2\n      tag_79\n      swap2\n      swap1\n      tag_80\n      jump\t// in\n    tag_79:\n      pop\n        /* \"solidity/Function.sol\":429:497  function setValue(string memory _s) public {... */\n      pop\n      jump\t// out\n        /* \"solidity/Function.sol\":1055:1144  function getAllInfo() external view returns (Info[] memory) {... */\n    tag_37:\n        /* \"solidity/Function.sol\":1100:1113  Info[] memory */\n      0x60\n        /* \"solidity/Function.sol\":1132:1137  items */\n      0x02\n        /* \"solidity/Function.sol\":1125:1137  return items */\n      dup1\n      sload\n      dup1\n      0x20\n      mul\n      0x20\n      add\n      mload(0x40)\n      swap1\n      dup2\n      add\n      0x40\n      mstore\n      dup1\n      swap3\n      swap2\n      swap1\n      dup2\n      dup2\n      mstore\n      0x20\n      add\n      0x00\n      swap1\n    tag_82:\n      dup3\n      dup3\n      lt\n      iszero\n      tag_83\n      jumpi\n      dup4\n      dup3\n      swap1\n      0x00\n      mstore\n      keccak256(0x00, 0x20)\n      swap1\n      0x03\n      mul\n      add\n      mload(0x40)\n      dup1\n      0x60\n      add\n      0x40\n      mstore\n      swap1\n      dup2\n      0x00\n      dup3\n      add\n      dup1\n      sload\n      tag_85\n      swap1\n      tag_59\n      jump\t// in\n    tag_85:\n      dup1\n      0x1f\n      add\n      0x20\n      dup1\n      swap2\n      div\n      mul\n      0x20\n      add\n      mload(0x40)\n      swap1\n      dup2\n      add\n      0x40\n      mstore\n      dup1\n      swap3\n      swap2\n      swap1\n      dup2\n      dup2\n      mstore\n      0x20\n      add\n      dup3\n      dup1\n      sload\n      tag_86\n      swap1\n      tag_59\n      jump\t// in\n    tag_86:\n      dup1\n      iszero\n      tag_87\n      jumpi\n      dup1\n      0x1f\n      lt\n      tag_88\n      jumpi\n      0x0100\n      dup1\n      dup4\n      sload\n      div\n      mul\n      dup4\n      mstore\n      swap2\n      0x20\n      add\n      swap2\n      jump(tag_87)\n    tag_88:\n      dup3\n      add\n      swap2\n      swap1\n      0x00\n      mstore\n      keccak256(0x00, 0x20)\n      swap1\n    tag_89:\n      dup2\n      sload\n      dup2\n      mstore\n      swap1\n      0x01\n      add\n      swap1\n      0x20\n      add\n      dup1\n      dup4\n      gt\n      tag_89\n      jumpi\n      dup3\n      swap1\n      sub\n      0x1f\n      and\n      dup3\n      add\n      swap2\n    tag_87:\n      pop\n      pop\n      pop\n      pop\n      pop\n      dup2\n      mstore\n      0x20\n      add\n      0x01\n      dup3\n      add\n      sload\n      dup2\n      mstore\n      0x20\n      add\n      0x02\n      dup3\n      add\n      0x00\n      swap1\n      sload\n      swap1\n      0x0100\n      exp\n      swap1\n      div\n      0xffffffffffffffffffffffffffffffffffffffff\n      and\n      0xffffffffffffffffffffffffffffffffffffffff\n      and\n      0xffffffffffffffffffffffffffffffffffffffff\n      and\n      dup2\n      mstore\n      pop\n      pop\n      dup2\n      mstore\n      0x20\n      add\n      swap1\n      0x01\n      add\n      swap1\n      jump(tag_82)\n    tag_83:\n      pop\n      pop\n      pop\n      pop\n      swap1\n      pop\n        /* \"solidity/Function.sol\":1055:1144  function getAllInfo() external view returns (Info[] memory) {... */\n      swap1\n      jump\t// out\n        /* \"solidity/Function.sol\":875:1049  function addInfo(string memory _s, uint256 _id) public {... */\n    tag_43:\n        /* \"solidity/Function.sol\":940:957  Info memory _info */\n      0x00\n        /* \"solidity/Function.sol\":960:985  Info(_s, _id, msg.sender) */\n      mload(0x40)\n      dup1\n      0x60\n      add\n      0x40\n      mstore\n      dup1\n        /* \"solidity/Function.sol\":965:967  _s */\n      dup5\n        /* \"solidity/Function.sol\":960:985  Info(_s, _id, msg.sender) */\n      dup2\n      mstore\n      0x20\n      add\n        /* \"solidity/Function.sol\":969:972  _id */\n      dup4\n        /* \"solidity/Function.sol\":960:985  Info(_s, _id, msg.sender) */\n      dup2\n      mstore\n      0x20\n      add\n        /* \"solidity/Function.sol\":974:984  msg.sender */\n      caller\n        /* \"solidity/Function.sol\":960:985  Info(_s, _id, msg.sender) */\n      0xffffffffffffffffffffffffffffffffffffffff\n      and\n      dup2\n      mstore\n      pop\n        /* \"solidity/Function.sol\":940:985  Info memory _info = Info(_s, _id, msg.sender) */\n      swap1\n      pop\n        /* \"solidity/Function.sol\":995:1000  items */\n      0x02\n        /* \"solidity/Function.sol\":1006:1011  _info */\n      dup2\n        /* \"solidity/Function.sol\":995:1012  items.push(_info) */\n      swap1\n      dup1\n      0x01\n      dup2\n      sload\n      add\n      dup1\n      dup3\n      sstore\n      dup1\n      swap2\n      pop\n      pop\n      0x01\n      swap1\n      sub\n      swap1\n      0x00\n      mstore\n      keccak256(0x00, 0x20)\n      swap1\n      0x03\n      mul\n      add\n      0x00\n      swap1\n      swap2\n      swap1\n      swap2\n      swap1\n      swap2\n      pop\n      0x00\n      dup3\n      add\n      mload\n      dup2\n      0x00\n      add\n      swap1\n      dup2\n      tag_92\n      swap2\n      swap1\n      tag_80\n      jump\t// in\n    tag_92:\n      pop\n      0x20\n      dup3\n      add\n      mload\n      dup2\n      0x01\n      add\n      sstore\n      0x40\n      dup3\n      add\n      mload\n      dup2\n      0x02\n      add\n      exp(0x0100, 0x00)\n      dup2\n      sload\n      dup2\n      0xffffffffffffffffffffffffffffffffffffffff\n      mul\n      not\n      and\n      swap1\n      dup4\n      0xffffffffffffffffffffffffffffffffffffffff\n      and\n      mul\n      or\n      swap1\n      sstore\n      pop\n      pop\n      pop\n        /* \"solidity/Function.sol\":1037:1042  _info */\n      dup1\n        /* \"solidity/Function.sol\":1022:1029  infoMap */\n      0x03\n        /* \"solidity/Function.sol\":1022:1034  infoMap[_id] */\n      0x00\n        /* \"solidity/Function.sol\":1030:1033  _id */\n      dup5\n        /* \"solidity/Function.sol\":1022:1034  infoMap[_id] */\n      dup2\n      mstore\n      0x20\n      add\n      swap1\n      dup2\n      mstore\n      0x20\n      add\n      0x00\n      keccak256\n        /* \"solidity/Function.sol\":1022:1042  infoMap[_id] = _info */\n      0x00\n      dup3\n      add\n      mload\n      dup2\n      0x00\n      add\n      swap1\n      dup2\n      tag_93\n      swap2\n      swap1\n      tag_80\n      jump\t// in\n    tag_93:\n      pop\n      0x20\n      dup3\n      add\n      mload\n      dup2\n      0x01\n      add\n      sstore\n      0x40\n      dup3\n      add\n      mload\n      dup2\n      0x02\n      add\n      exp(0x0100, 0x00)\n      dup2\n      sload\n      dup2\n      0xffffffffffffffffffffffffffffffffffffffff\n      mul\n      not\n      and\n      swap1\n      dup4\n      0xffffffffffffffffffffffffffffffffffffffff\n      and\n      mul\n      or\n      swap1\n      sstore\n      pop\n      swap1\n      pop\n      pop\n        /* \"solidity/Function.sol\":930:1049  {... */\n      pop\n        /* \"solidity/Function.sol\":875:1049  function addInfo(string memory _s, uint256 _id) public {... */\n      pop\n      pop\n      jump\t// out\n    tag_45:\n      mload(0x40)\n      dup1\n      0x60\n      add\n      0x40\n      mstore\n      dup1\n      0x60\n      dup2\n      mstore\n      0x20\n      add\n      0x00\n      dup2\n      mstore\n      0x20\n      add\n      and(0xffffffffffffffffffffffffffffffffffffffff, 0x00)\n      dup2\n      mstore\n      pop\n      swap1\n      jump\t// out\n        /* \"#utility.yul\":7:82   */\n    tag_94:\n        /* \"#utility.yul\":40:46   */\n      0x00\n        /* \"#utility.yul\":73:75   */\n      0x40\n        /* \"#utility.yul\":67:76   */\n      mload\n        /* \"#utility.yul\":57:76   */\n      swap1\n      pop\n        /* \"#utility.yul\":7:82   */\n      swap1\n      jump\t// out\n        /* \"#utility.yul\":88:205   */\n    tag_95:\n        /* \"#utility.yul\":197:198   */\n      0x00\n        /* \"#utility.yul\":194:195   */\n      0x00\n        /* \"#utility.yul\":187:199   */\n      revert\n        /* \"#utility.yul\":211:328   */\n    tag_96:\n        /* \"#utility.yul\":320:321   */\n      0x00\n        /* \"#utility.yul\":317:318   */\n      0x00\n        /* \"#utility.yul\":310:322   */\n      revert\n        /* \"#utility.yul\":334:411   */\n    tag_97:\n        /* \"#utility.yul\":371:378   */\n      0x00\n        /* \"#utility.yul\":400:405   */\n      dup2\n        /* \"#utility.yul\":389:405   */\n      swap1\n      pop\n        /* \"#utility.yul\":334:411   */\n      swap2\n      swap1\n      pop\n      jump\t// out\n        /* \"#utility.yul\":417:539   */\n    tag_98:\n        /* \"#utility.yul\":490:514   */\n      tag_157\n        /* \"#utility.yul\":508:513   */\n      dup2\n        /* \"#utility.yul\":490:514   */\n      tag_97\n      jump\t// in\n    tag_157:\n        /* \"#utility.yul\":483:488   */\n      dup2\n        /* \"#utility.yul\":480:515   */\n      eq\n        /* \"#utility.yul\":470:533   */\n      tag_158\n      jumpi\n        /* \"#utility.yul\":529:530   */\n      0x00\n        /* \"#utility.yul\":526:527   */\n      0x00\n        /* \"#utility.yul\":519:531   */\n      revert\n        /* \"#utility.yul\":470:533   */\n    tag_158:\n        /* \"#utility.yul\":417:539   */\n      pop\n      jump\t// out\n        /* \"#utility.yul\":545:684   */\n    tag_99:\n        /* \"#utility.yul\":591:596   */\n      0x00\n        /* \"#utility.yul\":629:635   */\n      dup2\n        /* \"#utility.yul\":616:636   */\n      calldataload\n        /* \"#utility.yul\":607:636   */\n      swap1\n      pop\n        /* \"#utility.yul\":645:678   */\n      tag_160\n        /* \"#utility.yul\":672:677   */\n      dup2\n        /* \"#utility.yul\":645:678   */\n      tag_98\n      jump\t// in\n    tag_160:\n        /* \"#utility.yul\":545:684   */\n      swap3\n      swap2\n      pop\n      pop\n      jump\t// out\n        /* \"#utility.yul\":690:1019   */\n    tag_13:\n        /* \"#utility.yul\":749:755   */\n      0x00\n        /* \"#utility.yul\":798:800   */\n      0x20\n        /* \"#utility.yul\":786:795   */\n      dup3\n        /* \"#utility.yul\":777:784   */\n      dup5\n        /* \"#utility.yul\":773:796   */\n      sub\n        /* \"#utility.yul\":769:801   */\n      slt\n        /* \"#utility.yul\":766:885   */\n      iszero\n      tag_162\n      jumpi\n        /* \"#utility.yul\":804:883   */\n      tag_163\n      tag_95\n      jump\t// in\n    tag_163:\n        /* \"#utility.yul\":766:885   */\n    tag_162:\n        /* \"#utility.yul\":924:925   */\n      0x00\n        /* \"#utility.yul\":949:1002   */\n      tag_164\n        /* \"#utility.yul\":994:1001   */\n      dup5\n        /* \"#utility.yul\":985:991   */\n      dup3\n        /* \"#utility.yul\":974:983   */\n      dup6\n        /* \"#utility.yul\":970:992   */\n      add\n        /* \"#utility.yul\":949:1002   */\n      tag_99\n      jump\t// in\n    tag_164:\n        /* \"#utility.yul\":939:1002   */\n      swap2\n      pop\n        /* \"#utility.yul\":895:1012   */\n      pop\n        /* \"#utility.yul\":690:1019   */\n      swap3\n      swap2\n      pop\n      pop\n      jump\t// out\n        /* \"#utility.yul\":1025:1124   */\n    tag_100:\n        /* \"#utility.yul\":1077:1083   */\n      0x00\n        /* \"#utility.yul\":1111:1116   */\n      dup2\n        /* \"#utility.yul\":1105:1117   */\n      mload\n        /* \"#utility.yul\":1095:1117   */\n      swap1\n      pop\n        /* \"#utility.yul\":1025:1124   */\n      swap2\n      swap1\n      pop\n      jump\t// out\n        /* \"#utility.yul\":1130:1289   */\n    tag_101:\n        /* \"#utility.yul\":1204:1215   */\n      0x00\n        /* \"#utility.yul\":1238:1244   */\n      dup3\n        /* \"#utility.yul\":1233:1236   */\n      dup3\n        /* \"#utility.yul\":1226:1245   */\n      mstore\n        /* \"#utility.yul\":1278:1282   */\n      0x20\n        /* \"#utility.yul\":1273:1276   */\n      dup3\n        /* \"#utility.yul\":1269:1283   */\n      add\n        /* \"#utility.yul\":1254:1283   */\n      swap1\n      pop\n        /* \"#utility.yul\":1130:1289   */\n      swap3\n      swap2\n      pop\n      pop\n      jump\t// out\n        /* \"#utility.yul\":1295:1543   */\n    tag_102:\n        /* \"#utility.yul\":1377:1378   */\n      0x00\n        /* \"#utility.yul\":1387:1500   */\n    tag_168:\n        /* \"#utility.yul\":1401:1407   */\n      dup4\n        /* \"#utility.yul\":1398:1399   */\n      dup2\n        /* \"#utility.yul\":1395:1408   */\n      lt\n        /* \"#utility.yul\":1387:1500   */\n      iszero\n      tag_170\n      jumpi\n        /* \"#utility.yul\":1486:1487   */\n      dup1\n        /* \"#utility.yul\":1481:1484   */\n      dup3\n        /* \"#utility.yul\":1477:1488   */\n      add\n        /* \"#utility.yul\":1471:1489   */\n      mload\n        /* \"#utility.yul\":1467:1468   */\n      dup2\n        /* \"#utility.yul\":1462:1465   */\n      dup5\n        /* \"#utility.yul\":1458:1469   */\n      add\n        /* \"#utility.yul\":1451:1490   */\n      mstore\n        /* \"#utility.yul\":1423:1425   */\n      0x20\n        /* \"#utility.yul\":1420:1421   */\n      dup2\n        /* \"#utility.yul\":1416:1426   */\n      add\n        /* \"#utility.yul\":1411:1426   */\n      swap1\n      pop\n        /* \"#utility.yul\":1387:1500   */\n      jump(tag_168)\n    tag_170:\n        /* \"#utility.yul\":1534:1535   */\n      0x00\n        /* \"#utility.yul\":1525:1531   */\n      dup5\n        /* \"#utility.yul\":1520:1523   */\n      dup5\n        /* \"#utility.yul\":1516:1532   */\n      add\n        /* \"#utility.yul\":1509:1536   */\n      mstore\n        /* \"#utility.yul\":1357:1543   */\n      pop\n        /* \"#utility.yul\":1295:1543   */\n      pop\n      pop\n      pop\n      jump\t// out\n        /* \"#utility.yul\":1549:1651   */\n    tag_103:\n        /* \"#utility.yul\":1590:1596   */\n      0x00\n        /* \"#utility.yul\":1641:1643   */\n      0x1f\n        /* \"#utility.yul\":1637:1644   */\n      not\n        /* \"#utility.yul\":1632:1634   */\n      0x1f\n        /* \"#utility.yul\":1625:1630   */\n      dup4\n        /* \"#utility.yul\":1621:1635   */\n      add\n        /* \"#utility.yul\":1617:1645   */\n      and\n        /* \"#utility.yul\":1607:1645   */\n      swap1\n      pop\n        /* \"#utility.yul\":1549:1651   */\n      swap2\n      swap1\n      pop\n      jump\t// out\n        /* \"#utility.yul\":1657:2014   */\n    tag_104:\n        /* \"#utility.yul\":1735:1738   */\n      0x00\n        /* \"#utility.yul\":1763:1802   */\n      tag_173\n        /* \"#utility.yul\":1796:1801   */\n      dup3\n        /* \"#utility.yul\":1763:1802   */\n      tag_100\n      jump\t// in\n    tag_173:\n        /* \"#utility.yul\":1818:1879   */\n      tag_174\n        /* \"#utility.yul\":1872:1878   */\n      dup2\n        /* \"#utility.yul\":1867:1870   */\n      dup6\n        /* \"#utility.yul\":1818:1879   */\n      tag_101\n      jump\t// in\n    tag_174:\n        /* \"#utility.yul\":1811:1879   */\n      swap4\n      pop\n        /* \"#utility.yul\":1888:1953   */\n      tag_175\n        /* \"#utility.yul\":1946:1952   */\n      dup2\n        /* \"#utility.yul\":1941:1944   */\n      dup6\n        /* \"#utility.yul\":1934:1938   */\n      0x20\n        /* \"#utility.yul\":1927:1932   */\n      dup7\n        /* \"#utility.yul\":1923:1939   */\n      add\n        /* \"#utility.yul\":1888:1953   */\n      tag_102\n      jump\t// in\n    tag_175:\n        /* \"#utility.yul\":1978:2007   */\n      tag_176\n        /* \"#utility.yul\":2000:2006   */\n      dup2\n        /* \"#utility.yul\":1978:2007   */\n      tag_103\n      jump\t// in\n    tag_176:\n        /* \"#utility.yul\":1973:1976   */\n      dup5\n        /* \"#utility.yul\":1969:2008   */\n      add\n        /* \"#utility.yul\":1962:2008   */\n      swap2\n      pop\n        /* \"#utility.yul\":1739:2014   */\n      pop\n        /* \"#utility.yul\":1657:2014   */\n      swap3\n      swap2\n      pop\n      pop\n      jump\t// out\n        /* \"#utility.yul\":2020:2128   */\n    tag_105:\n        /* \"#utility.yul\":2097:2121   */\n      tag_178\n        /* \"#utility.yul\":2115:2120   */\n      dup2\n        /* \"#utility.yul\":2097:2121   */\n      tag_97\n      jump\t// in\n    tag_178:\n        /* \"#utility.yul\":2092:2095   */\n      dup3\n        /* \"#utility.yul\":2085:2122   */\n      mstore\n        /* \"#utility.yul\":2020:2128   */\n      pop\n      pop\n      jump\t// out\n        /* \"#utility.yul\":2134:2260   */\n    tag_106:\n        /* \"#utility.yul\":2171:2178   */\n      0x00\n        /* \"#utility.yul\":2211:2253   */\n      0xffffffffffffffffffffffffffffffffffffffff\n        /* \"#utility.yul\":2204:2209   */\n      dup3\n        /* \"#utility.yul\":2200:2254   */\n      and\n        /* \"#utility.yul\":2189:2254   */\n      swap1\n      pop\n        /* \"#utility.yul\":2134:2260   */\n      swap2\n      swap1\n      pop\n      jump\t// out\n        /* \"#utility.yul\":2266:2362   */\n    tag_107:\n        /* \"#utility.yul\":2303:2310   */\n      0x00\n        /* \"#utility.yul\":2332:2356   */\n      tag_181\n        /* \"#utility.yul\":2350:2355   */\n      dup3\n        /* \"#utility.yul\":2332:2356   */\n      tag_106\n      jump\t// in\n    tag_181:\n        /* \"#utility.yul\":2321:2356   */\n      swap1\n      pop\n        /* \"#utility.yul\":2266:2362   */\n      swap2\n      swap1\n      pop\n      jump\t// out\n        /* \"#utility.yul\":2368:2476   */\n    tag_108:\n        /* \"#utility.yul\":2445:2469   */\n      tag_183\n        /* \"#utility.yul\":2463:2468   */\n      dup2\n        /* \"#utility.yul\":2445:2469   */\n      tag_107\n      jump\t// in\n    tag_183:\n        /* \"#utility.yul\":2440:2443   */\n      dup3\n        /* \"#utility.yul\":2433:2470   */\n      mstore\n        /* \"#utility.yul\":2368:2476   */\n      pop\n      pop\n      jump\t// out\n        /* \"#utility.yul\":2526:3297   */\n    tag_109:\n        /* \"#utility.yul\":2635:2638   */\n      0x00\n        /* \"#utility.yul\":2671:2675   */\n      0x60\n        /* \"#utility.yul\":2666:2669   */\n      dup4\n        /* \"#utility.yul\":2662:2676   */\n      add\n        /* \"#utility.yul\":2761:2765   */\n      0x00\n        /* \"#utility.yul\":2754:2759   */\n      dup4\n        /* \"#utility.yul\":2750:2766   */\n      add\n        /* \"#utility.yul\":2744:2767   */\n      mload\n        /* \"#utility.yul\":2814:2817   */\n      dup5\n        /* \"#utility.yul\":2808:2812   */\n      dup3\n        /* \"#utility.yul\":2804:2818   */\n      sub\n        /* \"#utility.yul\":2797:2801   */\n      0x00\n        /* \"#utility.yul\":2792:2795   */\n      dup7\n        /* \"#utility.yul\":2788:2802   */\n      add\n        /* \"#utility.yul\":2781:2819   */\n      mstore\n        /* \"#utility.yul\":2840:2913   */\n      tag_185\n        /* \"#utility.yul\":2908:2912   */\n      dup3\n        /* \"#utility.yul\":2894:2906   */\n      dup3\n        /* \"#utility.yul\":2840:2913   */\n      tag_104\n      jump\t// in\n    tag_185:\n        /* \"#utility.yul\":2832:2913   */\n      swap2\n      pop\n        /* \"#utility.yul\":2686:2924   */\n      pop\n        /* \"#utility.yul\":3004:3008   */\n      0x20\n        /* \"#utility.yul\":2997:3002   */\n      dup4\n        /* \"#utility.yul\":2993:3009   */\n      add\n        /* \"#utility.yul\":2987:3010   */\n      mload\n        /* \"#utility.yul\":3023:3086   */\n      tag_186\n        /* \"#utility.yul\":3080:3084   */\n      0x20\n        /* \"#utility.yul\":3075:3078   */\n      dup7\n        /* \"#utility.yul\":3071:3085   */\n      add\n        /* \"#utility.yul\":3057:3069   */\n      dup3\n        /* \"#utility.yul\":3023:3086   */\n      tag_105\n      jump\t// in\n    tag_186:\n        /* \"#utility.yul\":2934:3096   */\n      pop\n        /* \"#utility.yul\":3178:3182   */\n      0x40\n        /* \"#utility.yul\":3171:3176   */\n      dup4\n        /* \"#utility.yul\":3167:3183   */\n      add\n        /* \"#utility.yul\":3161:3184   */\n      mload\n        /* \"#utility.yul\":3197:3260   */\n      tag_187\n        /* \"#utility.yul\":3254:3258   */\n      0x40\n        /* \"#utility.yul\":3249:3252   */\n      dup7\n        /* \"#utility.yul\":3245:3259   */\n      add\n        /* \"#utility.yul\":3231:3243   */\n      dup3\n        /* \"#utility.yul\":3197:3260   */\n      tag_108\n      jump\t// in\n    tag_187:\n        /* \"#utility.yul\":3106:3270   */\n      pop\n        /* \"#utility.yul\":3287:3291   */\n      dup1\n        /* \"#utility.yul\":3280:3291   */\n      swap2\n      pop\n        /* \"#utility.yul\":2640:3297   */\n      pop\n        /* \"#utility.yul\":2526:3297   */\n      swap3\n      swap2\n      pop\n      pop\n      jump\t// out\n        /* \"#utility.yul\":3303:3656   */\n    tag_16:\n        /* \"#utility.yul\":3436:3440   */\n      0x00\n        /* \"#utility.yul\":3474:3476   */\n      0x20\n        /* \"#utility.yul\":3463:3472   */\n      dup3\n        /* \"#utility.yul\":3459:3477   */\n      add\n        /* \"#utility.yul\":3451:3477   */\n      swap1\n      pop\n        /* \"#utility.yul\":3523:3532   */\n      dup2\n        /* \"#utility.yul\":3517:3521   */\n      dup2\n        /* \"#utility.yul\":3513:3533   */\n      sub\n        /* \"#utility.yul\":3509:3510   */\n      0x00\n        /* \"#utility.yul\":3498:3507   */\n      dup4\n        /* \"#utility.yul\":3494:3511   */\n      add\n        /* \"#utility.yul\":3487:3534   */\n      mstore\n        /* \"#utility.yul\":3551:3649   */\n      tag_189\n        /* \"#utility.yul\":3644:3648   */\n      dup2\n        /* \"#utility.yul\":3635:3641   */\n      dup5\n        /* \"#utility.yul\":3551:3649   */\n      tag_109\n      jump\t// in\n    tag_189:\n        /* \"#utility.yul\":3543:3649   */\n      swap1\n      pop\n        /* \"#utility.yul\":3303:3656   */\n      swap3\n      swap2\n      pop\n      pop\n      jump\t// out\n        /* \"#utility.yul\":3662:3831   */\n    tag_110:\n        /* \"#utility.yul\":3746:3757   */\n      0x00\n        /* \"#utility.yul\":3780:3786   */\n      dup3\n        /* \"#utility.yul\":3775:3778   */\n      dup3\n        /* \"#utility.yul\":3768:3787   */\n      mstore\n        /* \"#utility.yul\":3820:3824   */\n      0x20\n        /* \"#utility.yul\":3815:3818   */\n      dup3\n        /* \"#utility.yul\":3811:3825   */\n      add\n        /* \"#utility.yul\":3796:3825   */\n      swap1\n      pop\n        /* \"#utility.yul\":3662:3831   */\n      swap3\n      swap2\n      pop\n      pop\n      jump\t// out\n        /* \"#utility.yul\":3837:4214   */\n    tag_111:\n        /* \"#utility.yul\":3925:3928   */\n      0x00\n        /* \"#utility.yul\":3953:3992   */\n      tag_192\n        /* \"#utility.yul\":3986:3991   */\n      dup3\n        /* \"#utility.yul\":3953:3992   */\n      tag_100\n      jump\t// in\n    tag_192:\n        /* \"#utility.yul\":4008:4079   */\n      tag_193\n        /* \"#utility.yul\":4072:4078   */\n      dup2\n        /* \"#utility.yul\":4067:4070   */\n      dup6\n        /* \"#utility.yul\":4008:4079   */\n      tag_110\n      jump\t// in\n    tag_193:\n        /* \"#utility.yul\":4001:4079   */\n      swap4\n      pop\n        /* \"#utility.yul\":4088:4153   */\n      tag_194\n        /* \"#utility.yul\":4146:4152   */\n      dup2\n        /* \"#utility.yul\":4141:4144   */\n      dup6\n        /* \"#utility.yul\":4134:4138   */\n      0x20\n        /* \"#utility.yul\":4127:4132   */\n      dup7\n        /* \"#utility.yul\":4123:4139   */\n      add\n        /* \"#utility.yul\":4088:4153   */\n      tag_102\n      jump\t// in\n    tag_194:\n        /* \"#utility.yul\":4178:4207   */\n      tag_195\n        /* \"#utility.yul\":4200:4206   */\n      dup2\n        /* \"#utility.yul\":4178:4207   */\n      tag_103\n      jump\t// in\n    tag_195:\n        /* \"#utility.yul\":4173:4176   */\n      dup5\n        /* \"#utility.yul\":4169:4208   */\n      add\n        /* \"#utility.yul\":4162:4208   */\n      swap2\n      pop\n        /* \"#utility.yul\":3929:4214   */\n      pop\n        /* \"#utility.yul\":3837:4214   */\n      swap3\n      swap2\n      pop\n      pop\n      jump\t// out\n        /* \"#utility.yul\":4220:4533   */\n    tag_20:\n        /* \"#utility.yul\":4333:4337   */\n      0x00\n        /* \"#utility.yul\":4371:4373   */\n      0x20\n        /* \"#utility.yul\":4360:4369   */\n      dup3\n        /* \"#utility.yul\":4356:4374   */\n      add\n        /* \"#utility.yul\":4348:4374   */\n      swap1\n      pop\n        /* \"#utility.yul\":4420:4429   */\n      dup2\n        /* \"#utility.yul\":4414:4418   */\n      dup2\n        /* \"#utility.yul\":4410:4430   */\n      sub\n        /* \"#utility.yul\":4406:4407   */\n      0x00\n        /* \"#utility.yul\":4395:4404   */\n      dup4\n        /* \"#utility.yul\":4391:4408   */\n      add\n        /* \"#utility.yul\":4384:4431   */\n      mstore\n        /* \"#utility.yul\":4448:4526   */\n      tag_197\n        /* \"#utility.yul\":4521:4525   */\n      dup2\n        /* \"#utility.yul\":4512:4518   */\n      dup5\n        /* \"#utility.yul\":4448:4526   */\n      tag_111\n      jump\t// in\n    tag_197:\n        /* \"#utility.yul\":4440:4526   */\n      swap1\n      pop\n        /* \"#utility.yul\":4220:4533   */\n      swap3\n      swap2\n      pop\n      pop\n      jump\t// out\n        /* \"#utility.yul\":4539:4657   */\n    tag_112:\n        /* \"#utility.yul\":4626:4650   */\n      tag_199\n        /* \"#utility.yul\":4644:4649   */\n      dup2\n        /* \"#utility.yul\":4626:4650   */\n      tag_97\n      jump\t// in\n    tag_199:\n        /* \"#utility.yul\":4621:4624   */\n      dup3\n        /* \"#utility.yul\":4614:4651   */\n      mstore\n        /* \"#utility.yul\":4539:4657   */\n      pop\n      pop\n      jump\t// out\n        /* \"#utility.yul\":4663:4781   */\n    tag_113:\n        /* \"#utility.yul\":4750:4774   */\n      tag_201\n        /* \"#utility.yul\":4768:4773   */\n      dup2\n        /* \"#utility.yul\":4750:4774   */\n      tag_107\n      jump\t// in\n    tag_201:\n        /* \"#utility.yul\":4745:4748   */\n      dup3\n        /* \"#utility.yul\":4738:4775   */\n      mstore\n        /* \"#utility.yul\":4663:4781   */\n      pop\n      pop\n      jump\t// out\n        /* \"#utility.yul\":4787:5320   */\n    tag_25:\n        /* \"#utility.yul\":4956:4960   */\n      0x00\n        /* \"#utility.yul\":4994:4996   */\n      0x60\n        /* \"#utility.yul\":4983:4992   */\n      dup3\n        /* \"#utility.yul\":4979:4997   */\n      add\n        /* \"#utility.yul\":4971:4997   */\n      swap1\n      pop\n        /* \"#utility.yul\":5043:5052   */\n      dup2\n        /* \"#utility.yul\":5037:5041   */\n      dup2\n        /* \"#utility.yul\":5033:5053   */\n      sub\n        /* \"#utility.yul\":5029:5030   */\n      0x00\n        /* \"#utility.yul\":5018:5027   */\n      dup4\n        /* \"#utility.yul\":5014:5031   */\n      add\n        /* \"#utility.yul\":5007:5054   */\n      mstore\n        /* \"#utility.yul\":5071:5149   */\n      tag_203\n        /* \"#utility.yul\":5144:5148   */\n      dup2\n        /* \"#utility.yul\":5135:5141   */\n      dup7\n        /* \"#utility.yul\":5071:5149   */\n      tag_111\n      jump\t// in\n    tag_203:\n        /* \"#utility.yul\":5063:5149   */\n      swap1\n      pop\n        /* \"#utility.yul\":5159:5231   */\n      tag_204\n        /* \"#utility.yul\":5227:5229   */\n      0x20\n        /* \"#utility.yul\":5216:5225   */\n      dup4\n        /* \"#utility.yul\":5212:5230   */\n      add\n        /* \"#utility.yul\":5203:5209   */\n      dup6\n        /* \"#utility.yul\":5159:5231   */\n      tag_112\n      jump\t// in\n    tag_204:\n        /* \"#utility.yul\":5241:5313   */\n      tag_205\n        /* \"#utility.yul\":5309:5311   */\n      0x40\n        /* \"#utility.yul\":5298:5307   */\n      dup4\n        /* \"#utility.yul\":5294:5312   */\n      add\n        /* \"#utility.yul\":5285:5291   */\n      dup5\n        /* \"#utility.yul\":5241:5313   */\n      tag_113\n      jump\t// in\n    tag_205:\n        /* \"#utility.yul\":4787:5320   */\n      swap5\n      swap4\n      pop\n      pop\n      pop\n      pop\n      jump\t// out\n        /* \"#utility.yul\":5326:5402   */\n    tag_114:\n        /* \"#utility.yul\":5362:5369   */\n      0x00\n        /* \"#utility.yul\":5391:5396   */\n      dup2\n        /* \"#utility.yul\":5380:5396   */\n      swap1\n      pop\n        /* \"#utility.yul\":5326:5402   */\n      swap2\n      swap1\n      pop\n      jump\t// out\n        /* \"#utility.yul\":5408:5528   */\n    tag_115:\n        /* \"#utility.yul\":5480:5503   */\n      tag_208\n        /* \"#utility.yul\":5497:5502   */\n      dup2\n        /* \"#utility.yul\":5480:5503   */\n      tag_114\n      jump\t// in\n    tag_208:\n        /* \"#utility.yul\":5473:5478   */\n      dup2\n        /* \"#utility.yul\":5470:5504   */\n      eq\n        /* \"#utility.yul\":5460:5522   */\n      tag_209\n      jumpi\n        /* \"#utility.yul\":5518:5519   */\n      0x00\n        /* \"#utility.yul\":5515:5516   */\n      0x00\n        /* \"#utility.yul\":5508:5520   */\n      revert\n        /* \"#utility.yul\":5460:5522   */\n    tag_209:\n        /* \"#utility.yul\":5408:5528   */\n      pop\n      jump\t// out\n        /* \"#utility.yul\":5534:5671   */\n    tag_116:\n        /* \"#utility.yul\":5579:5584   */\n      0x00\n        /* \"#utility.yul\":5617:5623   */\n      dup2\n        /* \"#utility.yul\":5604:5624   */\n      calldataload\n        /* \"#utility.yul\":5595:5624   */\n      swap1\n      pop\n        /* \"#utility.yul\":5633:5665   */\n      tag_211\n        /* \"#utility.yul\":5659:5664   */\n      dup2\n        /* \"#utility.yul\":5633:5665   */\n      tag_115\n      jump\t// in\n    tag_211:\n        /* \"#utility.yul\":5534:5671   */\n      swap3\n      swap2\n      pop\n      pop\n      jump\t// out\n        /* \"#utility.yul\":5677:6004   */\n    tag_28:\n        /* \"#utility.yul\":5735:5741   */\n      0x00\n        /* \"#utility.yul\":5784:5786   */\n      0x20\n        /* \"#utility.yul\":5772:5781   */\n      dup3\n        /* \"#utility.yul\":5763:5770   */\n      dup5\n        /* \"#utility.yul\":5759:5782   */\n      sub\n        /* \"#utility.yul\":5755:5787   */\n      slt\n        /* \"#utility.yul\":5752:5871   */\n      iszero\n      tag_213\n      jumpi\n        /* \"#utility.yul\":5790:5869   */\n      tag_214\n      tag_95\n      jump\t// in\n    tag_214:\n        /* \"#utility.yul\":5752:5871   */\n    tag_213:\n        /* \"#utility.yul\":5910:5911   */\n      0x00\n        /* \"#utility.yul\":5935:5987   */\n      tag_215\n        /* \"#utility.yul\":5979:5986   */\n      dup5\n        /* \"#utility.yul\":5970:5976   */\n      dup3\n        /* \"#utility.yul\":5959:5968   */\n      dup6\n        /* \"#utility.yul\":5955:5977   */\n      add\n        /* \"#utility.yul\":5935:5987   */\n      tag_116\n      jump\t// in\n    tag_215:\n        /* \"#utility.yul\":5925:5987   */\n      swap2\n      pop\n        /* \"#utility.yul\":5881:5997   */\n      pop\n        /* \"#utility.yul\":5677:6004   */\n      swap3\n      swap2\n      pop\n      pop\n      jump\t// out\n        /* \"#utility.yul\":6010:6125   */\n    tag_117:\n        /* \"#utility.yul\":6095:6118   */\n      tag_217\n        /* \"#utility.yul\":6112:6117   */\n      dup2\n        /* \"#utility.yul\":6095:6118   */\n      tag_114\n      jump\t// in\n    tag_217:\n        /* \"#utility.yul\":6090:6093   */\n      dup3\n        /* \"#utility.yul\":6083:6119   */\n      mstore\n        /* \"#utility.yul\":6010:6125   */\n      pop\n      pop\n      jump\t// out\n        /* \"#utility.yul\":6131:6349   */\n    tag_31:\n        /* \"#utility.yul\":6222:6226   */\n      0x00\n        /* \"#utility.yul\":6260:6262   */\n      0x20\n        /* \"#utility.yul\":6249:6258   */\n      dup3\n        /* \"#utility.yul\":6245:6263   */\n      add\n        /* \"#utility.yul\":6237:6263   */\n      swap1\n      pop\n        /* \"#utility.yul\":6273:6342   */\n      tag_219\n        /* \"#utility.yul\":6339:6340   */\n      0x00\n        /* \"#utility.yul\":6328:6337   */\n      dup4\n        /* \"#utility.yul\":6324:6341   */\n      add\n        /* \"#utility.yul\":6315:6321   */\n      dup5\n        /* \"#utility.yul\":6273:6342   */\n      tag_117\n      jump\t// in\n    tag_219:\n        /* \"#utility.yul\":6131:6349   */\n      swap3\n      swap2\n      pop\n      pop\n      jump\t// out\n        /* \"#utility.yul\":6355:6472   */\n    tag_118:\n        /* \"#utility.yul\":6464:6465   */\n      0x00\n        /* \"#utility.yul\":6461:6462   */\n      0x00\n        /* \"#utility.yul\":6454:6466   */\n      revert\n        /* \"#utility.yul\":6478:6595   */\n    tag_119:\n        /* \"#utility.yul\":6587:6588   */\n      0x00\n        /* \"#utility.yul\":6584:6585   */\n      0x00\n        /* \"#utility.yul\":6577:6589   */\n      revert\n        /* \"#utility.yul\":6601:6781   */\n    tag_120:\n        /* \"#utility.yul\":6649:6726   */\n      0x4e487b7100000000000000000000000000000000000000000000000000000000\n        /* \"#utility.yul\":6646:6647   */\n      0x00\n        /* \"#utility.yul\":6639:6727   */\n      mstore\n        /* \"#utility.yul\":6746:6750   */\n      0x41\n        /* \"#utility.yul\":6743:6744   */\n      0x04\n        /* \"#utility.yul\":6736:6751   */\n      mstore\n        /* \"#utility.yul\":6770:6774   */\n      0x24\n        /* \"#utility.yul\":6767:6768   */\n      0x00\n        /* \"#utility.yul\":6760:6775   */\n      revert\n        /* \"#utility.yul\":6787:7068   */\n    tag_121:\n        /* \"#utility.yul\":6870:6897   */\n      tag_224\n        /* \"#utility.yul\":6892:6896   */\n      dup3\n        /* \"#utility.yul\":6870:6897   */\n      tag_103\n      jump\t// in\n    tag_224:\n        /* \"#utility.yul\":6862:6868   */\n      dup2\n        /* \"#utility.yul\":6858:6898   */\n      add\n        /* \"#utility.yul\":7000:7006   */\n      dup2\n        /* \"#utility.yul\":6988:6998   */\n      dup2\n        /* \"#utility.yul\":6985:7007   */\n      lt\n        /* \"#utility.yul\":6964:6982   */\n      0xffffffffffffffff\n        /* \"#utility.yul\":6952:6962   */\n      dup3\n        /* \"#utility.yul\":6949:6983   */\n      gt\n        /* \"#utility.yul\":6946:7008   */\n      or\n        /* \"#utility.yul\":6943:7031   */\n      iszero\n      tag_225\n      jumpi\n        /* \"#utility.yul\":7011:7029   */\n      tag_226\n      tag_120\n      jump\t// in\n    tag_226:\n        /* \"#utility.yul\":6943:7031   */\n    tag_225:\n        /* \"#utility.yul\":7051:7061   */\n      dup1\n        /* \"#utility.yul\":7047:7049   */\n      0x40\n        /* \"#utility.yul\":7040:7062   */\n      mstore\n        /* \"#utility.yul\":6830:7068   */\n      pop\n        /* \"#utility.yul\":6787:7068   */\n      pop\n      pop\n      jump\t// out\n        /* \"#utility.yul\":7074:7203   */\n    tag_122:\n        /* \"#utility.yul\":7108:7114   */\n      0x00\n        /* \"#utility.yul\":7135:7155   */\n      tag_228\n      tag_94\n      jump\t// in\n    tag_228:\n        /* \"#utility.yul\":7125:7155   */\n      swap1\n      pop\n        /* \"#utility.yul\":7164:7197   */\n      tag_229\n        /* \"#utility.yul\":7192:7196   */\n      dup3\n        /* \"#utility.yul\":7184:7190   */\n      dup3\n        /* \"#utility.yul\":7164:7197   */\n      tag_121\n      jump\t// in\n    tag_229:\n        /* \"#utility.yul\":7074:7203   */\n      swap2\n      swap1\n      pop\n      jump\t// out\n        /* \"#utility.yul\":7209:7517   */\n    tag_123:\n        /* \"#utility.yul\":7271:7275   */\n      0x00\n        /* \"#utility.yul\":7361:7379   */\n      0xffffffffffffffff\n        /* \"#utility.yul\":7353:7359   */\n      dup3\n        /* \"#utility.yul\":7350:7380   */\n      gt\n        /* \"#utility.yul\":7347:7403   */\n      iszero\n      tag_231\n      jumpi\n        /* \"#utility.yul\":7383:7401   */\n      tag_232\n      tag_120\n      jump\t// in\n    tag_232:\n        /* \"#utility.yul\":7347:7403   */\n    tag_231:\n        /* \"#utility.yul\":7421:7450   */\n      tag_233\n        /* \"#utility.yul\":7443:7449   */\n      dup3\n        /* \"#utility.yul\":7421:7450   */\n      tag_103\n      jump\t// in\n    tag_233:\n        /* \"#utility.yul\":7413:7450   */\n      swap1\n      pop\n        /* \"#utility.yul\":7505:7509   */\n      0x20\n        /* \"#utility.yul\":7499:7503   */\n      dup2\n        /* \"#utility.yul\":7495:7510   */\n      add\n        /* \"#utility.yul\":7487:7510   */\n      swap1\n      pop\n        /* \"#utility.yul\":7209:7517   */\n      swap2\n      swap1\n      pop\n      jump\t// out\n        /* \"#utility.yul\":7523:7671   */\n    tag_124:\n        /* \"#utility.yul\":7621:7627   */\n      dup3\n        /* \"#utility.yul\":7616:7619   */\n      dup2\n        /* \"#utility.yul\":7611:7614   */\n      dup4\n        /* \"#utility.yul\":7598:7628   */\n      calldatacopy\n        /* \"#utility.yul\":7662:7663   */\n      0x00\n        /* \"#utility.yul\":7653:7659   */\n      dup4\n        /* \"#utility.yul\":7648:7651   */\n      dup4\n        /* \"#utility.yul\":7644:7660   */\n      add\n        /* \"#utility.yul\":7637:7664   */\n      mstore\n        /* \"#utility.yul\":7523:7671   */\n      pop\n      pop\n      pop\n      jump\t// out\n        /* \"#utility.yul\":7677:8102   */\n    tag_125:\n        /* \"#utility.yul\":7755:7760   */\n      0x00\n        /* \"#utility.yul\":7780:7846   */\n      tag_236\n        /* \"#utility.yul\":7796:7845   */\n      tag_237\n        /* \"#utility.yul\":7838:7844   */\n      dup5\n        /* \"#utility.yul\":7796:7845   */\n      tag_123\n      jump\t// in\n    tag_237:\n        /* \"#utility.yul\":7780:7846   */\n      tag_122\n      jump\t// in\n    tag_236:\n        /* \"#utility.yul\":7771:7846   */\n      swap1\n      pop\n        /* \"#utility.yul\":7869:7875   */\n      dup3\n        /* \"#utility.yul\":7862:7867   */\n      dup2\n        /* \"#utility.yul\":7855:7876   */\n      mstore\n        /* \"#utility.yul\":7907:7911   */\n      0x20\n        /* \"#utility.yul\":7900:7905   */\n      dup2\n        /* \"#utility.yul\":7896:7912   */\n      add\n        /* \"#utility.yul\":7945:7948   */\n      dup5\n        /* \"#utility.yul\":7936:7942   */\n      dup5\n        /* \"#utility.yul\":7931:7934   */\n      dup5\n        /* \"#utility.yul\":7927:7943   */\n      add\n        /* \"#utility.yul\":7924:7949   */\n      gt\n        /* \"#utility.yul\":7921:8033   */\n      iszero\n      tag_238\n      jumpi\n        /* \"#utility.yul\":7952:8031   */\n      tag_239\n      tag_119\n      jump\t// in\n    tag_239:\n        /* \"#utility.yul\":7921:8033   */\n    tag_238:\n        /* \"#utility.yul\":8042:8096   */\n      tag_240\n        /* \"#utility.yul\":8089:8095   */\n      dup5\n        /* \"#utility.yul\":8084:8087   */\n      dup3\n        /* \"#utility.yul\":8079:8082   */\n      dup6\n        /* \"#utility.yul\":8042:8096   */\n      tag_124\n      jump\t// in\n    tag_240:\n        /* \"#utility.yul\":7761:8102   */\n      pop\n        /* \"#utility.yul\":7677:8102   */\n      swap4\n      swap3\n      pop\n      pop\n      pop\n      jump\t// out\n        /* \"#utility.yul\":8122:8462   */\n    tag_126:\n        /* \"#utility.yul\":8178:8183   */\n      0x00\n        /* \"#utility.yul\":8227:8230   */\n      dup3\n        /* \"#utility.yul\":8220:8224   */\n      0x1f\n        /* \"#utility.yul\":8212:8218   */\n      dup4\n        /* \"#utility.yul\":8208:8225   */\n      add\n        /* \"#utility.yul\":8204:8231   */\n      slt\n        /* \"#utility.yul\":8194:8316   */\n      tag_242\n      jumpi\n        /* \"#utility.yul\":8235:8314   */\n      tag_243\n      tag_118\n      jump\t// in\n    tag_243:\n        /* \"#utility.yul\":8194:8316   */\n    tag_242:\n        /* \"#utility.yul\":8352:8358   */\n      dup2\n        /* \"#utility.yul\":8339:8359   */\n      calldataload\n        /* \"#utility.yul\":8377:8456   */\n      tag_244\n        /* \"#utility.yul\":8452:8455   */\n      dup5\n        /* \"#utility.yul\":8444:8450   */\n      dup3\n        /* \"#utility.yul\":8437:8441   */\n      0x20\n        /* \"#utility.yul\":8429:8435   */\n      dup7\n        /* \"#utility.yul\":8425:8442   */\n      add\n        /* \"#utility.yul\":8377:8456   */\n      tag_125\n      jump\t// in\n    tag_244:\n        /* \"#utility.yul\":8368:8456   */\n      swap2\n      pop\n        /* \"#utility.yul\":8184:8462   */\n      pop\n        /* \"#utility.yul\":8122:8462   */\n      swap3\n      swap2\n      pop\n      pop\n      jump\t// out\n        /* \"#utility.yul\":8468:8977   */\n    tag_34:\n        /* \"#utility.yul\":8537:8543   */\n      0x00\n        /* \"#utility.yul\":8586:8588   */\n      0x20\n        /* \"#utility.yul\":8574:8583   */\n      dup3\n        /* \"#utility.yul\":8565:8572   */\n      dup5\n        /* \"#utility.yul\":8561:8584   */\n      sub\n        /* \"#utility.yul\":8557:8589   */\n      slt\n        /* \"#utility.yul\":8554:8673   */\n      iszero\n      tag_246\n      jumpi\n        /* \"#utility.yul\":8592:8671   */\n      tag_247\n      tag_95\n      jump\t// in\n    tag_247:\n        /* \"#utility.yul\":8554:8673   */\n    tag_246:\n        /* \"#utility.yul\":8740:8741   */\n      0x00\n        /* \"#utility.yul\":8729:8738   */\n      dup3\n        /* \"#utility.yul\":8725:8742   */\n      add\n        /* \"#utility.yul\":8712:8743   */\n      calldataload\n        /* \"#utility.yul\":8770:8788   */\n      0xffffffffffffffff\n        /* \"#utility.yul\":8762:8768   */\n      dup2\n        /* \"#utility.yul\":8759:8789   */\n      gt\n        /* \"#utility.yul\":8756:8873   */\n      iszero\n      tag_248\n      jumpi\n        /* \"#utility.yul\":8792:8871   */\n      tag_249\n      tag_96\n      jump\t// in\n    tag_249:\n        /* \"#utility.yul\":8756:8873   */\n    tag_248:\n        /* \"#utility.yul\":8897:8960   */\n      tag_250\n        /* \"#utility.yul\":8952:8959   */\n      dup5\n        /* \"#utility.yul\":8943:8949   */\n      dup3\n        /* \"#utility.yul\":8932:8941   */\n      dup6\n        /* \"#utility.yul\":8928:8950   */\n      add\n        /* \"#utility.yul\":8897:8960   */\n      tag_126\n      jump\t// in\n    tag_250:\n        /* \"#utility.yul\":8887:8960   */\n      swap2\n      pop\n        /* \"#utility.yul\":8683:8970   */\n      pop\n        /* \"#utility.yul\":8468:8977   */\n      swap3\n      swap2\n      pop\n      pop\n      jump\t// out\n        /* \"#utility.yul\":8983:9117   */\n    tag_127:\n        /* \"#utility.yul\":9070:9076   */\n      0x00\n        /* \"#utility.yul\":9104:9109   */\n      dup2\n        /* \"#utility.yul\":9098:9110   */\n      mload\n        /* \"#utility.yul\":9088:9110   */\n      swap1\n      pop\n        /* \"#utility.yul\":8983:9117   */\n      swap2\n      swap1\n      pop\n      jump\t// out\n        /* \"#utility.yul\":9123:9327   */\n    tag_128:\n        /* \"#utility.yul\":9242:9253   */\n      0x00\n        /* \"#utility.yul\":9276:9282   */\n      dup3\n        /* \"#utility.yul\":9271:9274   */\n      dup3\n        /* \"#utility.yul\":9264:9283   */\n      mstore\n        /* \"#utility.yul\":9316:9320   */\n      0x20\n        /* \"#utility.yul\":9311:9314   */\n      dup3\n        /* \"#utility.yul\":9307:9321   */\n      add\n        /* \"#utility.yul\":9292:9321   */\n      swap1\n      pop\n        /* \"#utility.yul\":9123:9327   */\n      swap3\n      swap2\n      pop\n      pop\n      jump\t// out\n        /* \"#utility.yul\":9333:9485   */\n    tag_129:\n        /* \"#utility.yul\":9420:9424   */\n      0x00\n        /* \"#utility.yul\":9443:9446   */\n      dup2\n        /* \"#utility.yul\":9435:9446   */\n      swap1\n      pop\n        /* \"#utility.yul\":9473:9477   */\n      0x20\n        /* \"#utility.yul\":9468:9471   */\n      dup3\n        /* \"#utility.yul\":9464:9478   */\n      add\n        /* \"#utility.yul\":9456:9478   */\n      swap1\n      pop\n        /* \"#utility.yul\":9333:9485   */\n      swap2\n      swap1\n      pop\n      jump\t// out\n        /* \"#utility.yul\":9535:10296   */\n    tag_130:\n        /* \"#utility.yul\":9634:9637   */\n      0x00\n        /* \"#utility.yul\":9670:9674   */\n      0x60\n        /* \"#utility.yul\":9665:9668   */\n      dup4\n        /* \"#utility.yul\":9661:9675   */\n      add\n        /* \"#utility.yul\":9760:9764   */\n      0x00\n        /* \"#utility.yul\":9753:9758   */\n      dup4\n        /* \"#utility.yul\":9749:9765   */\n      add\n        /* \"#utility.yul\":9743:9766   */\n      mload\n        /* \"#utility.yul\":9813:9816   */\n      dup5\n        /* \"#utility.yul\":9807:9811   */\n      dup3\n        /* \"#utility.yul\":9803:9817   */\n      sub\n        /* \"#utility.yul\":9796:9800   */\n      0x00\n        /* \"#utility.yul\":9791:9794   */\n      dup7\n        /* \"#utility.yul\":9787:9801   */\n      add\n        /* \"#utility.yul\":9780:9818   */\n      mstore\n        /* \"#utility.yul\":9839:9912   */\n      tag_255\n        /* \"#utility.yul\":9907:9911   */\n      dup3\n        /* \"#utility.yul\":9893:9905   */\n      dup3\n        /* \"#utility.yul\":9839:9912   */\n      tag_104\n      jump\t// in\n    tag_255:\n        /* \"#utility.yul\":9831:9912   */\n      swap2\n      pop\n        /* \"#utility.yul\":9685:9923   */\n      pop\n        /* \"#utility.yul\":10003:10007   */\n      0x20\n        /* \"#utility.yul\":9996:10001   */\n      dup4\n        /* \"#utility.yul\":9992:10008   */\n      add\n        /* \"#utility.yul\":9986:10009   */\n      mload\n        /* \"#utility.yul\":10022:10085   */\n      tag_256\n        /* \"#utility.yul\":10079:10083   */\n      0x20\n        /* \"#utility.yul\":10074:10077   */\n      dup7\n        /* \"#utility.yul\":10070:10084   */\n      add\n        /* \"#utility.yul\":10056:10068   */\n      dup3\n        /* \"#utility.yul\":10022:10085   */\n      tag_105\n      jump\t// in\n    tag_256:\n        /* \"#utility.yul\":9933:10095   */\n      pop\n        /* \"#utility.yul\":10177:10181   */\n      0x40\n        /* \"#utility.yul\":10170:10175   */\n      dup4\n        /* \"#utility.yul\":10166:10182   */\n      add\n        /* \"#utility.yul\":10160:10183   */\n      mload\n        /* \"#utility.yul\":10196:10259   */\n      tag_257\n        /* \"#utility.yul\":10253:10257   */\n      0x40\n        /* \"#utility.yul\":10248:10251   */\n      dup7\n        /* \"#utility.yul\":10244:10258   */\n      add\n        /* \"#utility.yul\":10230:10242   */\n      dup3\n        /* \"#utility.yul\":10196:10259   */\n      tag_108\n      jump\t// in\n    tag_257:\n        /* \"#utility.yul\":10105:10269   */\n      pop\n        /* \"#utility.yul\":10286:10290   */\n      dup1\n        /* \"#utility.yul\":10279:10290   */\n      swap2\n      pop\n        /* \"#utility.yul\":9639:10296   */\n      pop\n        /* \"#utility.yul\":9535:10296   */\n      swap3\n      swap2\n      pop\n      pop\n      jump\t// out\n        /* \"#utility.yul\":10302:10538   */\n    tag_131:\n        /* \"#utility.yul\":10411:10421   */\n      0x00\n        /* \"#utility.yul\":10446:10532   */\n      tag_259\n        /* \"#utility.yul\":10528:10531   */\n      dup4\n        /* \"#utility.yul\":10520:10526   */\n      dup4\n        /* \"#utility.yul\":10446:10532   */\n      tag_130\n      jump\t// in\n    tag_259:\n        /* \"#utility.yul\":10432:10532   */\n      swap1\n      pop\n        /* \"#utility.yul\":10302:10538   */\n      swap3\n      swap2\n      pop\n      pop\n      jump\t// out\n        /* \"#utility.yul\":10544:10677   */\n    tag_132:\n        /* \"#utility.yul\":10634:10638   */\n      0x00\n        /* \"#utility.yul\":10666:10670   */\n      0x20\n        /* \"#utility.yul\":10661:10664   */\n      dup3\n        /* \"#utility.yul\":10657:10671   */\n      add\n        /* \"#utility.yul\":10649:10671   */\n      swap1\n      pop\n        /* \"#utility.yul\":10544:10677   */\n      swap2\n      swap1\n      pop\n      jump\t// out\n        /* \"#utility.yul\":10731:11802   */\n    tag_133:\n        /* \"#utility.yul\":10890:10893   */\n      0x00\n        /* \"#utility.yul\":10919:10993   */\n      tag_262\n        /* \"#utility.yul\":10987:10992   */\n      dup3\n        /* \"#utility.yul\":10919:10993   */\n      tag_127\n      jump\t// in\n    tag_262:\n        /* \"#utility.yul\":11009:11115   */\n      tag_263\n        /* \"#utility.yul\":11108:11114   */\n      dup2\n        /* \"#utility.yul\":11103:11106   */\n      dup6\n        /* \"#utility.yul\":11009:11115   */\n      tag_128\n      jump\t// in\n    tag_263:\n        /* \"#utility.yul\":11002:11115   */\n      swap4\n      pop\n        /* \"#utility.yul\":11141:11144   */\n      dup4\n        /* \"#utility.yul\":11186:11190   */\n      0x20\n        /* \"#utility.yul\":11178:11184   */\n      dup3\n        /* \"#utility.yul\":11174:11191   */\n      mul\n        /* \"#utility.yul\":11169:11172   */\n      dup6\n        /* \"#utility.yul\":11165:11192   */\n      add\n        /* \"#utility.yul\":11216:11292   */\n      tag_264\n        /* \"#utility.yul\":11286:11291   */\n      dup6\n        /* \"#utility.yul\":11216:11292   */\n      tag_129\n      jump\t// in\n    tag_264:\n        /* \"#utility.yul\":11315:11322   */\n      dup1\n        /* \"#utility.yul\":11346:11347   */\n      0x00\n        /* \"#utility.yul\":11331:11757   */\n    tag_265:\n        /* \"#utility.yul\":11356:11362   */\n      dup6\n        /* \"#utility.yul\":11353:11354   */\n      dup2\n        /* \"#utility.yul\":11350:11363   */\n      lt\n        /* \"#utility.yul\":11331:11757   */\n      iszero\n      tag_267\n      jumpi\n        /* \"#utility.yul\":11427:11436   */\n      dup5\n        /* \"#utility.yul\":11421:11425   */\n      dup5\n        /* \"#utility.yul\":11417:11437   */\n      sub\n        /* \"#utility.yul\":11412:11415   */\n      dup10\n        /* \"#utility.yul\":11405:11438   */\n      mstore\n        /* \"#utility.yul\":11478:11484   */\n      dup2\n        /* \"#utility.yul\":11472:11485   */\n      mload\n        /* \"#utility.yul\":11506:11610   */\n      tag_268\n        /* \"#utility.yul\":11605:11609   */\n      dup6\n        /* \"#utility.yul\":11590:11603   */\n      dup3\n        /* \"#utility.yul\":11506:11610   */\n      tag_131\n      jump\t// in\n    tag_268:\n        /* \"#utility.yul\":11498:11610   */\n      swap5\n      pop\n        /* \"#utility.yul\":11633:11713   */\n      tag_269\n        /* \"#utility.yul\":11706:11712   */\n      dup4\n        /* \"#utility.yul\":11633:11713   */\n      tag_132\n      jump\t// in\n    tag_269:\n        /* \"#utility.yul\":11623:11713   */\n      swap3\n      pop\n        /* \"#utility.yul\":11742:11746   */\n      0x20\n        /* \"#utility.yul\":11737:11740   */\n      dup11\n        /* \"#utility.yul\":11733:11747   */\n      add\n        /* \"#utility.yul\":11726:11747   */\n      swap10\n      pop\n        /* \"#utility.yul\":11391:11757   */\n      pop\n        /* \"#utility.yul\":11378:11379   */\n      0x01\n        /* \"#utility.yul\":11375:11376   */\n      dup2\n        /* \"#utility.yul\":11371:11380   */\n      add\n        /* \"#utility.yul\":11366:11380   */\n      swap1\n      pop\n        /* \"#utility.yul\":11331:11757   */\n      jump(tag_265)\n    tag_267:\n        /* \"#utility.yul\":11335:11349   */\n      pop\n        /* \"#utility.yul\":11773:11777   */\n      dup3\n        /* \"#utility.yul\":11766:11777   */\n      swap8\n      pop\n        /* \"#utility.yul\":11793:11796   */\n      dup8\n        /* \"#utility.yul\":11786:11796   */\n      swap6\n      pop\n        /* \"#utility.yul\":10895:11802   */\n      pop\n      pop\n      pop\n      pop\n      pop\n        /* \"#utility.yul\":10731:11802   */\n      swap3\n      swap2\n      pop\n      pop\n      jump\t// out\n        /* \"#utility.yul\":11808:12261   */\n    tag_39:\n        /* \"#utility.yul\":11991:11995   */\n      0x00\n        /* \"#utility.yul\":12029:12031   */\n      0x20\n        /* \"#utility.yul\":12018:12027   */\n      dup3\n        /* \"#utility.yul\":12014:12032   */\n      add\n        /* \"#utility.yul\":12006:12032   */\n      swap1\n      pop\n        /* \"#utility.yul\":12078:12087   */\n      dup2\n        /* \"#utility.yul\":12072:12076   */\n      dup2\n        /* \"#utility.yul\":12068:12088   */\n      sub\n        /* \"#utility.yul\":12064:12065   */\n      0x00\n        /* \"#utility.yul\":12053:12062   */\n      dup4\n        /* \"#utility.yul\":12049:12066   */\n      add\n        /* \"#utility.yul\":12042:12089   */\n      mstore\n        /* \"#utility.yul\":12106:12254   */\n      tag_271\n        /* \"#utility.yul\":12249:12253   */\n      dup2\n        /* \"#utility.yul\":12240:12246   */\n      dup5\n        /* \"#utility.yul\":12106:12254   */\n      tag_133\n      jump\t// in\n    tag_271:\n        /* \"#utility.yul\":12098:12254   */\n      swap1\n      pop\n        /* \"#utility.yul\":11808:12261   */\n      swap3\n      swap2\n      pop\n      pop\n      jump\t// out\n        /* \"#utility.yul\":12267:12921   */\n    tag_42:\n        /* \"#utility.yul\":12345:12351   */\n      0x00\n        /* \"#utility.yul\":12353:12359   */\n      0x00\n        /* \"#utility.yul\":12402:12404   */\n      0x40\n        /* \"#utility.yul\":12390:12399   */\n      dup4\n        /* \"#utility.yul\":12381:12388   */\n      dup6\n        /* \"#utility.yul\":12377:12400   */\n      sub\n        /* \"#utility.yul\":12373:12405   */\n      slt\n        /* \"#utility.yul\":12370:12489   */\n      iszero\n      tag_273\n      jumpi\n        /* \"#utility.yul\":12408:12487   */\n      tag_274\n      tag_95\n      jump\t// in\n    tag_274:\n        /* \"#utility.yul\":12370:12489   */\n    tag_273:\n        /* \"#utility.yul\":12556:12557   */\n      0x00\n        /* \"#utility.yul\":12545:12554   */\n      dup4\n        /* \"#utility.yul\":12541:12558   */\n      add\n        /* \"#utility.yul\":12528:12559   */\n      calldataload\n        /* \"#utility.yul\":12586:12604   */\n      0xffffffffffffffff\n        /* \"#utility.yul\":12578:12584   */\n      dup2\n        /* \"#utility.yul\":12575:12605   */\n      gt\n        /* \"#utility.yul\":12572:12689   */\n      iszero\n      tag_275\n      jumpi\n        /* \"#utility.yul\":12608:12687   */\n      tag_276\n      tag_96\n      jump\t// in\n    tag_276:\n        /* \"#utility.yul\":12572:12689   */\n    tag_275:\n        /* \"#utility.yul\":12713:12776   */\n      tag_277\n        /* \"#utility.yul\":12768:12775   */\n      dup6\n        /* \"#utility.yul\":12759:12765   */\n      dup3\n        /* \"#utility.yul\":12748:12757   */\n      dup7\n        /* \"#utility.yul\":12744:12766   */\n      add\n        /* \"#utility.yul\":12713:12776   */\n      tag_126\n      jump\t// in\n    tag_277:\n        /* \"#utility.yul\":12703:12776   */\n      swap3\n      pop\n        /* \"#utility.yul\":12499:12786   */\n      pop\n        /* \"#utility.yul\":12825:12827   */\n      0x20\n        /* \"#utility.yul\":12851:12904   */\n      tag_278\n        /* \"#utility.yul\":12896:12903   */\n      dup6\n        /* \"#utility.yul\":12887:12893   */\n      dup3\n        /* \"#utility.yul\":12876:12885   */\n      dup7\n        /* \"#utility.yul\":12872:12894   */\n      add\n        /* \"#utility.yul\":12851:12904   */\n      tag_99\n      jump\t// in\n    tag_278:\n        /* \"#utility.yul\":12841:12904   */\n      swap2\n      pop\n        /* \"#utility.yul\":12796:12914   */\n      pop\n        /* \"#utility.yul\":12267:12921   */\n      swap3\n      pop\n      swap3\n      swap1\n      pop\n      jump\t// out\n        /* \"#utility.yul\":12927:13107   */\n    tag_52:\n        /* \"#utility.yul\":12975:13052   */\n      0x4e487b7100000000000000000000000000000000000000000000000000000000\n        /* \"#utility.yul\":12972:12973   */\n      0x00\n        /* \"#utility.yul\":12965:13053   */\n      mstore\n        /* \"#utility.yul\":13072:13076   */\n      0x32\n        /* \"#utility.yul\":13069:13070   */\n      0x04\n        /* \"#utility.yul\":13062:13077   */\n      mstore\n        /* \"#utility.yul\":13096:13100   */\n      0x24\n        /* \"#utility.yul\":13093:13094   */\n      0x00\n        /* \"#utility.yul\":13086:13101   */\n      revert\n        /* \"#utility.yul\":13113:13293   */\n    tag_134:\n        /* \"#utility.yul\":13161:13238   */\n      0x4e487b7100000000000000000000000000000000000000000000000000000000\n        /* \"#utility.yul\":13158:13159   */\n      0x00\n        /* \"#utility.yul\":13151:13239   */\n      mstore\n        /* \"#utility.yul\":13258:13262   */\n      0x22\n        /* \"#utility.yul\":13255:13256   */\n      0x04\n        /* \"#utility.yul\":13248:13263   */\n      mstore\n        /* \"#utility.yul\":13282:13286   */\n      0x24\n        /* \"#utility.yul\":13279:13280   */\n      0x00\n        /* \"#utility.yul\":13272:13287   */\n      revert\n        /* \"#utility.yul\":13299:13619   */\n    tag_59:\n        /* \"#utility.yul\":13343:13349   */\n      0x00\n        /* \"#utility.yul\":13380:13381   */\n      0x02\n        /* \"#utility.yul\":13374:13378   */\n      dup3\n        /* \"#utility.yul\":13370:13382   */\n      div\n        /* \"#utility.yul\":13360:13382   */\n      swap1\n      pop\n        /* \"#utility.yul\":13427:13428   */\n      0x01\n        /* \"#utility.yul\":13421:13425   */\n      dup3\n        /* \"#utility.yul\":13417:13429   */\n      and\n        /* \"#utility.yul\":13448:13466   */\n      dup1\n        /* \"#utility.yul\":13438:13519   */\n      tag_282\n      jumpi\n        /* \"#utility.yul\":13504:13508   */\n      0x7f\n        /* \"#utility.yul\":13496:13502   */\n      dup3\n        /* \"#utility.yul\":13492:13509   */\n      and\n        /* \"#utility.yul\":13482:13509   */\n      swap2\n      pop\n        /* \"#utility.yul\":13438:13519   */\n    tag_282:\n        /* \"#utility.yul\":13566:13568   */\n      0x20\n        /* \"#utility.yul\":13558:13564   */\n      dup3\n        /* \"#utility.yul\":13555:13569   */\n      lt\n        /* \"#utility.yul\":13535:13553   */\n      dup2\n        /* \"#utility.yul\":13532:13570   */\n      sub\n        /* \"#utility.yul\":13529:13613   */\n      tag_283\n      jumpi\n        /* \"#utility.yul\":13585:13603   */\n      tag_284\n      tag_134\n      jump\t// in\n    tag_284:\n        /* \"#utility.yul\":13529:13613   */\n    tag_283:\n        /* \"#utility.yul\":13350:13619   */\n      pop\n        /* \"#utility.yul\":13299:13619   */\n      swap2\n      swap1\n      pop\n      jump\t// out\n        /* \"#utility.yul\":13625:13805   */\n    tag_135:\n        /* \"#utility.yul\":13673:13750   */\n      0x4e487b7100000000000000000000000000000000000000000000000000000000\n        /* \"#utility.yul\":13670:13671   */\n      0x00\n        /* \"#utility.yul\":13663:13751   */\n      mstore\n        /* \"#utility.yul\":13770:13774   */\n      0x11\n        /* \"#utility.yul\":13767:13768   */\n      0x04\n        /* \"#utility.yul\":13760:13775   */\n      mstore\n        /* \"#utility.yul\":13794:13798   */\n      0x24\n        /* \"#utility.yul\":13791:13792   */\n      0x00\n        /* \"#utility.yul\":13784:13799   */\n      revert\n        /* \"#utility.yul\":13811:14186   */\n    tag_77:\n        /* \"#utility.yul\":13850:13853   */\n      0x00\n        /* \"#utility.yul\":13869:13888   */\n      tag_287\n        /* \"#utility.yul\":13886:13887   */\n      dup3\n        /* \"#utility.yul\":13869:13888   */\n      tag_114\n      jump\t// in\n    tag_287:\n        /* \"#utility.yul\":13864:13888   */\n      swap2\n      pop\n        /* \"#utility.yul\":13902:13921   */\n      tag_288\n        /* \"#utility.yul\":13919:13920   */\n      dup4\n        /* \"#utility.yul\":13902:13921   */\n      tag_114\n      jump\t// in\n    tag_288:\n        /* \"#utility.yul\":13897:13921   */\n      swap3\n      pop\n        /* \"#utility.yul\":13944:13945   */\n      dup3\n        /* \"#utility.yul\":13941:13942   */\n      dup3\n        /* \"#utility.yul\":13937:13946   */\n      add\n        /* \"#utility.yul\":13930:13946   */\n      swap1\n      pop\n        /* \"#utility.yul\":14142:14143   */\n      dup3\n        /* \"#utility.yul\":14137:14140   */\n      dup2\n        /* \"#utility.yul\":14133:14144   */\n      slt\n        /* \"#utility.yul\":14126:14145   */\n      iszero\n        /* \"#utility.yul\":14122:14123   */\n      0x00\n        /* \"#utility.yul\":14119:14120   */\n      dup4\n        /* \"#utility.yul\":14115:14124   */\n      slt\n        /* \"#utility.yul\":14111:14146   */\n      and\n        /* \"#utility.yul\":14094:14095   */\n      dup4\n        /* \"#utility.yul\":14089:14092   */\n      dup3\n        /* \"#utility.yul\":14085:14096   */\n      slt\n        /* \"#utility.yul\":14080:14081   */\n      0x00\n        /* \"#utility.yul\":14077:14078   */\n      dup5\n        /* \"#utility.yul\":14073:14082   */\n      slt\n        /* \"#utility.yul\":14066:14083   */\n      iszero\n        /* \"#utility.yul\":14062:14097   */\n      and\n        /* \"#utility.yul\":14046:14156   */\n      or\n        /* \"#utility.yul\":14043:14179   */\n      iszero\n      tag_289\n      jumpi\n        /* \"#utility.yul\":14159:14177   */\n      tag_290\n      tag_135\n      jump\t// in\n    tag_290:\n        /* \"#utility.yul\":14043:14179   */\n    tag_289:\n        /* \"#utility.yul\":13811:14186   */\n      swap3\n      swap2\n      pop\n      pop\n      jump\t// out\n        /* \"#utility.yul\":14192:14333   */\n    tag_136:\n        /* \"#utility.yul\":14241:14245   */\n      0x00\n        /* \"#utility.yul\":14264:14267   */\n      dup2\n        /* \"#utility.yul\":14256:14267   */\n      swap1\n      pop\n        /* \"#utility.yul\":14287:14290   */\n      dup2\n        /* \"#utility.yul\":14284:14285   */\n      0x00\n        /* \"#utility.yul\":14277:14291   */\n      mstore\n        /* \"#utility.yul\":14321:14325   */\n      0x20\n        /* \"#utility.yul\":14318:14319   */\n      0x00\n        /* \"#utility.yul\":14308:14326   */\n      keccak256\n        /* \"#utility.yul\":14300:14326   */\n      swap1\n      pop\n        /* \"#utility.yul\":14192:14333   */\n      swap2\n      swap1\n      pop\n      jump\t// out\n        /* \"#utility.yul\":14339:14432   */\n    tag_137:\n        /* \"#utility.yul\":14376:14382   */\n      0x00\n        /* \"#utility.yul\":14423:14425   */\n      0x20\n        /* \"#utility.yul\":14418:14420   */\n      0x1f\n        /* \"#utility.yul\":14411:14416   */\n      dup4\n        /* \"#utility.yul\":14407:14421   */\n      add\n        /* \"#utility.yul\":14403:14426   */\n      div\n        /* \"#utility.yul\":14393:14426   */\n      swap1\n      pop\n        /* \"#utility.yul\":14339:14432   */\n      swap2\n      swap1\n      pop\n      jump\t// out\n        /* \"#utility.yul\":14438:14545   */\n    tag_138:\n        /* \"#utility.yul\":14482:14490   */\n      0x00\n        /* \"#utility.yul\":14532:14537   */\n      dup3\n        /* \"#utility.yul\":14526:14530   */\n      dup3\n        /* \"#utility.yul\":14522:14538   */\n      shl\n        /* \"#utility.yul\":14501:14538   */\n      swap1\n      pop\n        /* \"#utility.yul\":14438:14545   */\n      swap3\n      swap2\n      pop\n      pop\n      jump\t// out\n        /* \"#utility.yul\":14551:14944   */\n    tag_139:\n        /* \"#utility.yul\":14620:14626   */\n      0x00\n        /* \"#utility.yul\":14670:14671   */\n      0x08\n        /* \"#utility.yul\":14658:14668   */\n      dup4\n        /* \"#utility.yul\":14654:14672   */\n      mul\n        /* \"#utility.yul\":14693:14790   */\n      tag_295\n        /* \"#utility.yul\":14723:14789   */\n      0xffffffffffffffffffffffffffffffffffffffffffffffffffffffffffffffff\n        /* \"#utility.yul\":14712:14721   */\n      dup3\n        /* \"#utility.yul\":14693:14790   */\n      tag_138\n      jump\t// in\n    tag_295:\n        /* \"#utility.yul\":14811:14850   */\n      tag_296\n        /* \"#utility.yul\":14841:14849   */\n      dup7\n        /* \"#utility.yul\":14830:14839   */\n      dup4\n        /* \"#utility.yul\":14811:14850   */\n      tag_138\n      jump\t// in\n    tag_296:\n        /* \"#utility.yul\":14799:14850   */\n      swap6\n      pop\n        /* \"#utility.yul\":14883:14887   */\n      dup1\n        /* \"#utility.yul\":14879:14888   */\n      not\n        /* \"#utility.yul\":14872:14877   */\n      dup5\n        /* \"#utility.yul\":14868:14889   */\n      and\n        /* \"#utility.yul\":14859:14889   */\n      swap4\n      pop\n        /* \"#utility.yul\":14932:14936   */\n      dup1\n        /* \"#utility.yul\":14922:14930   */\n      dup7\n        /* \"#utility.yul\":14918:14937   */\n      and\n        /* \"#utility.yul\":14911:14916   */\n      dup5\n        /* \"#utility.yul\":14908:14938   */\n      or\n        /* \"#utility.yul\":14898:14938   */\n      swap3\n      pop\n        /* \"#utility.yul\":14627:14944   */\n      pop\n      pop\n        /* \"#utility.yul\":14551:14944   */\n      swap4\n      swap3\n      pop\n      pop\n      pop\n      jump\t// out\n        /* \"#utility.yul\":14950:15010   */\n    tag_140:\n        /* \"#utility.yul\":14978:14981   */\n      0x00\n        /* \"#utility.yul\":14999:15004   */\n      dup2\n        /* \"#utility.yul\":14992:15004   */\n      swap1\n      pop\n        /* \"#utility.yul\":14950:15010   */\n      swap2\n      swap1\n      pop\n      jump\t// out\n        /* \"#utility.yul\":15016:15158   */\n    tag_141:\n        /* \"#utility.yul\":15066:15075   */\n      0x00\n        /* \"#utility.yul\":15099:15152   */\n      tag_299\n        /* \"#utility.yul\":15117:15151   */\n      tag_300\n        /* \"#utility.yul\":15126:15150   */\n      tag_301\n        /* \"#utility.yul\":15144:15149   */\n      dup5\n        /* \"#utility.yul\":15126:15150   */\n      tag_97\n      jump\t// in\n    tag_301:\n        /* \"#utility.yul\":15117:15151   */\n      tag_140\n      jump\t// in\n    tag_300:\n        /* \"#utility.yul\":15099:15152   */\n      tag_97\n      jump\t// in\n    tag_299:\n        /* \"#utility.yul\":15086:15152   */\n      swap1\n      pop\n        /* \"#utility.yul\":15016:15158   */\n      swap2\n      swap1\n      pop\n      jump\t// out\n        /* \"#utility.yul\":15164:15239   */\n    tag_142:\n        /* \"#utility.yul\":15207:15210   */\n      0x00\n        /* \"#utility.yul\":15228:15233   */\n      dup2\n        /* \"#utility.yul\":15221:15233   */\n      swap1\n      pop\n        /* \"#utility.yul\":15164:15239   */\n      swap2\n      swap1\n      pop\n      jump\t// out\n        /* \"#utility.yul\":15245:15514   */\n    tag_143:\n        /* \"#utility.yul\":15355:15394   */\n      tag_304\n        /* \"#utility.yul\":15386:15393   */\n      dup4\n        /* \"#utility.yul\":15355:15394   */\n      tag_141\n      jump\t// in\n    tag_304:\n        /* \"#utility.yul\":15416:15507   */\n      tag_305\n        /* \"#utility.yul\":15465:15506   */\n      tag_306\n        /* \"#utility.yul\":15489:15505   */\n      dup3\n        /* \"#utility.yul\":15465:15506   */\n      tag_142\n      jump\t// in\n    tag_306:\n        /* \"#utility.yul\":15457:15463   */\n      dup5\n        /* \"#utility.yul\":15450:15454   */\n      dup5\n        /* \"#utility.yul\":15444:15455   */\n      sload\n        /* \"#utility.yul\":15416:15507   */\n      tag_139\n      jump\t// in\n    tag_305:\n        /* \"#utility.yul\":15410:15414   */\n      dup3\n        /* \"#utility.yul\":15403:15508   */\n      sstore\n        /* \"#utility.yul\":15321:15514   */\n      pop\n        /* \"#utility.yul\":15245:15514   */\n      pop\n      pop\n      pop\n      jump\t// out\n        /* \"#utility.yul\":15520:15593   */\n    tag_144:\n        /* \"#utility.yul\":15565:15568   */\n      0x00\n        /* \"#utility.yul\":15586:15587   */\n      0x00\n        /* \"#utility.yul\":15579:15587   */\n      swap1\n      pop\n        /* \"#utility.yul\":15520:15593   */\n      swap1\n      jump\t// out\n        /* \"#utility.yul\":15599:15788   */\n    tag_145:\n        /* \"#utility.yul\":15676:15708   */\n      tag_309\n      tag_144\n      jump\t// in\n    tag_309:\n        /* \"#utility.yul\":15717:15782   */\n      tag_310\n        /* \"#utility.yul\":15775:15781   */\n      dup2\n        /* \"#utility.yul\":15767:15773   */\n      dup5\n        /* \"#utility.yul\":15761:15765   */\n      dup5\n        /* \"#utility.yul\":15717:15782   */\n      tag_143\n      jump\t// in\n    tag_310:\n        /* \"#utility.yul\":15652:15788   */\n      pop\n        /* \"#utility.yul\":15599:15788   */\n      pop\n      pop\n      jump\t// out\n        /* \"#utility.yul\":15794:15980   */\n    tag_146:\n        /* \"#utility.yul\":15854:15974   */\n    tag_312:\n        /* \"#utility.yul\":15871:15874   */\n      dup2\n        /* \"#utility.yul\":15864:15869   */\n      dup2\n        /* \"#utility.yul\":15861:15875   */\n      lt\n        /* \"#utility.yul\":15854:15974   */\n      iszero\n      tag_314\n      jumpi\n        /* \"#utility.yul\":15925:15964   */\n      tag_315\n        /* \"#utility.yul\":15962:15963   */\n      0x00\n        /* \"#utility.yul\":15955:15960   */\n      dup3\n        /* \"#utility.yul\":15925:15964   */\n      tag_145\n      jump\t// in\n    tag_315:\n        /* \"#utility.yul\":15898:15899   */\n      0x01\n        /* \"#utility.yul\":15891:15896   */\n      dup2\n        /* \"#utility.yul\":15887:15900   */\n      add\n        /* \"#utility.yul\":15878:15900   */\n      swap1\n      pop\n        /* \"#utility.yul\":15854:15974   */\n      jump(tag_312)\n    tag_314:\n        /* \"#utility.yul\":15794:15980   */\n      pop\n      pop\n      jump\t// out\n        /* \"#utility.yul\":15986:16529   */\n    tag_147:\n        /* \"#utility.yul\":16087:16089   */\n      0x1f\n        /* \"#utility.yul\":16082:16085   */\n      dup3\n        /* \"#utility.yul\":16079:16090   */\n      gt\n        /* \"#utility.yul\":16076:16522   */\n      iszero\n      tag_317\n      jumpi\n        /* \"#utility.yul\":16121:16159   */\n      tag_318\n        /* \"#utility.yul\":16153:16158   */\n      dup2\n        /* \"#utility.yul\":16121:16159   */\n      tag_136\n      jump\t// in\n    tag_318:\n        /* \"#utility.yul\":16205:16234   */\n      tag_319\n        /* \"#utility.yul\":16223:16233   */\n      dup5\n        /* \"#utility.yul\":16205:16234   */\n      tag_137\n      jump\t// in\n    tag_319:\n        /* \"#utility.yul\":16195:16203   */\n      dup2\n        /* \"#utility.yul\":16191:16235   */\n      add\n        /* \"#utility.yul\":16388:16390   */\n      0x20\n        /* \"#utility.yul\":16376:16386   */\n      dup6\n        /* \"#utility.yul\":16373:16391   */\n      lt\n        /* \"#utility.yul\":16370:16419   */\n      iszero\n      tag_320\n      jumpi\n        /* \"#utility.yul\":16409:16417   */\n      dup2\n        /* \"#utility.yul\":16394:16417   */\n      swap1\n      pop\n        /* \"#utility.yul\":16370:16419   */\n    tag_320:\n        /* \"#utility.yul\":16432:16512   */\n      tag_321\n        /* \"#utility.yul\":16488:16510   */\n      tag_322\n        /* \"#utility.yul\":16506:16509   */\n      dup6\n        /* \"#utility.yul\":16488:16510   */\n      tag_137\n      jump\t// in\n    tag_322:\n        /* \"#utility.yul\":16478:16486   */\n      dup4\n        /* \"#utility.yul\":16474:16511   */\n      add\n        /* \"#utility.yul\":16461:16472   */\n      dup3\n        /* \"#utility.yul\":16432:16512   */\n      tag_146\n      jump\t// in\n    tag_321:\n        /* \"#utility.yul\":16091:16522   */\n      pop\n      pop\n        /* \"#utility.yul\":16076:16522   */\n    tag_317:\n        /* \"#utility.yul\":15986:16529   */\n      pop\n      pop\n      pop\n      jump\t// out\n        /* \"#utility.yul\":16535:16652   */\n    tag_148:\n        /* \"#utility.yul\":16589:16597   */\n      0x00\n        /* \"#utility.yul\":16639:16644   */\n      dup3\n        /* \"#utility.yul\":16633:16637   */\n      dup3\n        /* \"#utility.yul\":16629:16645   */\n      shr\n        /* \"#utility.yul\":16608:16645   */\n      swap1\n      pop\n        /* \"#utility.yul\":16535:16652   */\n      swap3\n      swap2\n      pop\n      pop\n      jump\t// out\n        /* \"#utility.yul\":16658:16827   */\n    tag_149:\n        /* \"#utility.yul\":16702:16708   */\n      0x00\n        /* \"#utility.yul\":16735:16786   */\n      tag_325\n        /* \"#utility.yul\":16783:16784   */\n      0x00\n        /* \"#utility.yul\":16779:16785   */\n      not\n        /* \"#utility.yul\":16771:16776   */\n      dup5\n        /* \"#utility.yul\":16768:16769   */\n      0x08\n        /* \"#utility.yul\":16764:16777   */\n      mul\n        /* \"#utility.yul\":16735:16786   */\n      tag_148\n      jump\t// in\n    tag_325:\n        /* \"#utility.yul\":16731:16787   */\n      not\n        /* \"#utility.yul\":16816:16820   */\n      dup1\n        /* \"#utility.yul\":16810:16814   */\n      dup4\n        /* \"#utility.yul\":16806:16821   */\n      and\n        /* \"#utility.yul\":16796:16821   */\n      swap2\n      pop\n        /* \"#utility.yul\":16709:16827   */\n      pop\n        /* \"#utility.yul\":16658:16827   */\n      swap3\n      swap2\n      pop\n      pop\n      jump\t// out\n        /* \"#utility.yul\":16832:17127   */\n    tag_150:\n        /* \"#utility.yul\":16908:16912   */\n      0x00\n        /* \"#utility.yul\":17054:17083   */\n      tag_327\n        /* \"#utility.yul\":17079:17082   */\n      dup4\n        /* \"#utility.yul\":17073:17077   */\n      dup4\n        /* \"#utility.yul\":17054:17083   */\n      tag_149\n      jump\t// in\n    tag_327:\n        /* \"#utility.yul\":17046:17083   */\n      swap2\n      pop\n        /* \"#utility.yul\":17116:17119   */\n      dup3\n        /* \"#utility.yul\":17113:17114   */\n      0x02\n        /* \"#utility.yul\":17109:17120   */\n      mul\n        /* \"#utility.yul\":17103:17107   */\n      dup3\n        /* \"#utility.yul\":17100:17121   */\n      or\n        /* \"#utility.yul\":17092:17121   */\n      swap1\n      pop\n        /* \"#utility.yul\":16832:17127   */\n      swap3\n      swap2\n      pop\n      pop\n      jump\t// out\n        /* \"#utility.yul\":17132:18527   */\n    tag_80:\n        /* \"#utility.yul\":17249:17286   */\n      tag_329\n        /* \"#utility.yul\":17282:17285   */\n      dup3\n        /* \"#utility.yul\":17249:17286   */\n      tag_100\n      jump\t// in\n    tag_329:\n        /* \"#utility.yul\":17351:17369   */\n      0xffffffffffffffff\n        /* \"#utility.yul\":17343:17349   */\n      dup2\n        /* \"#utility.yul\":17340:17370   */\n      gt\n        /* \"#utility.yul\":17337:17393   */\n      iszero\n      tag_330\n      jumpi\n        /* \"#utility.yul\":17373:17391   */\n      tag_331\n      tag_120\n      jump\t// in\n    tag_331:\n        /* \"#utility.yul\":17337:17393   */\n    tag_330:\n        /* \"#utility.yul\":17417:17455   */\n      tag_332\n        /* \"#utility.yul\":17449:17453   */\n      dup3\n        /* \"#utility.yul\":17443:17454   */\n      sload\n        /* \"#utility.yul\":17417:17455   */\n      tag_59\n      jump\t// in\n    tag_332:\n        /* \"#utility.yul\":17502:17569   */\n      tag_333\n        /* \"#utility.yul\":17562:17568   */\n      dup3\n        /* \"#utility.yul\":17554:17560   */\n      dup3\n        /* \"#utility.yul\":17548:17552   */\n      dup6\n        /* \"#utility.yul\":17502:17569   */\n      tag_147\n      jump\t// in\n    tag_333:\n        /* \"#utility.yul\":17596:17597   */\n      0x00\n        /* \"#utility.yul\":17620:17624   */\n      0x20\n        /* \"#utility.yul\":17607:17624   */\n      swap1\n      pop\n        /* \"#utility.yul\":17652:17654   */\n      0x1f\n        /* \"#utility.yul\":17644:17650   */\n      dup4\n        /* \"#utility.yul\":17641:17655   */\n      gt\n        /* \"#utility.yul\":17669:17670   */\n      0x01\n        /* \"#utility.yul\":17664:18282   */\n      dup2\n      eq\n      tag_335\n      jumpi\n        /* \"#utility.yul\":18326:18327   */\n      0x00\n        /* \"#utility.yul\":18343:18349   */\n      dup5\n        /* \"#utility.yul\":18340:18417   */\n      iszero\n      tag_336\n      jumpi\n        /* \"#utility.yul\":18392:18401   */\n      dup3\n        /* \"#utility.yul\":18387:18390   */\n      dup8\n        /* \"#utility.yul\":18383:18402   */\n      add\n        /* \"#utility.yul\":18377:18403   */\n      mload\n        /* \"#utility.yul\":18368:18403   */\n      swap1\n      pop\n        /* \"#utility.yul\":18340:18417   */\n    tag_336:\n        /* \"#utility.yul\":18443:18510   */\n      tag_337\n        /* \"#utility.yul\":18503:18509   */\n      dup6\n        /* \"#utility.yul\":18496:18501   */\n      dup3\n        /* \"#utility.yul\":18443:18510   */\n      tag_150\n      jump\t// in\n    tag_337:\n        /* \"#utility.yul\":18437:18441   */\n      dup7\n        /* \"#utility.yul\":18430:18511   */\n      sstore\n        /* \"#utility.yul\":18299:18521   */\n      pop\n        /* \"#utility.yul\":17634:18521   */\n      jump(tag_334)\n        /* \"#utility.yul\":17664:18282   */\n    tag_335:\n        /* \"#utility.yul\":17716:17720   */\n      0x1f\n        /* \"#utility.yul\":17712:17721   */\n      not\n        /* \"#utility.yul\":17704:17710   */\n      dup5\n        /* \"#utility.yul\":17700:17722   */\n      and\n        /* \"#utility.yul\":17750:17787   */\n      tag_338\n        /* \"#utility.yul\":17782:17786   */\n      dup7\n        /* \"#utility.yul\":17750:17787   */\n      tag_136\n      jump\t// in\n    tag_338:\n        /* \"#utility.yul\":17809:17810   */\n      0x00\n        /* \"#utility.yul\":17823:18031   */\n    tag_339:\n        /* \"#utility.yul\":17837:17844   */\n      dup3\n        /* \"#utility.yul\":17834:17835   */\n      dup2\n        /* \"#utility.yul\":17831:17845   */\n      lt\n        /* \"#utility.yul\":17823:18031   */\n      iszero\n      tag_341\n      jumpi\n        /* \"#utility.yul\":17916:17925   */\n      dup5\n        /* \"#utility.yul\":17911:17914   */\n      dup10\n        /* \"#utility.yul\":17907:17926   */\n      add\n        /* \"#utility.yul\":17901:17927   */\n      mload\n        /* \"#utility.yul\":17893:17899   */\n      dup3\n        /* \"#utility.yul\":17886:17928   */\n      sstore\n        /* \"#utility.yul\":17967:17968   */\n      0x01\n        /* \"#utility.yul\":17959:17965   */\n      dup3\n        /* \"#utility.yul\":17955:17969   */\n      add\n        /* \"#utility.yul\":17945:17969   */\n      swap2\n      pop\n        /* \"#utility.yul\":18014:18016   */\n      0x20\n        /* \"#utility.yul\":18003:18012   */\n      dup6\n        /* \"#utility.yul\":17999:18017   */\n      add\n        /* \"#utility.yul\":17986:18017   */\n      swap5\n      pop\n        /* \"#utility.yul\":17860:17864   */\n      0x20\n        /* \"#utility.yul\":17857:17858   */\n      dup2\n        /* \"#utility.yul\":17853:17865   */\n      add\n        /* \"#utility.yul\":17848:17865   */\n      swap1\n      pop\n        /* \"#utility.yul\":17823:18031   */\n      jump(tag_339)\n    tag_341:\n        /* \"#utility.yul\":18059:18065   */\n      dup7\n        /* \"#utility.yul\":18050:18057   */\n      dup4\n        /* \"#utility.yul\":18047:18066   */\n      lt\n        /* \"#utility.yul\":18044:18223   */\n      iszero\n      tag_342\n      jumpi\n        /* \"#utility.yul\":18117:18126   */\n      dup5\n        /* \"#utility.yul\":18112:18115   */\n      dup10\n        /* \"#utility.yul\":18108:18127   */\n      add\n        /* \"#utility.yul\":18102:18128   */\n      mload\n        /* \"#utility.yul\":18160:18208   */\n      tag_343\n        /* \"#utility.yul\":18202:18206   */\n      0x1f\n        /* \"#utility.yul\":18194:18200   */\n      dup10\n        /* \"#utility.yul\":18190:18207   */\n      and\n        /* \"#utility.yul\":18179:18188   */\n      dup3\n        /* \"#utility.yul\":18160:18208   */\n      tag_149\n      jump\t// in\n    tag_343:\n        /* \"#utility.yul\":18152:18158   */\n      dup4\n        /* \"#utility.yul\":18145:18209   */\n      sstore\n        /* \"#utility.yul\":18067:18223   */\n      pop\n        /* \"#utility.yul\":18044:18223   */\n    tag_342:\n        /* \"#utility.yul\":18269:18270   */\n      0x01\n        /* \"#utility.yul\":18265:18266   */\n      0x02\n        /* \"#utility.yul\":18257:18263   */\n      dup9\n        /* \"#utility.yul\":18253:18267   */\n      mul\n        /* \"#utility.yul\":18249:18271   */\n      add\n        /* \"#utility.yul\":18243:18247   */\n      dup9\n        /* \"#utility.yul\":18236:18272   */\n      sstore\n        /* \"#utility.yul\":17671:18282   */\n      pop\n      pop\n      pop\n        /* \"#utility.yul\":17634:18521   */\n    tag_334:\n      pop\n        /* \"#utility.yul\":17224:18527   */\n      pop\n      pop\n      pop\n        /* \"#utility.yul\":17132:18527   */\n      pop\n      pop\n      jump\t// out\n\n    auxdata: 0xa2646970667358221220d3a22de43916f4504c4df19a2c6e62c7fbcc53e48b20b3ee202bd9a8650b564a64736f6c634300081e0033\n}\n",
				"bytecode": {
					"linkReferences": {},
					"object": "60806040526040518060400160405280600481526020017f74657374000000000000000000000000000000000000000000000000000000008152505f9081610047919061029a565b505f600155348015610057575f5ffd5b50610369565b5f81519050919050565b7f4e487b71000000000000000000000000000000000000000000000000000000005f52604160045260245ffd5b7f4e487b71000000000000000000000000000000000000000000000000000000005f52602260045260245ffd5b5f60028204905060018216806100d857607f821691505b6020821081036100eb576100ea610094565b5b50919050565b5f819050815f5260205f209050919050565b5f6020601f8301049050919050565b5f82821b905092915050565b5f6008830261014d7fffffffffffffffffffffffffffffffffffffffffffffffffffffffffffffffff82610112565b6101578683610112565b95508019841693508086168417925050509392505050565b5f819050919050565b5f819050919050565b5f61019b6101966101918461016f565b610178565b61016f565b9050919050565b5f819050919050565b6101b483610181565b6101c86101c0826101a2565b84845461011e565b825550505050565b5f5f905090565b6101df6101d0565b6101ea8184846101ab565b505050565b5b8181101561020d576102025f826101d7565b6001810190506101f0565b5050565b601f82111561025257610223816100f1565b61022c84610103565b8101602085101561023b578190505b61024f61024785610103565b8301826101ef565b50505b505050565b5f82821c905092915050565b5f6102725f1984600802610257565b1980831691505092915050565b5f61028a8383610263565b9150826002028217905092915050565b6102a38261005d565b67ffffffffffffffff8111156102bc576102bb610067565b5b6102c682546100c1565b6102d1828285610211565b5f60209050601f831160018114610302575f84156102f0578287015190505b6102fa858261027f565b865550610361565b601f198416610310866100f1565b5f5b8281101561033757848901518255600182019150602085019450602081019050610312565b868310156103545784890151610350601f891682610263565b8355505b6001600288020188555050505b505050505050565b6110cd806103765f395ff3fe608060405234801561000f575f5ffd5b506004361061007b575f3560e01c806385ba61d71161005957806385ba61d7146100ff57806393a093521461012f578063b18e15bd1461014b578063cd6bc3dd146101695761007b565b80631a3cd59a1461007f57806320965255146100af57806358e28ce6146100cd575b5f5ffd5b61009960048036038101906100949190610783565b610185565b6040516100a691906108d3565b60405180910390f35b6100b76102fe565b6040516100c4919061093b565b60405180910390f35b6100e760048036038101906100e29190610783565b61038d565b6040516100f693929190610979565b60405180910390f35b610119600480360381019061011491906109e8565b610458565b6040516101269190610a22565b60405180910390f35b61014960048036038101906101449190610b67565b61046d565b005b61015361047f565b6040516101609190610cb6565b60405180910390f35b610183600480360381019061017e9190610cd6565b6105c9565b005b61018d61070a565b5f5f90505b6002805490508110156102f75782600282815481106101b4576101b3610d30565b5b905f5260205f20906003020160010154036102ea57600281815481106101dd576101dc610d30565b5b905f5260205f2090600302016040518060600160405290815f8201805461020390610d8a565b80601f016020809104026020016040519081016040528092919081815260200182805461022f90610d8a565b801561027a5780601f106102515761010080835404028352916020019161027a565b820191905f5260205f20905b81548152906001019060200180831161025d57829003601f168201915b5050505050815260200160018201548152602001600282015f9054906101000a900473ffffffffffffffffffffffffffffffffffffffff1673ffffffffffffffffffffffffffffffffffffffff1673ffffffffffffffffffffffffffffffffffffffff16815250509150506102f9565b8080600101915050610192565b505b919050565b60605f805461030c90610d8a565b80601f016020809104026020016040519081016040528092919081815260200182805461033890610d8a565b80156103835780601f1061035a57610100808354040283529160200191610383565b820191905f5260205f20905b81548152906001019060200180831161036657829003601f168201915b5050505050905090565b6003602052805f5260405f205f91509050805f0180546103ac90610d8a565b80601f01602080910402602001604051908101604052809291908181526020018280546103d890610d8a565b80156104235780601f106103fa57610100808354040283529160200191610423565b820191905f5260205f20905b81548152906001019060200180831161040657829003601f168201915b505050505090806001015490806002015f9054906101000a900473ffffffffffffffffffffffffffffffffffffffff16905083565b5f600a826104669190610de7565b9050919050565b805f908161047b9190610fc8565b5050565b60606002805480602002602001604051908101604052809291908181526020015f905b828210156105c0578382905f5260205f2090600302016040518060600160405290815f820180546104d290610d8a565b80601f01602080910402602001604051908101604052809291908181526020018280546104fe90610d8a565b80156105495780601f1061052057610100808354040283529160200191610549565b820191905f5260205f20905b81548152906001019060200180831161052c57829003601f168201915b5050505050815260200160018201548152602001600282015f9054906101000a900473ffffffffffffffffffffffffffffffffffffffff1673ffffffffffffffffffffffffffffffffffffffff1673ffffffffffffffffffffffffffffffffffffffff1681525050815260200190600101906104a2565b50505050905090565b5f60405180606001604052808481526020018381526020013373ffffffffffffffffffffffffffffffffffffffff168152509050600281908060018154018082558091505060019003905f5260205f2090600302015f909190919091505f820151815f0190816106399190610fc8565b50602082015181600101556040820151816002015f6101000a81548173ffffffffffffffffffffffffffffffffffffffff021916908373ffffffffffffffffffffffffffffffffffffffff16021790555050508060035f8481526020019081526020015f205f820151815f0190816106b19190610fc8565b50602082015181600101556040820151816002015f6101000a81548173ffffffffffffffffffffffffffffffffffffffff021916908373ffffffffffffffffffffffffffffffffffffffff160217905550905050505050565b6040518060600160405280606081526020015f81526020015f73ffffffffffffffffffffffffffffffffffffffff1681525090565b5f604051905090565b5f5ffd5b5f5ffd5b5f819050919050565b61076281610750565b811461076c575f5ffd5b50565b5f8135905061077d81610759565b92915050565b5f6020828403121561079857610797610748565b5b5f6107a58482850161076f565b91505092915050565b5f81519050919050565b5f82825260208201905092915050565b5f5b838110156107e55780820151818401526020810190506107ca565b5f8484015250505050565b5f601f19601f8301169050919050565b5f61080a826107ae565b61081481856107b8565b93506108248185602086016107c8565b61082d816107f0565b840191505092915050565b61084181610750565b82525050565b5f73ffffffffffffffffffffffffffffffffffffffff82169050919050565b5f61087082610847565b9050919050565b61088081610866565b82525050565b5f606083015f8301518482035f8601526108a08282610800565b91505060208301516108b56020860182610838565b5060408301516108c86040860182610877565b508091505092915050565b5f6020820190508181035f8301526108eb8184610886565b905092915050565b5f82825260208201905092915050565b5f61090d826107ae565b61091781856108f3565b93506109278185602086016107c8565b610930816107f0565b840191505092915050565b5f6020820190508181035f8301526109538184610903565b905092915050565b61096481610750565b82525050565b61097381610866565b82525050565b5f6060820190508181035f8301526109918186610903565b90506109a0602083018561095b565b6109ad604083018461096a565b949350505050565b5f819050919050565b6109c7816109b5565b81146109d1575f5ffd5b50565b5f813590506109e2816109be565b92915050565b5f602082840312156109fd576109fc610748565b5b5f610a0a848285016109d4565b91505092915050565b610a1c816109b5565b82525050565b5f602082019050610a355f830184610a13565b92915050565b5f5ffd5b5f5ffd5b7f4e487b71000000000000000000000000000000000000000000000000000000005f52604160045260245ffd5b610a79826107f0565b810181811067ffffffffffffffff82111715610a9857610a97610a43565b5b80604052505050565b5f610aaa61073f565b9050610ab68282610a70565b919050565b5f67ffffffffffffffff821115610ad557610ad4610a43565b5b610ade826107f0565b9050602081019050919050565b828183375f83830152505050565b5f610b0b610b0684610abb565b610aa1565b905082815260208101848484011115610b2757610b26610a3f565b5b610b32848285610aeb565b509392505050565b5f82601f830112610b4e57610b4d610a3b565b5b8135610b5e848260208601610af9565b91505092915050565b5f60208284031215610b7c57610b7b610748565b5b5f82013567ffffffffffffffff811115610b9957610b9861074c565b5b610ba584828501610b3a565b91505092915050565b5f81519050919050565b5f82825260208201905092915050565b5f819050602082019050919050565b5f606083015f8301518482035f860152610bf18282610800565b9150506020830151610c066020860182610838565b506040830151610c196040860182610877565b508091505092915050565b5f610c2f8383610bd7565b905092915050565b5f602082019050919050565b5f610c4d82610bae565b610c578185610bb8565b935083602082028501610c6985610bc8565b805f5b85811015610ca45784840389528151610c858582610c24565b9450610c9083610c37565b925060208a01995050600181019050610c6c565b50829750879550505050505092915050565b5f6020820190508181035f830152610cce8184610c43565b905092915050565b5f5f60408385031215610cec57610ceb610748565b5b5f83013567ffffffffffffffff811115610d0957610d0861074c565b5b610d1585828601610b3a565b9250506020610d268582860161076f565b9150509250929050565b7f4e487b71000000000000000000000000000000000000000000000000000000005f52603260045260245ffd5b7f4e487b71000000000000000000000000000000000000000000000000000000005f52602260045260245ffd5b5f6002820490506001821680610da157607f821691505b602082108103610db457610db3610d5d565b5b50919050565b7f4e487b71000000000000000000000000000000000000000000000000000000005f52601160045260245ffd5b5f610df1826109b5565b9150610dfc836109b5565b92508282019050828112155f8312168382125f841215161715610e2257610e21610dba565b5b92915050565b5f819050815f5260205f209050919050565b5f6020601f8301049050919050565b5f82821b905092915050565b5f60088302610e847fffffffffffffffffffffffffffffffffffffffffffffffffffffffffffffffff82610e49565b610e8e8683610e49565b95508019841693508086168417925050509392505050565b5f819050919050565b5f610ec9610ec4610ebf84610750565b610ea6565b610750565b9050919050565b5f819050919050565b610ee283610eaf565b610ef6610eee82610ed0565b848454610e55565b825550505050565b5f5f905090565b610f0d610efe565b610f18818484610ed9565b505050565b5b81811015610f3b57610f305f82610f05565b600181019050610f1e565b5050565b601f821115610f8057610f5181610e28565b610f5a84610e3a565b81016020851015610f69578190505b610f7d610f7585610e3a565b830182610f1d565b50505b505050565b5f82821c905092915050565b5f610fa05f1984600802610f85565b1980831691505092915050565b5f610fb88383610f91565b9150826002028217905092915050565b610fd1826107ae565b67ffffffffffffffff811115610fea57610fe9610a43565b5b610ff48254610d8a565b610fff828285610f3f565b5f60209050601f831160018114611030575f841561101e578287015190505b6110288582610fad565b86555061108f565b601f19841661103e86610e28565b5f5b8281101561106557848901518255600182019150602085019450602081019050611040565b86831015611082578489015161107e601f891682610f91565b8355505b6001600288020188555050505b50505050505056fea2646970667358221220d3a22de43916f4504c4df19a2c6e62c7fbcc53e48b20b3ee202bd9a8650b564a64736f6c634300081e0033",
					"opcodes": "PUSH1 0x80 PUSH1 0x40 MSTORE PUSH1 0x40 MLOAD DUP1 PUSH1 0x40 ADD PUSH1 0x40 MSTORE DUP1 PUSH1 0x4 DUP2 MSTORE PUSH1 0x20 ADD PUSH32 0x7465737400000000000000000000000000000000000000000000000000000000 DUP2 MSTORE POP PUSH0 SWAP1 DUP2 PUSH2 0x47 SWAP2 SWAP1 PUSH2 0x29A JUMP JUMPDEST POP PUSH0 PUSH1 0x1 SSTORE CALLVALUE DUP1 ISZERO PUSH2 0x57 JUMPI PUSH0 PUSH0 REVERT JUMPDEST POP PUSH2 0x369 JUMP JUMPDEST PUSH0 DUP2 MLOAD SWAP1 POP SWAP2 SWAP1 POP JUMP JUMPDEST PUSH32 0x4E487B7100000000000000000000000000000000000000000000000000000000 PUSH0 MSTORE PUSH1 0x41 PUSH1 0x4 MSTORE PUSH1 0x24 PUSH0 REVERT JUMPDEST PUSH32 0x4E487B7100000000000000000000000000000000000000000000000000000000 PUSH0 MSTORE PUSH1 0x22 PUSH1 0x4 MSTORE PUSH1 0x24 PUSH0 REVERT JUMPDEST PUSH0 PUSH1 0x2 DUP3 DIV SWAP1 POP PUSH1 0x1 DUP3 AND DUP1 PUSH2 0xD8 JUMPI PUSH1 0x7F DUP3 AND SWAP2 POP JUMPDEST PUSH1 0x20 DUP3 LT DUP2 SUB PUSH2 0xEB JUMPI PUSH2 0xEA PUSH2 0x94 JUMP JUMPDEST JUMPDEST POP SWAP2 SWAP1 POP JUMP JUMPDEST PUSH0 DUP2 SWAP1 POP DUP2 PUSH0 MSTORE PUSH1 0x20 PUSH0 KECCAK256 SWAP1 POP SWAP2 SWAP1 POP JUMP JUMPDEST PUSH0 PUSH1 0x20 PUSH1 0x1F DUP4 ADD DIV SWAP1 POP SWAP2 SWAP1 POP JUMP JUMPDEST PUSH0 DUP3 DUP3 SHL SWAP1 POP SWAP3 SWAP2 POP POP JUMP JUMPDEST PUSH0 PUSH1 0x8 DUP4 MUL PUSH2 0x14D PUSH32 0xFFFFFFFFFFFFFFFFFFFFFFFFFFFFFFFFFFFFFFFFFFFFFFFFFFFFFFFFFFFFFFFF DUP3 PUSH2 0x112 JUMP JUMPDEST PUSH2 0x157 DUP7 DUP4 PUSH2 0x112 JUMP JUMPDEST SWAP6 POP DUP1 NOT DUP5 AND SWAP4 POP DUP1 DUP7 AND DUP5 OR SWAP3 POP POP POP SWAP4 SWAP3 POP POP POP JUMP JUMPDEST PUSH0 DUP2 SWAP1 POP SWAP2 SWAP1 POP JUMP JUMPDEST PUSH0 DUP2 SWAP1 POP SWAP2 SWAP1 POP JUMP JUMPDEST PUSH0 PUSH2 0x19B PUSH2 0x196 PUSH2 0x191 DUP5 PUSH2 0x16F JUMP JUMPDEST PUSH2 0x178 JUMP JUMPDEST PUSH2 0x16F JUMP JUMPDEST SWAP1 POP SWAP2 SWAP1 POP JUMP JUMPDEST PUSH0 DUP2 SWAP1 POP SWAP2 SWAP1 POP JUMP JUMPDEST PUSH2 0x1B4 DUP4 PUSH2 0x181 JUMP JUMPDEST PUSH2 0x1C8 PUSH2 0x1C0 DUP3 PUSH2 0x1A2 JUMP JUMPDEST DUP5 DUP5 SLOAD PUSH2 0x11E JUMP JUMPDEST DUP3 SSTORE POP POP POP POP JUMP JUMPDEST PUSH0 PUSH0 SWAP1 POP SWAP1 JUMP JUMPDEST PUSH2 0x1DF PUSH2 0x1D0 JUMP JUMPDEST PUSH2 0x1EA DUP2 DUP5 DUP5 PUSH2 0x1AB JUMP JUMPDEST POP POP POP JUMP JUMPDEST JUMPDEST DUP2 DUP2 LT ISZERO PUSH2 0x20D JUMPI PUSH2 0x202 PUSH0 DUP3 PUSH2 0x1D7 JUMP JUMPDEST PUSH1 0x1 DUP2 ADD SWAP1 POP PUSH2 0x1F0 JUMP JUMPDEST POP POP JUMP JUMPDEST PUSH1 0x1F DUP3 GT ISZERO PUSH2 0x252 JUMPI PUSH2 0x223 DUP2 PUSH2 0xF1 JUMP JUMPDEST PUSH2 0x22C DUP5 PUSH2 0x103 JUMP JUMPDEST DUP2 ADD PUSH1 0x20 DUP6 LT ISZERO PUSH2 0x23B JUMPI DUP2 SWAP1 POP JUMPDEST PUSH2 0x24F PUSH2 0x247 DUP6 PUSH2 0x103 JUMP JUMPDEST DUP4 ADD DUP3 PUSH2 0x1EF JUMP JUMPDEST POP POP JUMPDEST POP POP POP JUMP JUMPDEST PUSH0 DUP3 DUP3 SHR SWAP1 POP SWAP3 SWAP2 POP POP JUMP JUMPDEST PUSH0 PUSH2 0x272 PUSH0 NOT DUP5 PUSH1 0x8 MUL PUSH2 0x257 JUMP JUMPDEST NOT DUP1 DUP4 AND SWAP2 POP POP SWAP3 SWAP2 POP POP JUMP JUMPDEST PUSH0 PUSH2 0x28A DUP4 DUP4 PUSH2 0x263 JUMP JUMPDEST SWAP2 POP DUP3 PUSH1 0x2 MUL DUP3 OR SWAP1 POP SWAP3 SWAP2 POP POP JUMP JUMPDEST PUSH2 0x2A3 DUP3 PUSH2 0x5D JUMP JUMPDEST PUSH8 0xFFFFFFFFFFFFFFFF DUP2 GT ISZERO PUSH2 0x2BC JUMPI PUSH2 0x2BB PUSH2 0x67 JUMP JUMPDEST JUMPDEST PUSH2 0x2C6 DUP3 SLOAD PUSH2 0xC1 JUMP JUMPDEST PUSH2 0x2D1 DUP3 DUP3 DUP6 PUSH2 0x211 JUMP JUMPDEST PUSH0 PUSH1 0x20 SWAP1 POP PUSH1 0x1F DUP4 GT PUSH1 0x1 DUP2 EQ PUSH2 0x302 JUMPI PUSH0 DUP5 ISZERO PUSH2 0x2F0 JUMPI DUP3 DUP8 ADD MLOAD SWAP1 POP JUMPDEST PUSH2 0x2FA DUP6 DUP3 PUSH2 0x27F JUMP JUMPDEST DUP7 SSTORE POP PUSH2 0x361 JUMP JUMPDEST PUSH1 0x1F NOT DUP5 AND PUSH2 0x310 DUP7 PUSH2 0xF1 JUMP JUMPDEST PUSH0 JUMPDEST DUP3 DUP2 LT ISZERO PUSH2 0x337 JUMPI DUP5 DUP10 ADD MLOAD DUP3 SSTORE PUSH1 0x1 DUP3 ADD SWAP2 POP PUSH1 0x20 DUP6 ADD SWAP5 POP PUSH1 0x20 DUP2 ADD SWAP1 POP PUSH2 0x312 JUMP JUMPDEST DUP7 DUP4 LT ISZERO PUSH2 0x354 JUMPI DUP5 DUP10 ADD MLOAD PUSH2 0x350 PUSH1 0x1F DUP10 AND DUP3 PUSH2 0x263 JUMP JUMPDEST DUP4 SSTORE POP JUMPDEST PUSH1 0x1 PUSH1 0x2 DUP9 MUL ADD DUP9 SSTORE POP POP POP JUMPDEST POP POP POP POP POP POP JUMP JUMPDEST PUSH2 0x10CD DUP1 PUSH2 0x376 PUSH0 CODECOPY PUSH0 RETURN INVALID PUSH1 0x80 PUSH1 0x40 MSTORE CALLVALUE DUP1 ISZERO PUSH2 0xF JUMPI PUSH0 PUSH0 REVERT JUMPDEST POP PUSH1 0x4 CALLDATASIZE LT PUSH2 0x7B JUMPI PUSH0 CALLDATALOAD PUSH1 0xE0 SHR DUP1 PUSH4 0x85BA61D7 GT PUSH2 0x59 JUMPI DUP1 PUSH4 0x85BA61D7 EQ PUSH2 0xFF JUMPI DUP1 PUSH4 0x93A09352 EQ PUSH2 0x12F JUMPI DUP1 PUSH4 0xB18E15BD EQ PUSH2 0x14B JUMPI DUP1 PUSH4 0xCD6BC3DD EQ PUSH2 0x169 JUMPI PUSH2 0x7B JUMP JUMPDEST DUP1 PUSH4 0x1A3CD59A EQ PUSH2 0x7F JUMPI DUP1 PUSH4 0x20965255 EQ PUSH2 0xAF JUMPI DUP1 PUSH4 0x58E28CE6 EQ PUSH2 0xCD JUMPI JUMPDEST PUSH0 PUSH0 REVERT JUMPDEST PUSH2 0x99 PUSH1 0x4 DUP1 CALLDATASIZE SUB DUP2 ADD SWAP1 PUSH2 0x94 SWAP2 SWAP1 PUSH2 0x783 JUMP JUMPDEST PUSH2 0x185 JUMP JUMPDEST PUSH1 0x40 MLOAD PUSH2 0xA6 SWAP2 SWAP1 PUSH2 0x8D3 JUMP JUMPDEST PUSH1 0x40 MLOAD DUP1 SWAP2 SUB SWAP1 RETURN JUMPDEST PUSH2 0xB7 PUSH2 0x2FE JUMP JUMPDEST PUSH1 0x40 MLOAD PUSH2 0xC4 SWAP2 SWAP1 PUSH2 0x93B JUMP JUMPDEST PUSH1 0x40 MLOAD DUP1 SWAP2 SUB SWAP1 RETURN JUMPDEST PUSH2 0xE7 PUSH1 0x4 DUP1 CALLDATASIZE SUB DUP2 ADD SWAP1 PUSH2 0xE2 SWAP2 SWAP1 PUSH2 0x783 JUMP JUMPDEST PUSH2 0x38D JUMP JUMPDEST PUSH1 0x40 MLOAD PUSH2 0xF6 SWAP4 SWAP3 SWAP2 SWAP1 PUSH2 0x979 JUMP JUMPDEST PUSH1 0x40 MLOAD DUP1 SWAP2 SUB SWAP1 RETURN JUMPDEST PUSH2 0x119 PUSH1 0x4 DUP1 CALLDATASIZE SUB DUP2 ADD SWAP1 PUSH2 0x114 SWAP2 SWAP1 PUSH2 0x9E8 JUMP JUMPDEST PUSH2 0x458 JUMP JUMPDEST PUSH1 0x40 MLOAD PUSH2 0x126 SWAP2 SWAP1 PUSH2 0xA22 JUMP JUMPDEST PUSH1 0x40 MLOAD DUP1 SWAP2 SUB SWAP1 RETURN JUMPDEST PUSH2 0x149 PUSH1 0x4 DUP1 CALLDATASIZE SUB DUP2 ADD SWAP1 PUSH2 0x144 SWAP2 SWAP1 PUSH2 0xB67 JUMP JUMPDEST PUSH2 0x46D JUMP JUMPDEST STOP JUMPDEST PUSH2 0x153 PUSH2 0x47F JUMP JUMPDEST PUSH1 0x40 MLOAD PUSH2 0x160 SWAP2 SWAP1 PUSH2 0xCB6 JUMP JUMPDEST PUSH1 0x40 MLOAD DUP1 SWAP2 SUB SWAP1 RETURN JUMPDEST PUSH2 0x183 PUSH1 0x4 DUP1 CALLDATASIZE SUB DUP2 ADD SWAP1 PUSH2 0x17E SWAP2 SWAP1 PUSH2 0xCD6 JUMP JUMPDEST PUSH2 0x5C9 JUMP JUMPDEST STOP JUMPDEST PUSH2 0x18D PUSH2 0x70A JUMP JUMPDEST PUSH0 PUSH0 SWAP1 POP JUMPDEST PUSH1 0x2 DUP1 SLOAD SWAP1 POP DUP2 LT ISZERO PUSH2 0x2F7 JUMPI DUP3 PUSH1 0x2 DUP3 DUP2 SLOAD DUP2 LT PUSH2 0x1B4 JUMPI PUSH2 0x1B3 PUSH2 0xD30 JUMP JUMPDEST JUMPDEST SWAP1 PUSH0 MSTORE PUSH1 0x20 PUSH0 KECCAK256 SWAP1 PUSH1 0x3 MUL ADD PUSH1 0x1 ADD SLOAD SUB PUSH2 0x2EA JUMPI PUSH1 0x2 DUP2 DUP2 SLOAD DUP2 LT PUSH2 0x1DD JUMPI PUSH2 0x1DC PUSH2 0xD30 JUMP JUMPDEST JUMPDEST SWAP1 PUSH0 MSTORE PUSH1 0x20 PUSH0 KECCAK256 SWAP1 PUSH1 0x3 MUL ADD PUSH1 0x40 MLOAD DUP1 PUSH1 0x60 ADD PUSH1 0x40 MSTORE SWAP1 DUP2 PUSH0 DUP3 ADD DUP1 SLOAD PUSH2 0x203 SWAP1 PUSH2 0xD8A JUMP JUMPDEST DUP1 PUSH1 0x1F ADD PUSH1 0x20 DUP1 SWAP2 DIV MUL PUSH1 0x20 ADD PUSH1 0x40 MLOAD SWAP1 DUP2 ADD PUSH1 0x40 MSTORE DUP1 SWAP3 SWAP2 SWAP1 DUP2 DUP2 MSTORE PUSH1 0x20 ADD DUP3 DUP1 SLOAD PUSH2 0x22F SWAP1 PUSH2 0xD8A JUMP JUMPDEST DUP1 ISZERO PUSH2 0x27A JUMPI DUP1 PUSH1 0x1F LT PUSH2 0x251 JUMPI PUSH2 0x100 DUP1 DUP4 SLOAD DIV MUL DUP4 MSTORE SWAP2 PUSH1 0x20 ADD SWAP2 PUSH2 0x27A JUMP JUMPDEST DUP3 ADD SWAP2 SWAP1 PUSH0 MSTORE PUSH1 0x20 PUSH0 KECCAK256 SWAP1 JUMPDEST DUP2 SLOAD DUP2 MSTORE SWAP1 PUSH1 0x1 ADD SWAP1 PUSH1 0x20 ADD DUP1 DUP4 GT PUSH2 0x25D JUMPI DUP3 SWAP1 SUB PUSH1 0x1F AND DUP3 ADD SWAP2 JUMPDEST POP POP POP POP POP DUP2 MSTORE PUSH1 0x20 ADD PUSH1 0x1 DUP3 ADD SLOAD DUP2 MSTORE PUSH1 0x20 ADD PUSH1 0x2 DUP3 ADD PUSH0 SWAP1 SLOAD SWAP1 PUSH2 0x100 EXP SWAP1 DIV PUSH20 0xFFFFFFFFFFFFFFFFFFFFFFFFFFFFFFFFFFFFFFFF AND PUSH20 0xFFFFFFFFFFFFFFFFFFFFFFFFFFFFFFFFFFFFFFFF AND PUSH20 0xFFFFFFFFFFFFFFFFFFFFFFFFFFFFFFFFFFFFFFFF AND DUP2 MSTORE POP POP SWAP2 POP POP PUSH2 0x2F9 JUMP JUMPDEST DUP1 DUP1 PUSH1 0x1 ADD SWAP2 POP POP PUSH2 0x192 JUMP JUMPDEST POP JUMPDEST SWAP2 SWAP1 POP JUMP JUMPDEST PUSH1 0x60 PUSH0 DUP1 SLOAD PUSH2 0x30C SWAP1 PUSH2 0xD8A JUMP JUMPDEST DUP1 PUSH1 0x1F ADD PUSH1 0x20 DUP1 SWAP2 DIV MUL PUSH1 0x20 ADD PUSH1 0x40 MLOAD SWAP1 DUP2 ADD PUSH1 0x40 MSTORE DUP1 SWAP3 SWAP2 SWAP1 DUP2 DUP2 MSTORE PUSH1 0x20 ADD DUP3 DUP1 SLOAD PUSH2 0x338 SWAP1 PUSH2 0xD8A JUMP JUMPDEST DUP1 ISZERO PUSH2 0x383 JUMPI DUP1 PUSH1 0x1F LT PUSH2 0x35A JUMPI PUSH2 0x100 DUP1 DUP4 SLOAD DIV MUL DUP4 MSTORE SWAP2 PUSH1 0x20 ADD SWAP2 PUSH2 0x383 JUMP JUMPDEST DUP3 ADD SWAP2 SWAP1 PUSH0 MSTORE PUSH1 0x20 PUSH0 KECCAK256 SWAP1 JUMPDEST DUP2 SLOAD DUP2 MSTORE SWAP1 PUSH1 0x1 ADD SWAP1 PUSH1 0x20 ADD DUP1 DUP4 GT PUSH2 0x366 JUMPI DUP3 SWAP1 SUB PUSH1 0x1F AND DUP3 ADD SWAP2 JUMPDEST POP POP POP POP POP SWAP1 POP SWAP1 JUMP JUMPDEST PUSH1 0x3 PUSH1 0x20 MSTORE DUP1 PUSH0 MSTORE PUSH1 0x40 PUSH0 KECCAK256 PUSH0 SWAP2 POP SWAP1 POP DUP1 PUSH0 ADD DUP1 SLOAD PUSH2 0x3AC SWAP1 PUSH2 0xD8A JUMP JUMPDEST DUP1 PUSH1 0x1F ADD PUSH1 0x20 DUP1 SWAP2 DIV MUL PUSH1 0x20 ADD PUSH1 0x40 MLOAD SWAP1 DUP2 ADD PUSH1 0x40 MSTORE DUP1 SWAP3 SWAP2 SWAP1 DUP2 DUP2 MSTORE PUSH1 0x20 ADD DUP3 DUP1 SLOAD PUSH2 0x3D8 SWAP1 PUSH2 0xD8A JUMP JUMPDEST DUP1 ISZERO PUSH2 0x423 JUMPI DUP1 PUSH1 0x1F LT PUSH2 0x3FA JUMPI PUSH2 0x100 DUP1 DUP4 SLOAD DIV MUL DUP4 MSTORE SWAP2 PUSH1 0x20 ADD SWAP2 PUSH2 0x423 JUMP JUMPDEST DUP3 ADD SWAP2 SWAP1 PUSH0 MSTORE PUSH1 0x20 PUSH0 KECCAK256 SWAP1 JUMPDEST DUP2 SLOAD DUP2 MSTORE SWAP1 PUSH1 0x1 ADD SWAP1 PUSH1 0x20 ADD DUP1 DUP4 GT PUSH2 0x406 JUMPI DUP3 SWAP1 SUB PUSH1 0x1F AND DUP3 ADD SWAP2 JUMPDEST POP POP POP POP POP SWAP1 DUP1 PUSH1 0x1 ADD SLOAD SWAP1 DUP1 PUSH1 0x2 ADD PUSH0 SWAP1 SLOAD SWAP1 PUSH2 0x100 EXP SWAP1 DIV PUSH20 0xFFFFFFFFFFFFFFFFFFFFFFFFFFFFFFFFFFFFFFFF AND SWAP1 POP DUP4 JUMP JUMPDEST PUSH0 PUSH1 0xA DUP3 PUSH2 0x466 SWAP2 SWAP1 PUSH2 0xDE7 JUMP JUMPDEST SWAP1 POP SWAP2 SWAP1 POP JUMP JUMPDEST DUP1 PUSH0 SWAP1 DUP2 PUSH2 0x47B SWAP2 SWAP1 PUSH2 0xFC8 JUMP JUMPDEST POP POP JUMP JUMPDEST PUSH1 0x60 PUSH1 0x2 DUP1 SLOAD DUP1 PUSH1 0x20 MUL PUSH1 0x20 ADD PUSH1 0x40 MLOAD SWAP1 DUP2 ADD PUSH1 0x40 MSTORE DUP1 SWAP3 SWAP2 SWAP1 DUP2 DUP2 MSTORE PUSH1 0x20 ADD PUSH0 SWAP1 JUMPDEST DUP3 DUP3 LT ISZERO PUSH2 0x5C0 JUMPI DUP4 DUP3 SWAP1 PUSH0 MSTORE PUSH1 0x20 PUSH0 KECCAK256 SWAP1 PUSH1 0x3 MUL ADD PUSH1 0x40 MLOAD DUP1 PUSH1 0x60 ADD PUSH1 0x40 MSTORE SWAP1 DUP2 PUSH0 DUP3 ADD DUP1 SLOAD PUSH2 0x4D2 SWAP1 PUSH2 0xD8A JUMP JUMPDEST DUP1 PUSH1 0x1F ADD PUSH1 0x20 DUP1 SWAP2 DIV MUL PUSH1 0x20 ADD PUSH1 0x40 MLOAD SWAP1 DUP2 ADD PUSH1 0x40 MSTORE DUP1 SWAP3 SWAP2 SWAP1 DUP2 DUP2 MSTORE PUSH1 0x20 ADD DUP3 DUP1 SLOAD PUSH2 0x4FE SWAP1 PUSH2 0xD8A JUMP JUMPDEST DUP1 ISZERO PUSH2 0x549 JUMPI DUP1 PUSH1 0x1F LT PUSH2 0x520 JUMPI PUSH2 0x100 DUP1 DUP4 SLOAD DIV MUL DUP4 MSTORE SWAP2 PUSH1 0x20 ADD SWAP2 PUSH2 0x549 JUMP JUMPDEST DUP3 ADD SWAP2 SWAP1 PUSH0 MSTORE PUSH1 0x20 PUSH0 KECCAK256 SWAP1 JUMPDEST DUP2 SLOAD DUP2 MSTORE SWAP1 PUSH1 0x1 ADD SWAP1 PUSH1 0x20 ADD DUP1 DUP4 GT PUSH2 0x52C JUMPI DUP3 SWAP1 SUB PUSH1 0x1F AND DUP3 ADD SWAP2 JUMPDEST POP POP POP POP POP DUP2 MSTORE PUSH1 0x20 ADD PUSH1 0x1 DUP3 ADD SLOAD DUP2 MSTORE PUSH1 0x20 ADD PUSH1 0x2 DUP3 ADD PUSH0 SWAP1 SLOAD SWAP1 PUSH2 0x100 EXP SWAP1 DIV PUSH20 0xFFFFFFFFFFFFFFFFFFFFFFFFFFFFFFFFFFFFFFFF AND PUSH20 0xFFFFFFFFFFFFFFFFFFFFFFFFFFFFFFFFFFFFFFFF AND PUSH20 0xFFFFFFFFFFFFFFFFFFFFFFFFFFFFFFFFFFFFFFFF AND DUP2 MSTORE POP POP DUP2 MSTORE PUSH1 0x20 ADD SWAP1 PUSH1 0x1 ADD SWAP1 PUSH2 0x4A2 JUMP JUMPDEST POP POP POP POP SWAP1 POP SWAP1 JUMP JUMPDEST PUSH0 PUSH1 0x40 MLOAD DUP1 PUSH1 0x60 ADD PUSH1 0x40 MSTORE DUP1 DUP5 DUP2 MSTORE PUSH1 0x20 ADD DUP4 DUP2 MSTORE PUSH1 0x20 ADD CALLER PUSH20 0xFFFFFFFFFFFFFFFFFFFFFFFFFFFFFFFFFFFFFFFF AND DUP2 MSTORE POP SWAP1 POP PUSH1 0x2 DUP2 SWAP1 DUP1 PUSH1 0x1 DUP2 SLOAD ADD DUP1 DUP3 SSTORE DUP1 SWAP2 POP POP PUSH1 0x1 SWAP1 SUB SWAP1 PUSH0 MSTORE PUSH1 0x20 PUSH0 KECCAK256 SWAP1 PUSH1 0x3 MUL ADD PUSH0 SWAP1 SWAP2 SWAP1 SWAP2 SWAP1 SWAP2 POP PUSH0 DUP3 ADD MLOAD DUP2 PUSH0 ADD SWAP1 DUP2 PUSH2 0x639 SWAP2 SWAP1 PUSH2 0xFC8 JUMP JUMPDEST POP PUSH1 0x20 DUP3 ADD MLOAD DUP2 PUSH1 0x1 ADD SSTORE PUSH1 0x40 DUP3 ADD MLOAD DUP2 PUSH1 0x2 ADD PUSH0 PUSH2 0x100 EXP DUP2 SLOAD DUP2 PUSH20 0xFFFFFFFFFFFFFFFFFFFFFFFFFFFFFFFFFFFFFFFF MUL NOT AND SWAP1 DUP4 PUSH20 0xFFFFFFFFFFFFFFFFFFFFFFFFFFFFFFFFFFFFFFFF AND MUL OR SWAP1 SSTORE POP POP POP DUP1 PUSH1 0x3 PUSH0 DUP5 DUP2 MSTORE PUSH1 0x20 ADD SWAP1 DUP2 MSTORE PUSH1 0x20 ADD PUSH0 KECCAK256 PUSH0 DUP3 ADD MLOAD DUP2 PUSH0 ADD SWAP1 DUP2 PUSH2 0x6B1 SWAP2 SWAP1 PUSH2 0xFC8 JUMP JUMPDEST POP PUSH1 0x20 DUP3 ADD MLOAD DUP2 PUSH1 0x1 ADD SSTORE PUSH1 0x40 DUP3 ADD MLOAD DUP2 PUSH1 0x2 ADD PUSH0 PUSH2 0x100 EXP DUP2 SLOAD DUP2 PUSH20 0xFFFFFFFFFFFFFFFFFFFFFFFFFFFFFFFFFFFFFFFF MUL NOT AND SWAP1 DUP4 PUSH20 0xFFFFFFFFFFFFFFFFFFFFFFFFFFFFFFFFFFFFFFFF AND MUL OR SWAP1 SSTORE POP SWAP1 POP POP POP POP POP JUMP JUMPDEST PUSH1 0x40 MLOAD DUP1 PUSH1 0x60 ADD PUSH1 0x40 MSTORE DUP1 PUSH1 0x60 DUP2 MSTORE PUSH1 0x20 ADD PUSH0 DUP2 MSTORE PUSH1 0x20 ADD PUSH0 PUSH20 0xFFFFFFFFFFFFFFFFFFFFFFFFFFFFFFFFFFFFFFFF AND DUP2 MSTORE POP SWAP1 JUMP JUMPDEST PUSH0 PUSH1 0x40 MLOAD SWAP1 POP SWAP1 JUMP JUMPDEST PUSH0 PUSH0 REVERT JUMPDEST PUSH0 PUSH0 REVERT JUMPDEST PUSH0 DUP2 SWAP1 POP SWAP2 SWAP1 POP JUMP JUMPDEST PUSH2 0x762 DUP2 PUSH2 0x750 JUMP JUMPDEST DUP2 EQ PUSH2 0x76C JUMPI PUSH0 PUSH0 REVERT JUMPDEST POP JUMP JUMPDEST PUSH0 DUP2 CALLDATALOAD SWAP1 POP PUSH2 0x77D DUP2 PUSH2 0x759 JUMP JUMPDEST SWAP3 SWAP2 POP POP JUMP JUMPDEST PUSH0 PUSH1 0x20 DUP3 DUP5 SUB SLT ISZERO PUSH2 0x798 JUMPI PUSH2 0x797 PUSH2 0x748 JUMP JUMPDEST JUMPDEST PUSH0 PUSH2 0x7A5 DUP5 DUP3 DUP6 ADD PUSH2 0x76F JUMP JUMPDEST SWAP2 POP POP SWAP3 SWAP2 POP POP JUMP JUMPDEST PUSH0 DUP2 MLOAD SWAP1 POP SWAP2 SWAP1 POP JUMP JUMPDEST PUSH0 DUP3 DUP3 MSTORE PUSH1 0x20 DUP3 ADD SWAP1 POP SWAP3 SWAP2 POP POP JUMP JUMPDEST PUSH0 JUMPDEST DUP4 DUP2 LT ISZERO PUSH2 0x7E5 JUMPI DUP1 DUP3 ADD MLOAD DUP2 DUP5 ADD MSTORE PUSH1 0x20 DUP2 ADD SWAP1 POP PUSH2 0x7CA JUMP JUMPDEST PUSH0 DUP5 DUP5 ADD MSTORE POP POP POP POP JUMP JUMPDEST PUSH0 PUSH1 0x1F NOT PUSH1 0x1F DUP4 ADD AND SWAP1 POP SWAP2 SWAP1 POP JUMP JUMPDEST PUSH0 PUSH2 0x80A DUP3 PUSH2 0x7AE JUMP JUMPDEST PUSH2 0x814 DUP2 DUP6 PUSH2 0x7B8 JUMP JUMPDEST SWAP4 POP PUSH2 0x824 DUP2 DUP6 PUSH1 0x20 DUP7 ADD PUSH2 0x7C8 JUMP JUMPDEST PUSH2 0x82D DUP2 PUSH2 0x7F0 JUMP JUMPDEST DUP5 ADD SWAP2 POP POP SWAP3 SWAP2 POP POP JUMP JUMPDEST PUSH2 0x841 DUP2 PUSH2 0x750 JUMP JUMPDEST DUP3 MSTORE POP POP JUMP JUMPDEST PUSH0 PUSH20 0xFFFFFFFFFFFFFFFFFFFFFFFFFFFFFFFFFFFFFFFF DUP3 AND SWAP1 POP SWAP2 SWAP1 POP JUMP JUMPDEST PUSH0 PUSH2 0x870 DUP3 PUSH2 0x847 JUMP JUMPDEST SWAP1 POP SWAP2 SWAP1 POP JUMP JUMPDEST PUSH2 0x880 DUP2 PUSH2 0x866 JUMP JUMPDEST DUP3 MSTORE POP POP JUMP JUMPDEST PUSH0 PUSH1 0x60 DUP4 ADD PUSH0 DUP4 ADD MLOAD DUP5 DUP3 SUB PUSH0 DUP7 ADD MSTORE PUSH2 0x8A0 DUP3 DUP3 PUSH2 0x800 JUMP JUMPDEST SWAP2 POP POP PUSH1 0x20 DUP4 ADD MLOAD PUSH2 0x8B5 PUSH1 0x20 DUP7 ADD DUP3 PUSH2 0x838 JUMP JUMPDEST POP PUSH1 0x40 DUP4 ADD MLOAD PUSH2 0x8C8 PUSH1 0x40 DUP7 ADD DUP3 PUSH2 0x877 JUMP JUMPDEST POP DUP1 SWAP2 POP POP SWAP3 SWAP2 POP POP JUMP JUMPDEST PUSH0 PUSH1 0x20 DUP3 ADD SWAP1 POP DUP2 DUP2 SUB PUSH0 DUP4 ADD MSTORE PUSH2 0x8EB DUP2 DUP5 PUSH2 0x886 JUMP JUMPDEST SWAP1 POP SWAP3 SWAP2 POP POP JUMP JUMPDEST PUSH0 DUP3 DUP3 MSTORE PUSH1 0x20 DUP3 ADD SWAP1 POP SWAP3 SWAP2 POP POP JUMP JUMPDEST PUSH0 PUSH2 0x90D DUP3 PUSH2 0x7AE JUMP JUMPDEST PUSH2 0x917 DUP2 DUP6 PUSH2 0x8F3 JUMP JUMPDEST SWAP4 POP PUSH2 0x927 DUP2 DUP6 PUSH1 0x20 DUP7 ADD PUSH2 0x7C8 JUMP JUMPDEST PUSH2 0x930 DUP2 PUSH2 0x7F0 JUMP JUMPDEST DUP5 ADD SWAP2 POP POP SWAP3 SWAP2 POP POP JUMP JUMPDEST PUSH0 PUSH1 0x20 DUP3 ADD SWAP1 POP DUP2 DUP2 SUB PUSH0 DUP4 ADD MSTORE PUSH2 0x953 DUP2 DUP5 PUSH2 0x903 JUMP JUMPDEST SWAP1 POP SWAP3 SWAP2 POP POP JUMP JUMPDEST PUSH2 0x964 DUP2 PUSH2 0x750 JUMP JUMPDEST DUP3 MSTORE POP POP JUMP JUMPDEST PUSH2 0x973 DUP2 PUSH2 0x866 JUMP JUMPDEST DUP3 MSTORE POP POP JUMP JUMPDEST PUSH0 PUSH1 0x60 DUP3 ADD SWAP1 POP DUP2 DUP2 SUB PUSH0 DUP4 ADD MSTORE PUSH2 0x991 DUP2 DUP7 PUSH2 0x903 JUMP JUMPDEST SWAP1 POP PUSH2 0x9A0 PUSH1 0x20 DUP4 ADD DUP6 PUSH2 0x95B JUMP JUMPDEST PUSH2 0x9AD PUSH1 0x40 DUP4 ADD DUP5 PUSH2 0x96A JUMP JUMPDEST SWAP5 SWAP4 POP POP POP POP JUMP JUMPDEST PUSH0 DUP2 SWAP1 POP SWAP2 SWAP1 POP JUMP JUMPDEST PUSH2 0x9C7 DUP2 PUSH2 0x9B5 JUMP JUMPDEST DUP2 EQ PUSH2 0x9D1 JUMPI PUSH0 PUSH0 REVERT JUMPDEST POP JUMP JUMPDEST PUSH0 DUP2 CALLDATALOAD SWAP1 POP PUSH2 0x9E2 DUP2 PUSH2 0x9BE JUMP JUMPDEST SWAP3 SWAP2 POP POP JUMP JUMPDEST PUSH0 PUSH1 0x20 DUP3 DUP5 SUB SLT ISZERO PUSH2 0x9FD JUMPI PUSH2 0x9FC PUSH2 0x748 JUMP JUMPDEST JUMPDEST PUSH0 PUSH2 0xA0A DUP5 DUP3 DUP6 ADD PUSH2 0x9D4 JUMP JUMPDEST SWAP2 POP POP SWAP3 SWAP2 POP POP JUMP JUMPDEST PUSH2 0xA1C DUP2 PUSH2 0x9B5 JUMP JUMPDEST DUP3 MSTORE POP POP JUMP JUMPDEST PUSH0 PUSH1 0x20 DUP3 ADD SWAP1 POP PUSH2 0xA35 PUSH0 DUP4 ADD DUP5 PUSH2 0xA13 JUMP JUMPDEST SWAP3 SWAP2 POP POP JUMP JUMPDEST PUSH0 PUSH0 REVERT JUMPDEST PUSH0 PUSH0 REVERT JUMPDEST PUSH32 0x4E487B7100000000000000000000000000000000000000000000000000000000 PUSH0 MSTORE PUSH1 0x41 PUSH1 0x4 MSTORE PUSH1 0x24 PUSH0 REVERT JUMPDEST PUSH2 0xA79 DUP3 PUSH2 0x7F0 JUMP JUMPDEST DUP2 ADD DUP2 DUP2 LT PUSH8 0xFFFFFFFFFFFFFFFF DUP3 GT OR ISZERO PUSH2 0xA98 JUMPI PUSH2 0xA97 PUSH2 0xA43 JUMP JUMPDEST JUMPDEST DUP1 PUSH1 0x40 MSTORE POP POP POP JUMP JUMPDEST PUSH0 PUSH2 0xAAA PUSH2 0x73F JUMP JUMPDEST SWAP1 POP PUSH2 0xAB6 DUP3 DUP3 PUSH2 0xA70 JUMP JUMPDEST SWAP2 SWAP1 POP JUMP JUMPDEST PUSH0 PUSH8 0xFFFFFFFFFFFFFFFF DUP3 GT ISZERO PUSH2 0xAD5 JUMPI PUSH2 0xAD4 PUSH2 0xA43 JUMP JUMPDEST JUMPDEST PUSH2 0xADE DUP3 PUSH2 0x7F0 JUMP JUMPDEST SWAP1 POP PUSH1 0x20 DUP2 ADD SWAP1 POP SWAP2 SWAP1 POP JUMP JUMPDEST DUP3 DUP2 DUP4 CALLDATACOPY PUSH0 DUP4 DUP4 ADD MSTORE POP POP POP JUMP JUMPDEST PUSH0 PUSH2 0xB0B PUSH2 0xB06 DUP5 PUSH2 0xABB JUMP JUMPDEST PUSH2 0xAA1 JUMP JUMPDEST SWAP1 POP DUP3 DUP2 MSTORE PUSH1 0x20 DUP2 ADD DUP5 DUP5 DUP5 ADD GT ISZERO PUSH2 0xB27 JUMPI PUSH2 0xB26 PUSH2 0xA3F JUMP JUMPDEST JUMPDEST PUSH2 0xB32 DUP5 DUP3 DUP6 PUSH2 0xAEB JUMP JUMPDEST POP SWAP4 SWAP3 POP POP POP JUMP JUMPDEST PUSH0 DUP3 PUSH1 0x1F DUP4 ADD SLT PUSH2 0xB4E JUMPI PUSH2 0xB4D PUSH2 0xA3B JUMP JUMPDEST JUMPDEST DUP2 CALLDATALOAD PUSH2 0xB5E DUP5 DUP3 PUSH1 0x20 DUP7 ADD PUSH2 0xAF9 JUMP JUMPDEST SWAP2 POP POP SWAP3 SWAP2 POP POP JUMP JUMPDEST PUSH0 PUSH1 0x20 DUP3 DUP5 SUB SLT ISZERO PUSH2 0xB7C JUMPI PUSH2 0xB7B PUSH2 0x748 JUMP JUMPDEST JUMPDEST PUSH0 DUP3 ADD CALLDATALOAD PUSH8 0xFFFFFFFFFFFFFFFF DUP2 GT ISZERO PUSH2 0xB99 JUMPI PUSH2 0xB98 PUSH2 0x74C JUMP JUMPDEST JUMPDEST PUSH2 0xBA5 DUP5 DUP3 DUP6 ADD PUSH2 0xB3A JUMP JUMPDEST SWAP2 POP POP SWAP3 SWAP2 POP POP JUMP JUMPDEST PUSH0 DUP2 MLOAD SWAP1 POP SWAP2 SWAP1 POP JUMP JUMPDEST PUSH0 DUP3 DUP3 MSTORE PUSH1 0x20 DUP3 ADD SWAP1 POP SWAP3 SWAP2 POP POP JUMP JUMPDEST PUSH0 DUP2 SWAP1 POP PUSH1 0x20 DUP3 ADD SWAP1 POP SWAP2 SWAP1 POP JUMP JUMPDEST PUSH0 PUSH1 0x60 DUP4 ADD PUSH0 DUP4 ADD MLOAD DUP5 DUP3 SUB PUSH0 DUP7 ADD MSTORE PUSH2 0xBF1 DUP3 DUP3 PUSH2 0x800 JUMP JUMPDEST SWAP2 POP POP PUSH1 0x20 DUP4 ADD MLOAD PUSH2 0xC06 PUSH1 0x20 DUP7 ADD DUP3 PUSH2 0x838 JUMP JUMPDEST POP PUSH1 0x40 DUP4 ADD MLOAD PUSH2 0xC19 PUSH1 0x40 DUP7 ADD DUP3 PUSH2 0x877 JUMP JUMPDEST POP DUP1 SWAP2 POP POP SWAP3 SWAP2 POP POP JUMP JUMPDEST PUSH0 PUSH2 0xC2F DUP4 DUP4 PUSH2 0xBD7 JUMP JUMPDEST SWAP1 POP SWAP3 SWAP2 POP POP JUMP JUMPDEST PUSH0 PUSH1 0x20 DUP3 ADD SWAP1 POP SWAP2 SWAP1 POP JUMP JUMPDEST PUSH0 PUSH2 0xC4D DUP3 PUSH2 0xBAE JUMP JUMPDEST PUSH2 0xC57 DUP2 DUP6 PUSH2 0xBB8 JUMP JUMPDEST SWAP4 POP DUP4 PUSH1 0x20 DUP3 MUL DUP6 ADD PUSH2 0xC69 DUP6 PUSH2 0xBC8 JUMP JUMPDEST DUP1 PUSH0 JUMPDEST DUP6 DUP2 LT ISZERO PUSH2 0xCA4 JUMPI DUP5 DUP5 SUB DUP10 MSTORE DUP2 MLOAD PUSH2 0xC85 DUP6 DUP3 PUSH2 0xC24 JUMP JUMPDEST SWAP5 POP PUSH2 0xC90 DUP4 PUSH2 0xC37 JUMP JUMPDEST SWAP3 POP PUSH1 0x20 DUP11 ADD SWAP10 POP POP PUSH1 0x1 DUP2 ADD SWAP1 POP PUSH2 0xC6C JUMP JUMPDEST POP DUP3 SWAP8 POP DUP8 SWAP6 POP POP POP POP POP POP SWAP3 SWAP2 POP POP JUMP JUMPDEST PUSH0 PUSH1 0x20 DUP3 ADD SWAP1 POP DUP2 DUP2 SUB PUSH0 DUP4 ADD MSTORE PUSH2 0xCCE DUP2 DUP5 PUSH2 0xC43 JUMP JUMPDEST SWAP1 POP SWAP3 SWAP2 POP POP JUMP JUMPDEST PUSH0 PUSH0 PUSH1 0x40 DUP4 DUP6 SUB SLT ISZERO PUSH2 0xCEC JUMPI PUSH2 0xCEB PUSH2 0x748 JUMP JUMPDEST JUMPDEST PUSH0 DUP4 ADD CALLDATALOAD PUSH8 0xFFFFFFFFFFFFFFFF DUP2 GT ISZERO PUSH2 0xD09 JUMPI PUSH2 0xD08 PUSH2 0x74C JUMP JUMPDEST JUMPDEST PUSH2 0xD15 DUP6 DUP3 DUP7 ADD PUSH2 0xB3A JUMP JUMPDEST SWAP3 POP POP PUSH1 0x20 PUSH2 0xD26 DUP6 DUP3 DUP7 ADD PUSH2 0x76F JUMP JUMPDEST SWAP2 POP POP SWAP3 POP SWAP3 SWAP1 POP JUMP JUMPDEST PUSH32 0x4E487B7100000000000000000000000000000000000000000000000000000000 PUSH0 MSTORE PUSH1 0x32 PUSH1 0x4 MSTORE PUSH1 0x24 PUSH0 REVERT JUMPDEST PUSH32 0x4E487B7100000000000000000000000000000000000000000000000000000000 PUSH0 MSTORE PUSH1 0x22 PUSH1 0x4 MSTORE PUSH1 0x24 PUSH0 REVERT JUMPDEST PUSH0 PUSH1 0x2 DUP3 DIV SWAP1 POP PUSH1 0x1 DUP3 AND DUP1 PUSH2 0xDA1 JUMPI PUSH1 0x7F DUP3 AND SWAP2 POP JUMPDEST PUSH1 0x20 DUP3 LT DUP2 SUB PUSH2 0xDB4 JUMPI PUSH2 0xDB3 PUSH2 0xD5D JUMP JUMPDEST JUMPDEST POP SWAP2 SWAP1 POP JUMP JUMPDEST PUSH32 0x4E487B7100000000000000000000000000000000000000000000000000000000 PUSH0 MSTORE PUSH1 0x11 PUSH1 0x4 MSTORE PUSH1 0x24 PUSH0 REVERT JUMPDEST PUSH0 PUSH2 0xDF1 DUP3 PUSH2 0x9B5 JUMP JUMPDEST SWAP2 POP PUSH2 0xDFC DUP4 PUSH2 0x9B5 JUMP JUMPDEST SWAP3 POP DUP3 DUP3 ADD SWAP1 POP DUP3 DUP2 SLT ISZERO PUSH0 DUP4 SLT AND DUP4 DUP3 SLT PUSH0 DUP5 SLT ISZERO AND OR ISZERO PUSH2 0xE22 JUMPI PUSH2 0xE21 PUSH2 0xDBA JUMP JUMPDEST JUMPDEST SWAP3 SWAP2 POP POP JUMP JUMPDEST PUSH0 DUP2 SWAP1 POP DUP2 PUSH0 MSTORE PUSH1 0x20 PUSH0 KECCAK256 SWAP1 POP SWAP2 SWAP1 POP JUMP JUMPDEST PUSH0 PUSH1 0x20 PUSH1 0x1F DUP4 ADD DIV SWAP1 POP SWAP2 SWAP1 POP JUMP JUMPDEST PUSH0 DUP3 DUP3 SHL SWAP1 POP SWAP3 SWAP2 POP POP JUMP JUMPDEST PUSH0 PUSH1 0x8 DUP4 MUL PUSH2 0xE84 PUSH32 0xFFFFFFFFFFFFFFFFFFFFFFFFFFFFFFFFFFFFFFFFFFFFFFFFFFFFFFFFFFFFFFFF DUP3 PUSH2 0xE49 JUMP JUMPDEST PUSH2 0xE8E DUP7 DUP4 PUSH2 0xE49 JUMP JUMPDEST SWAP6 POP DUP1 NOT DUP5 AND SWAP4 POP DUP1 DUP7 AND DUP5 OR SWAP3 POP POP POP SWAP4 SWAP3 POP POP POP JUMP JUMPDEST PUSH0 DUP2 SWAP1 POP SWAP2 SWAP1 POP JUMP JUMPDEST PUSH0 PUSH2 0xEC9 PUSH2 0xEC4 PUSH2 0xEBF DUP5 PUSH2 0x750 JUMP JUMPDEST PUSH2 0xEA6 JUMP JUMPDEST PUSH2 0x750 JUMP JUMPDEST SWAP1 POP SWAP2 SWAP1 POP JUMP JUMPDEST PUSH0 DUP2 SWAP1 POP SWAP2 SWAP1 POP JUMP JUMPDEST PUSH2 0xEE2 DUP4 PUSH2 0xEAF JUMP JUMPDEST PUSH2 0xEF6 PUSH2 0xEEE DUP3 PUSH2 0xED0 JUMP JUMPDEST DUP5 DUP5 SLOAD PUSH2 0xE55 JUMP JUMPDEST DUP3 SSTORE POP POP POP POP JUMP JUMPDEST PUSH0 PUSH0 SWAP1 POP SWAP1 JUMP JUMPDEST PUSH2 0xF0D PUSH2 0xEFE JUMP JUMPDEST PUSH2 0xF18 DUP2 DUP5 DUP5 PUSH2 0xED9 JUMP JUMPDEST POP POP POP JUMP JUMPDEST JUMPDEST DUP2 DUP2 LT ISZERO PUSH2 0xF3B JUMPI PUSH2 0xF30 PUSH0 DUP3 PUSH2 0xF05 JUMP JUMPDEST PUSH1 0x1 DUP2 ADD SWAP1 POP PUSH2 0xF1E JUMP JUMPDEST POP POP JUMP JUMPDEST PUSH1 0x1F DUP3 GT ISZERO PUSH2 0xF80 JUMPI PUSH2 0xF51 DUP2 PUSH2 0xE28 JUMP JUMPDEST PUSH2 0xF5A DUP5 PUSH2 0xE3A JUMP JUMPDEST DUP2 ADD PUSH1 0x20 DUP6 LT ISZERO PUSH2 0xF69 JUMPI DUP2 SWAP1 POP JUMPDEST PUSH2 0xF7D PUSH2 0xF75 DUP6 PUSH2 0xE3A JUMP JUMPDEST DUP4 ADD DUP3 PUSH2 0xF1D JUMP JUMPDEST POP POP JUMPDEST POP POP POP JUMP JUMPDEST PUSH0 DUP3 DUP3 SHR SWAP1 POP SWAP3 SWAP2 POP POP JUMP JUMPDEST PUSH0 PUSH2 0xFA0 PUSH0 NOT DUP5 PUSH1 0x8 MUL PUSH2 0xF85 JUMP JUMPDEST NOT DUP1 DUP4 AND SWAP2 POP POP SWAP3 SWAP2 POP POP JUMP JUMPDEST PUSH0 PUSH2 0xFB8 DUP4 DUP4 PUSH2 0xF91 JUMP JUMPDEST SWAP2 POP DUP3 PUSH1 0x2 MUL DUP3 OR SWAP1 POP SWAP3 SWAP2 POP POP JUMP JUMPDEST PUSH2 0xFD1 DUP3 PUSH2 0x7AE JUMP JUMPDEST PUSH8 0xFFFFFFFFFFFFFFFF DUP2 GT ISZERO PUSH2 0xFEA JUMPI PUSH2 0xFE9 PUSH2 0xA43 JUMP JUMPDEST JUMPDEST PUSH2 0xFF4 DUP3 SLOAD PUSH2 0xD8A JUMP JUMPDEST PUSH2 0xFFF DUP3 DUP3 DUP6 PUSH2 0xF3F JUMP JUMPDEST PUSH0 PUSH1 0x20 SWAP1 POP PUSH1 0x1F DUP4 GT PUSH1 0x1 DUP2 EQ PUSH2 0x1030 JUMPI PUSH0 DUP5 ISZERO PUSH2 0x101E JUMPI DUP3 DUP8 ADD MLOAD SWAP1 POP JUMPDEST PUSH2 0x1028 DUP6 DUP3 PUSH2 0xFAD JUMP JUMPDEST DUP7 SSTORE POP PUSH2 0x108F JUMP JUMPDEST PUSH1 0x1F NOT DUP5 AND PUSH2 0x103E DUP7 PUSH2 0xE28 JUMP JUMPDEST PUSH0 JUMPDEST DUP3 DUP2 LT ISZERO PUSH2 0x1065 JUMPI DUP5 DUP10 ADD MLOAD DUP3 SSTORE PUSH1 0x1 DUP3 ADD SWAP2 POP PUSH1 0x20 DUP6 ADD SWAP5 POP PUSH1 0x20 DUP2 ADD SWAP1 POP PUSH2 0x1040 JUMP JUMPDEST DUP7 DUP4 LT ISZERO PUSH2 0x1082 JUMPI DUP5 DUP10 ADD MLOAD PUSH2 0x107E PUSH1 0x1F DUP10 AND DUP3 PUSH2 0xF91 JUMP JUMPDEST DUP4 SSTORE POP JUMPDEST PUSH1 0x1 PUSH1 0x2 DUP9 MUL ADD DUP9 SSTORE POP POP POP JUMPDEST POP POP POP POP POP POP JUMP INVALID LOG2 PUSH5 0x6970667358 0x22 SLT KECCAK256 0xD3 LOG2 0x2D RETF CODECOPY AND DELEGATECALL POP 0x4C 0x4D CALL SWAP11 0x2C PUSH15 0x62C7FBCC53E48B20B3EE202BD9A865 SIGNEXTEND JUMP BLOBBASEFEE PUSH5 0x736F6C6343 STOP ADDMOD 0x1E STOP CALLER "
				},
				"gasEstimates": {
					"creation": {
						"codeDepositCost": "860200",
						"executionCost": "infinite",
						"totalCost": "infinite"
					},
					"external": {
						"addInfo(string,uint256)": "infinite",
						"getAllInfo()": "infinite",
						"getInfo(uint256)": "infinite",
						"getSum(int256)": "infinite",
						"getValue()": "infinite",
						"infoMap(uint256)": "infinite",
						"setValue(string)": "infinite"
					}
				},
				"methodIdentifiers": {
					"addInfo(string,uint256)": "cd6bc3dd",
					"getAllInfo()": "b18e15bd",
					"getInfo(uint256)": "1a3cd59a",
					"getSum(int256)": "85ba61d7",
					"getValue()": "20965255",
					"infoMap(uint256)": "58e28ce6",
					"setValue(string)": "93a09352"
				}
			},
			"storageLayout": {
				"storage": [
					{
						"astId": 4,
						"contract": "solidity/Function.sol:Func",
						"label": "str",
						"offset": 0,
						"slot": "0",
						"type": "t_string_storage"
					},
					{
						"astId": 7,
						"contract": "solidity/Function.sol:Func",
						"label": "num",
						"offset": 0,
						"slot": "1",
						"type": "t_int256"
					},
					{
						"astId": 18,
						"contract": "solidity/Function.sol:Func",
						"label": "items",
						"offset": 0,
						"slot": "2",
						"type": "t_array(t_struct(Info)14_storage)dyn_storage"
					},
					{
						"astId": 23,
						"contract": "solidity/Function.sol:Func",
						"label": "infoMap",
						"offset": 0,
						"slot": "3",
						"type": "t_mapping(t_uint256,t_struct(Info)14_storage)"
					}
				],
				"types": {
					"t_address": {
						"encoding": "inplace",
						"label": "address",
						"numberOfBytes": "20"
					},
					"t_array(t_struct(Info)14_storage)dyn_storage": {
						"base": "t_struct(Info)14_storage",
						"encoding": "dynamic_array",
						"label": "struct Func.Info[]",
						"numberOfBytes": "32"
					},
					"t_int256": {
						"encoding": "inplace",
						"label": "int256",
						"numberOfBytes": "32"
					},
					"t_mapping(t_uint256,t_struct(Info)14_storage)": {
						"encoding": "mapping",
						"key": "t_uint256",
						"label": "mapping(uint256 => struct Func.Info)",
						"numberOfBytes": "32",
						"value": "t_struct(Info)14_storage"
					},
					"t_string_storage": {
						"encoding": "bytes",
						"label": "string",
						"numberOfBytes": "32"
					},
					"t_struct(Info)14_storage": {
						"encoding": "inplace",
						"label": "struct Func.Info",
						"members": [
							{
								"astId": 9,
								"contract": "solidity/Function.sol:Func",
								"label": "message",
								"offset": 0,
								"slot": "0",
								"type": "t_string_storage"
							},
							{
								"astId": 11,
								"contract": "solidity/Function.sol:Func",
								"label": "id",
								"offset": 0,
								"slot": "1",
								"type": "t_uint256"
							},
							{
								"astId": 13,
								"contract": "solidity/Function.sol:Func",
								"label": "addr",
								"offset": 0,
								"slot": "2",
								"type": "t_address"
							}
						],
						"numberOfBytes": "96"
					},
					"t_uint256": {
						"encoding": "inplace",
						"label": "uint256",
						"numberOfBytes": "32"
					}
				}
			},
			"userdoc": {
				"kind": "user",
				"methods": {},
				"version": 1
			}
		}
	}
}